:100000000C94C7020C940E030C940E030C941C2643
:100010000C940E030C940E030C940E030C940E031C
:100020000C940E030C940E030C946D2E0C943F2F25
:100030000C94E9280C940E030C940E030C940E03FC
:100040000C940E030C940E030C940E030C940E03EC
:100050000C940E030C945E290C940E030C940E0366
:100060000C940E030C940E030C940E030C940E03CC
:100070000C940E030C940E030C940E030C940E03BC
:100080000C940E030C940E030C940E030C940E03AC
:100090000C940E030C940E030C940E030C940E039C
:1000A0000C940E030C940E030C940E03AB06AB06DB
:1000B000DD06DD062A0748072B082B085307BB0778
:1000C000CC07CC07CB08CB08DD08DD08D408DD0859
:1000D000DD08DD08CB08CB08D908DD08DD08D90824
:1000E0000F211221322143214B21562159215C211C
:1000F0005F21A521A521622165216A217721842123
:1001000087218B219821AC2FD32FCB30D32FCB300D
:100110001F304230CB309930A83007634236B79B4E
:10012000D8A71A39685618AEBAAB558C1D3CB7CC57
:100130005763BD6DEDFD753EF6177231BF000000CF
:10014000803F05A84CCDB2D44EB93836A9020C5028
:10015000B9918688083CA6AAAA2ABE000000803F62
:1001600014001A000800150017000400160007000C
:1001700009000A001D001B00060019000500E1002F
:10018000E000E300E2002C411C0018000C0012000B
:1001900013000B000D000E000F002D0011001000C9
:1001A0003600370028002C42E000E300E2002A007D
:1001B0001E001F002000210022001E021F0220023C
:1001C00021022202570056005500540067002B0000
:1001D00049002C002C002C4123002400250026007F
:1001E0002700230224022502260227023500890067
:1001F0002F1230122D122C42E000E300E2002A0000
:100200003A003B003C003D003E001F02310033003D
:1002100033123400C25CC35CC55CC65CC75C2B0097
:1002200049002C002C002C413F00400041004200BE
:1002300043005000510052004F002E00C85CC95CC2
:100240002F00300031002C42E000E300E2002A00E1
:1002500000000000000000002A2B28000000000021
:100260000000000000000000000000290000000065
:100270002C1E3420212224342627252E362D3738D3
:10028000271E1F202122232425263333362E3738DC
:100290001F0405060708090A0B0C0D0E0F1011129A
:1002A000131415161718191A1B1C1D2F3130232D66
:1002B000350405060708090A0B0C0D0E0F10111264
:1002C000131415161718191A1B1C1D2F3130354C15
:1002D000000000000000000000000000000000001E
:1002E000000000000000000000000000000000000E
:1002F000000000007E0F00D4FFFFFFC70000007861
:1003000000047F3F1F643214643214783C1E1E14B4
:100310000A05FFAA7F554000010101010101010109
:1003200001020202020202020202030303030303A8
:100330000303040404040404040505050505060676
:100340000606060707070707080808080909090934
:100350000A0A0A0B0B0B0C0C0C0D0D0D0E0E0E0FDA
:100360000F0F10101111111212131314141515166A
:10037000161717181819191A1A1B1B1C1D1D1E1EDB
:100380001F2020212222232424252626272829292C
:100390002A2B2C2D2D2E2F30313232333435363757
:1003A00038393A3B3C3D3E3F404142434445464755
:1003B00048494A4C4D4E4F50515354555658595A2E
:1003C0005B5D5E5F616264656668696B6C6D6F70D2
:1003D00072737577787A7B7D7E8082838587888A41
:1003E0008C8E8F91939596989A9C9EA0A2A3A5A778
:1003F000A9ABADAFB1B3B5B7BABCBEC0C2C4C6C974
:10040000CBCDCFD1D4D6D8DBDDDFE2E4E7E9EBEE2C
:10041000F0F3F5F8FAFDFF100363006F006F006C56
:100420000036003400300000001403740065006CD6
:10043000007A006F0032003000300030000000040D
:1004400003090409025B00030100A0FA090400008B
:1004500001030101000921110100012240000705EB
:10046000810308000A0904010002030000000921B9
:100470001101000122220007058203200001070567
:100480000303200001090402000103000000092108
:1004900011010001227B000705840320000A1201DC
:1004A000000200000008434D400601000102000167
:1004B0000660FF0961A1010962150026FF00952071
:1004C000750881020963150026FF009520750891C3
:1004D00002C005010902A10185020901A100050967
:1004E00019012908150025019508750181020501EA
:1004F000093009311581257F950275088106093873
:100500001581257F950175088106050C0A380215AD
:1005100081257F950175088106C0C005010980A16C
:1005200001850319012AB700150126B70095017549
:10053000108100C0050C0901A101850419012AA040
:1005400002150126A002950175108100C005010960
:1005500006A101050719E029E71500250195087591
:100560000181029501750881010507190029FF1510
:100570000026FF0095067508810005081901290568
:10058000950575019102950175039101C000112433
:100590001FBECFEFDAE0DEBFCDBF04B603FE27C03B
:1005A00080910A0390910B03A0910C03B0910D036D
:1005B0008730904BA740B04BD1F410920A031092B1
:1005C0000B0310920C0310920D0314BE84B7877FA7
:1005D00084BF0FB6F894A8958091600088618093DD
:1005E0006000109260000FBEE0E0F8E3099511E0B2
:1005F000A0E0B1E0EEE9FAE602C005900D92AC3E53
:10060000B107D9F723E0ACEEB1E001C01D92AA30EA
:10061000B207E1F70E94CB150C944D350C94000005
:1006200081E0089581E008950C94120308950C94DC
:1006300016031F93CF93DF9300D000D01F92CDB746
:10064000DEB749835A836B833091EE0189819A81A9
:10065000311114C0662359F0222349F00E94C309C6
:10066000182F682F89819A810E946A0903C00E940D
:100670009609182F69817A81812F04C00E94C309CD
:1006800069817A810F900F900F900F900F90DF91FA
:10069000CF911F910C947722FC01262F408151812C
:1006A0006281738184810C94190381E00895CF9352
:1006B000DF93EC0160E00E944C03BE01DF91CF911B
:1006C0000C941703E1E0F0E0DF0102C0AA0FBB1FAA
:1006D0006A95E2F7BD01DF0102C0AA0FBB1F4A9570
:1006E000E2F7AD01462B01C0EE0F2A95EAF7942FF1
:1006F0009823491302C08E2B0895E0958E23089508
:10070000242F462F682F8091FE010E9462030C94D3
:1007100027090E94B2110E94DA040C94E2110C9491
:10072000DE1108950E94B9080E9491032FEF84E31F
:100730009CE0215080409040E1F700C000000C9404
:1007400084290F931F93CF93DF938C0161E00E9464
:100750004C03EC01B8010E946720882309F44BC0C8
:10076000B801CE010E941403882309F444C0B801E3
:10077000CE010E94C4238823F1F1B801CE010E946A
:1007800016248823C1F1B801CE010E944825882390
:1007900091F1B801CE010E94101F882361F1F80188
:1007A0008281882309F1CA358DE5D807C1F050F45C
:1007B000C115FCE5DF0781F0CE3DDC45A9F40E94C0
:1007C000BE0E19C0CB35EDE5DE0761F0CC35DD4559
:1007D00059F40E94500D08C00E9492030CC00E9460
:1007E000590D02C00E945C0DC801DF91CF911F918D
:1007F0000F910C94100380E0DF91CF911F910F9126
:100800000895DF92EF92FF920F931F93CF93DF93A0
:10081000E82FF0E0E05BFD4FD490282F2695269539
:10082000269530E0F901E051FD4F0491877010E00A
:10083000082E02C0159507950A94E2F7017011275A
:10084000F901E052FD4FE490F12C082E02C0F5941E
:10085000E7940A94E2F791E0E922FF24F901E053DA
:10086000FD4FC491D0E002C0D595C7958A95E2F7B7
:10087000C170DD270115110519F081EE0E943405C4
:10088000E114F10419F086EE0E9434058D2D0E94CA
:100890005D06EF2819F086EE0E94DE05012B19F0A7
:1008A00081EE0E94DE05CD2B51F08CE2DF91CF91DD
:1008B0001F910F91FF90EF90DF900C945D06DF91F8
:1008C000CF911F910F91FF90EF90DF900895EF92DD
:1008D000FF920F931F93CF93DF93EC01162F0AE043
:1008E0008881882309F455C0813009F043C089818B
:1008F000813041F47E0182E0E80EF11C8A810E9481
:100900005D0609C0823049F47E01E2E0EE0EF11C82
:100910008A810E943405E7012FC0833041F47E01B3
:10092000F2E0EF0EF11C8A810E94DE05F4CF8430E4
:1009300011F0219621C02A81229680E090E030E0DB
:10094000205331092A30310558F4089FA001099F2E
:10095000500D1124C901840F951F21962881EFCFD6
:10096000009751F0EFE9FFE03197F1F700C0000088
:100970000197F6CF0E9401042196812F882309F464
:10098000AFCFEFE9FFE03197F1F700C000008150F1
:10099000F5CFDF91CF911F910F91FF90EF900895C8
:1009A00060E00C94670408950C94D30481E00895EA
:1009B0000C94D6040895CF93C82F0E94D4048C2F92
:1009C0000E94D804CF910895CF93DF93CDB7DEB7BF
:1009D0002B970FB6F894DEBF0FBECDBF4F8358875D
:1009E00069877A878B8761110E947F0D9E012F5F37
:1009F0003F4F86E0F90111928A95E9F785E0FE0103
:100A00003796D90101900D928A95E1F789819A81F3
:100A10004C815D81452B31F09F3F31F491E08F3F58
:100A200019F403C091E001C090E090FF09C0498132
:100A30005A816B817C818D819E810E947F0C05C0D3
:100A4000C9010E9455038111F2CF2B960FB6F8947D
:100A5000DEBF0FBECDBFDF91CF910895FC01808135
:100A600091810E94F0090895CF93882309F4A4C0CE
:100A7000C82F8238C1F40E94A02781FD9DC069E380
:100A800080910001909101010E943A280E94A40DDA
:100A90002FEF81EE94E0215080409040E1F700C0BC
:100AA000000069E319C0833801F50E94A02780FD8A
:100AB00083C063E580910001909101010E943A2872
:100AC0000E94A40D2FEF81EE94E0215080409040D1
:100AD000E1F700C0000063E5809100019091010101
:100AE0000E943C28CF910C94A40D8438C1F40E943C
:100AF000A02782FD61C067E480910001909101010F
:100B00000E943A280E94A40D2FEF81EE94E021501C
:100B100080409040E1F700C0000067E4DDCF8CEF3B
:100B20008C0F813AD0F46C2F8091000190910101DB
:100B30000E940428882349F06C2F80910001909135
:100B400001010E943C280E94A40D6C2F809100019D
:100B5000909101010E943A28C5CF80E28C0F883025
:100B600048F4C77081E001C0880FCA95EAF70E9477
:100B7000620DB8CFEBE5EC0FE33040F4F0E0EB585A
:100B8000FE4F808190E0CF910C94CC27E8E5EC0FEC
:100B9000E73150F4F0E0EE0FFF1FE95BFE4F80817C
:100BA0009181CF910C94E227C03F30F08C2F0E94AE
:100BB0005816CF910C942A17CF910895882309F4E1
:100BC00064C0823879F40E94A02781FF5EC069E387
:100BD00080910001909101010E943A280E94A40D89
:100BE00069E310C08338B1F40E94A02780FF4DC094
:100BF00063E580910001909101010E943A280E94D2
:100C0000A40D63E580910001909101010E943C28B0
:100C10000C94A40D843879F40E94A02782FF35C07B
:100C200067E480910001909101010E943A280E949E
:100C3000A40D67E4E7CF9CEF980F913A10F4682F6A
:100C4000E1CF90E2980F983050F4877091E001C0A6
:100C5000990F8A95EAF7892F0E94680DD9CF9BE5F5
:100C6000980F933020F480E090E00C94CC2798E526
:100C7000980F973120F480E090E00C94E227803FB9
:100C800020F00E94B3160C942A1708951F93CF9357
:100C9000DF93182FEB010E943405209741F08FE974
:100CA0009FE00197F1F700C000002197F6CF812F58
:100CB000DF91CF911F910C94DE05893319F060E02C
:100CC00070E002C060E570E00C944606882321F0D5
:100CD0000E94620D0C94A40D0895882321F00E94B7
:100CE000680D0C94A40D0895CF92DF92EF92FF92BD
:100CF0000F931F93CF93DF937C01062FC72FFC0127
:100D0000D281158112951F700E94370D882399F0AA
:100D1000DD2389F08C2F807F803421F080E2800FEA
:100D2000883048F082E00E94F40D0E94370D91E077
:100D3000D82ED92601C0D12CCC2EC2948FE0C82247
:100D40008C2D90E08C30910508F085C1FC01EA5AA9
:100D5000FF4F0C94A4348C2F807FCF70882311F028
:100D6000C295C07FDD2399F0CC2309F460C180E2F5
:100D7000800F883010F0011104C08C2F0E94620D8A
:100D800003C08C2F0E94720D0E94A40D50C1802FB1
:100D90000E94DE05CC2309F45EC180E2800F88301A
:100DA00010F0011104C08C2F0E94680D03C08C2F1D
:100DB0000E94780D0E94A40D4EC18C2F807FCF70B1
:100DC000803211F0C295C07F002319F00130C9F0C4
:100DD00022C0DD2371F0112341F0113031F40E9463
:100DE000850D8C2B0E948D0D36C10E94850D8C2B9C
:100DF0001DC0112319F0113009F42DC10E949A0D64
:100E000025C0DD2321F0163008F025C10EC01530B5
:100E100008F021C11BC0DD2361F0112331F0F7017F
:100E2000858180FF04C18F7085838C2F0E946606A8
:100E300012C1112359F0093309F00AC1FFEF27EE5F
:100E400083E0F15020408040E1F700C18C2F0E94E8
:100E50006D0601C18C2F86958695837019F08130BF
:100E600061F0F9C0DD2321F0802F9C2F937002C028
:100E700080E090E00E94CC27F6C0DD2321F0802F97
:100E80009C2F937002C080E090E00E94E227EBC0AC
:100E9000802FDD2319F00E94581602C00E94B3165D
:100EA0000E942A17E0C08C2F837079F5D111D7C02A
:100EB000402F429546954770440F440F202F2F70C6
:100EC000042E01C0220F0A94EAF704FF08C08FE045
:100ED00090E001C0880F4A95EAF7809501C080E054
:100EE000C695C695C370822BC23049F058F4C13004
:100EF00019F00E941B09B3C00E941609B0C00E94DD
:100F00002009ADC00E941409AAC0DD2319F08C2F5E
:100F1000817001C08695882309F4A1C0402F4295B5
:100F200046954770440F440F202F2F70042E01C0A8
:100F3000220F0A94EAF704FF08C08FE090E001C096
:100F4000880F4A95EAF7809501C080E0C695C6955E
:100F5000C370822BC23049F058F4C13019F00E949E
:100F60005F097DC00E945A097AC00E94640977C057
:100F70000E94270974C0CF70DD2339F08C2F0E94A6
:100F80003809802F0E9466066AC0802F0E946D0675
:100F90008C2F0E94430963C0023F01F128F4003FF7
:100FA00041F0013FA1F03FC0033FF9F0043F39F1A8
:100FB0003AC0DD2341F0153008F04DC08C2F8F7101
:100FC0000E944F0948C0163008F045C0F7CFDD2316
:100FD00039F08C2F8F710E9438093DC0DD23C9F391
:100FE0008C2F8F710E94430936C0DD2329F08C2F8E
:100FF0008F710E9430092FC00E942D092CC0DD2363
:1010000049F0CF718C2F0E94380963E08C2F0E9429
:10101000D90D21C081E00E94F40D1230E0F082E091
:101020000E94F40D18C0DD2331F0112391F2802FBE
:101030000E94340510C0112399F2093349F49FEF3F
:10104000E7EEF3E09150E040F040E1F700C000002F
:10105000802F0E94DE0588EF8C0D843020F40E94E2
:10106000A0270E94DB04DD20C9F00E94330D80FD23
:1010700015C0F70112820E942D0D0E943809C70188
:101080000E946F080E942D0DDF91CF911F910F914B
:10109000FF90EF90DF90CF900C944309DF91CF91B8
:1010A0001F910F91FF90EF90DF90CF9008950F93D5
:1010B0001F93CF93DF93EC01688179818A810E942D
:1010C000FB098C010E9469090E940809B801CE0140
:1010D0000E947406DF91CF911F910F910895CF93D5
:1010E000DF93EC01988189812B813C81232B31F0A6
:1010F0008F3F31F481E09F3F19F403C081E001C0CC
:1011000080E080FD19C0CE010E94A10381110CC0B6
:101110000E94370D882381F08A81882369F082E05C
:10112000DF91CF910C94F40DCE010E945708CE01AF
:10113000DF91CF910C945703DF91CF91089580E018
:1011400090E00E94CC2780E090E00E94E2270E947D
:101150007F0D0E94820D0E94A40D0E945B180C94CA
:101160002A1780910001909101010E943E280C9461
:101170009F080E946F0D0C94B108E92FE295EF7063
:101180004E2F50E0FA013297EE30F105B0F4EE59EF
:10119000FF4F0C94A434803F91F018F4883E68F41B
:1011A0000EC0843F51F40BC0883E48F0813F29F4C3
:1011B00006C093FB882780F9089580E0089581E0B8
:1011C0000895FC01808191810E94F0090E94BD0870
:1011D0000895CF93DF9300D000D01F92CDB7DEB734
:1011E0000F900F900F900F900F90DF91CF91089577
:1011F000CF93DF9300D000D000D0CDB7DEB72696D6
:101200000FB6F894DEBF0FBECDBFDF91CF9108952A
:10121000089508950C9409090C940A090E940C0978
:101220008093FF010C949F080C940E099091FF018C
:10123000892B0C940E099091FF0189230C940E09BF
:101240009091FF0189270C940E090C9409090E94C2
:1012500025098093FE010C949F0880E00C942709D7
:1012600091E001C0990F8A95EAF7892F0C9427091C
:1012700021E030E001C0220F8A95EAF78091FE015B
:10128000822B0C94270921E030E001C0220F8A95BF
:10129000EAF720958091FE0182230C94270921E032
:1012A00030E001C0220F8A95EAF78091FE01822783
:1012B0000C9427099091FE01892B0C942709909199
:1012C000FE0189230C9427099091FE0189270C9433
:1012D0002709089524E0929F900D1124890FE82F8B
:1012E000E695E695E695877051E001C0550F8A9521
:1012F000EAF783E0E89FF0011124E151FE4F20E07E
:1013000030E070E04081CB01022E02C096958795B7
:101310000A94E2F78170819584278523842781933D
:101320002F5F3F4F2330310569F7089524E0929FE6
:10133000900D1124890F682F669566956695982FF4
:10134000977083E0689FB001112440E050E080E096
:10135000FB01E40FF51FE151FE4F208130E0092E23
:1013600002C0369527950A94E2F721703327042EA0
:1013700001C0220F0A94EAF7822B4F5F5F4F433080
:10138000510531F70895CF92DF92FF920F931F938B
:10139000CF93DF936C010091FE018091FF01082B38
:1013A000C7E0D0E010E0C8010C2E02C095958795EB
:1013B0000A94E2F780FD04C02197A8F7F12C07C03A
:1013C000FC2EB6018C2F0E94BC100197A9F38F2D23
:1013D000DF91CF911F910F91FF90DF90CF900895F3
:1013E000CF93DF93EC010E94C309BE010E94BC10A1
:1013F000DF91CF9108951F93CF93DF93EB019091ED
:10140000EE01992321F0CB010E94F00913C088233B
:1014100049F0CB010E94C309182F682FCE010E940A
:101420006A0904C0CB010E949609182FBE01812FC2
:101430000E94BC10DF91CF911F9108951F93CF930D
:10144000DF93C091000216E080910102C81799F065
:10145000D0E01C9FF0011D9FF00D1124EE5FFD4FA9
:101460004081518162817381848195810E94F80855
:101470002196C770E9CFDF91CF911F9108954091D8
:1014800032025091330260913402709135028091A2
:101490003602909137020C94F8080F931F93CF9364
:1014A000DF938091370282958F7009F05DC0809143
:1014B0003402882309F458C080910002109101027F
:1014C0006091320270913302C0913502D0913602A0
:1014D00091E06F3F09F090E0292F06E0811709F4B1
:1014E00043C0209721F07F3F21F030E003C031E07E
:1014F00001C0322F90E030FD34C0089FF001099FF9
:10150000F00D1124DF01AE5FBD4F11963C91119794
:10151000371327C03C91361324C012963C91129782
:1015200031111FC013964D915C9114974C1B5D0BAC
:10153000483C5105B0F4809137028F7080618093F0
:101540003702E95FFD4F80818F708061808382E385
:1015500092E00E946F08DF91CF911F910F910C9440
:101560001E0A01968770BACFDF91CF911F910F911C
:1015700008959F92AF92BF92CF92DF92EF92FF9227
:101580000F931F93CF93DF93CDB7DEB761970FB65D
:10159000F894DEBF0FBECDBF8C0185E0F801DE01FF
:1015A0001D9601900D928A95E1F7F801E2809091E5
:1015B00032026091330220913502309136022115BA
:1015C000310531F06F3F31F481E09F3F19F403C0E2
:1015D00081E001C080E0F82FF1709F2E80FD3FC1B7
:1015E000F80140815181A380B48082E3C82E82E05B
:1015F000D82EF0903402F501E21BF30BFF2009F422
:10160000D9C080913702E83CF10508F095C0282F39
:10161000207F09F052C0561313C0491311C0FE2C8D
:10162000E1100EC08F708061809337020E943F0AE4
:10163000C6010E946F0880913702F80185834CC172
:10164000AB2831F05F3F31F481E04F3F19F403C024
:1016500081E001C080E080FD03C081E08E2502C0F2
:1016600080E090E0F82FF170FF2E80FF1CC0809189
:1016700000022091010236E0821709F40BC190E0CC
:10168000389FF001399FF00D1124EE5FFD4F61810D
:10169000561306C06081461303C06281E61203C080
:1016A00001968770E9CFFE2CEE2009F415C18091D8
:1016B000370281608093370254C0561306C0491325
:1016C00004C0E11002C0F80199C0C8010E94E108FD
:1016D000882361F1EE2051F120913702822F82950B
:1016E0008F7090E0029774F08091320290913302F3
:1016F00098878F831986BB86AA862C87CE0107968A
:101700000E946F0886E0F801A2E3B2E001900D921A
:101710008A95E1F70E944D0A0E943F0A0AC05617B7
:1017200011F1C8010E94E10881112CC0C8010E947A
:101730006F08FF24F394D0C0282F207F81F77A2DE3
:10174000B98AA88A6E2D89890E94E90882E392E00D
:101750000E946F0886E0F60111928A95E9F70E94CF
:101760003F0AF12CB9C04913DCCFE110DACFF80100
:101770008583C8010E946F0886E0F60111928A9560
:10178000E9F7AAC0EE2091F220913702822F8295CC
:101790008F7090E002970CF4B5CF80913202909157
:1017A00033029A8389831B82BD82AC822E83CE0151
:1017B0000196A6CFE83CF10508F044C0FE2CEE20CF
:1017C00009F4B4CF561330C049132EC0209137020C
:1017D00020FD21C0822F82958F70482F50E0411547
:1017E0005105C9F0F80125834F30510541F08F5F55
:1017F000982F9295907F822F8F70892B8583C801B7
:101800000E946F0886E0F801A2E3B2E001900D9219
:101810008A95E1F73CC086E0F801A2E3B2E00190CE
:101820000D928A95E1F758C0C8010E94E108811124
:1018300069CF80913702816080933702C8010E948E
:101840006F084AC07A2DB98AA88A6E2D89890E94AC
:10185000E90886E0F60111928A95E9F718C0EE20B2
:1018600009F464CFC8010E94E108F82E882309F426
:101870005DCF86E0F801A2E3B2E001900D928A9577
:10188000E1F782E392E00E942E050E944D0A0E9439
:101890003F0A22C04D875E878D859E850E94F00994
:1018A000292F22952F70223028F49F7039F0811152
:1018B00005C00BC0243028F49F7049F4805E883046
:1018C00020F0C8010E946F089F2CF92C05C0F80178
:1018D0009581907F99F7F9CF8F2D61960FB6F89487
:1018E000DEBF0FBECDBFDF91CF911F910F91FF9053
:1018F000EF90DF90CF90BF90AF909F9008951F938F
:10190000CF93DF93CDB7DEB72C970FB6F894DEBF39
:101910000FBECDBF4F83588769877A878B879C8797
:10192000CE0107960E94B90A8823D1F09F8188854D
:101930002A853B85232B31F08F3F31F481E09F3F97
:1019400019F403C081E001C080E080FD47C04F81F1
:10195000588569857A858B859C850E94F8083EC0EC
:1019600086E0FE013796DE01119601900D928A9570
:10197000E1F7FF81E8856A857B856115710531F0A6
:10198000EF3F31F481E0FF3F19F403C081E001C073
:1019900080E080FD23C02091010230E0C901019662
:1019A000877099274091000250E084179507F1F164
:1019B000F983EA837D836C8396E0929FD001939FA5
:1019C000B00D1124AE5FBD4FFE01319601900D9216
:1019D0009A95E1F7809301020E941E0A16E0809119
:1019E000000290910102891771F1189FC001112422
:1019F0008E5F9D4F0E94B90A882329F1E091000271
:101A00001E9FF0011124EE5FFD4F408151816281E4
:101A10007381848195810E94F8088091000290E092
:101A200001968770992780930002D9CF0E94B90848
:101A30001092010210920002E2E3F2E086E0DF0180
:101A40001D928A95E9F72C960FB6F894DEBF0FBE6B
:101A5000CDBFDF91CF911F91089580913802859578
:101A600085958595089580913802877008959091A5
:101A70003802977081E009F480E008959091AC02FB
:101A800092FB222720F9281751F080FB92F99093BE
:101A9000AC028091AB029091AC020C943B0E089585
:101AA0008091AC0282FB882780F991E089270C9411
:101AB0003E0D81E00C943E0D80E00C943E0D809133
:101AC0004402089590914402892B80934402089522
:101AD0008095909144028923809344020895109246
:101AE0004402089590914302892B80934302089504
:101AF0008095909143028923809343020895109228
:101B00004302089510924202089580913902089587
:101B100008950C94880D0C94890D9091AC0292FD5F
:101B200008C090913902981721F0809339020C94E3
:101B30008B0D089580913902882329F01092390283
:101B400080E00C948B0D0895E0910001F09101016B
:101B5000809144028083E0910001F0910101908125
:101B600080914302892B8083E0910001F091010173
:101B7000908180914202892B808380913902882351
:101B800081F0E0910001F09101019081892B808327
:101B900080910001909101010E94F82781110E941B
:101BA0009A0D80910001909101010C94B3270C943F
:101BB000880D9091AC0292FD10C098E0899F900131
:101BC0001124262B209338020E9438098091380274
:101BD0008595859585950C94D70D0C9438091092B0
:101BE000380280E00C94D70D209138028095822332
:101BF00080933802982F977041F430E0482F082ED8
:101C0000000C550B2417350721F49091AC0292FF7C
:101C100007C08595859585950E9443090C94EF0D25
:101C200008956FEF7FEF80E090E00C94373580E00F
:101C300090E00E941335893E9E4F11F40C940A20C7
:101C400080E0089582E090E00C94053583E090E018
:101C50000C940535CF9384E090E00E940535C82FA1
:101C600082E290E00E9405352C2F30E0A901582B2C
:101C7000CA01CF910895CF93C92F682F84E090E0D7
:101C80000E9419356C2F82E290E0CF910C941935A7
:101C9000AB01BC018FE090E00C942B35AB01BC0193
:101CA00083E190E00C942B3560E070E0CB010C9464
:101CB0004E0E60E070E0CB010E94480E0C94540E72
:101CC00069EE7EEF80E090E00E94373560E082E0D0
:101CD00090E00E94193560E083E090E00E941935A1
:101CE0001092FF0160E084E090E00E94193560E00E
:101CF00082E290E00E94193560E085E090E00E9469
:101D0000193560E086E090E00E9419356FEF87E0BA
:101D100090E00E94193540E050E0BA0188E090E080
:101D20000E942B3560E08DE090E00E94193540E084
:101D300050E0BA0188E190E00E942B3560E087E135
:101D400090E00E94193540E050E0BA018CE190E04B
:101D50000E942B3560E070E080E290E00E94373511
:101D600040E050E0BA0188E190E00E942B3580E02D
:101D70000E9423200E944F200C94590E0C94600E58
:101D8000682F8EE090E00C9419350E94272960930B
:101D900052027093530280935402909355026093C1
:101DA0004E0270934F028093500290935102089517
:101DB00085B7806885BF85B7806885BF08950C9416
:101DC000921308950C94E10E0C94E10E0C94E40E21
:101DD0000C94E10E0C94E80E0C94E10E0E94D80EC7
:101DE00088E991E10E9495290E94EC0E0C94EA0E7C
:101DF0000E94E20E0C94E10E0E9412290E944528D6
:101E00000E945E200E9492120E9439230E941E1E90
:101E10000C94E60E9F92AF92BF92CF92DF92EF9218
:101E2000FF920F931F93CF93DF93CDB7DEB72A971F
:101E30000FB6F894DEBF0FBECDBF0E94071381110D
:101E40000E94C50E86E4A82E82E0B82E00E010E0C5
:101E5000902E802F0E94CC11D82EF501C1905F01E9
:101E6000C826B1F40F5F1F4F0830110589F78FEFB7
:101E700089838A831B820E941B298160782F9D831E
:101E80008C8349815A816B818D810E94E4042FC02B
:101E90008091560281FD0E94D211E12CFF24F3941F
:101EA0008C2D8F21F1F00E94DF0E882399F0EE82B5
:101EB0009F82DF2081E009F480E088870E941B294F
:101EC0008160782F9A8789874E815F8168858A85AE
:101ED0000E94E404F801EA5BFD4F8081F826F0825D
:101EE00006C0E394FF0CF5E0EF12DACFBBCF0E94FF
:101EF000621E0E9448170E94A027909145028917F0
:101F0000B9F00E94A027809345022A960FB6F89454
:101F1000DEBF0FBECDBFDF91CF911F910F91FF901C
:101F2000EF90DF90CF90BF90AF909F900C94DB0428
:101F30002A960FB6F894DEBF0FBECDBFDF91CF91CA
:101F40001F910F91FF90EF90DF90CF90BF90AF90D7
:101F50009F900895CF93DF930E94C110EC018115EB
:101F600021E5920708F045C0811530E5930708F098
:101F700094C0883E910528F5803E910508F0F8C090
:101F8000883A910570F4853A910508F07CC081305B
:101F9000910509F475C008F4E8C0049708F0E8C09A
:101FA000E4C08F3B910508F0E0C0C85AD0E0CC0FE8
:101FB000DD1FC858DE4F0990D881C02DCE01946432
:101FC000D8C0811540E2940758F4811551E0950777
:101FD00008F0CEC0803F910508F4C7C09065C9C025
:101FE000C11580E4D80708F4C0C0DF70CE01906A44
:101FF000C0C0811525E59207A8F4811534E5930743
:1020000008F095C0811543E5940708F07BC0811561
:1020100052E5950708F061C0D82FCC27CE01816F1B
:10202000906AA7C0C11589E5D807A0F4C11528E5B5
:10203000D20708F082C0C11536E5D30708F095C075
:102040008C2F0E9455118F7190E0D82FCC27CE0194
:1020500090628FC0C1154AE5D40708F474C0CE0160
:1020600090568115904208F080C08D2F8F710E948C
:102070005511DD27D0628F71AE01582BCA0179C08E
:1020800081E090E076C0C55AD0E0CA55DE4F888125
:10209000C82FD0E0CE0190646CC074E0969587950F
:1020A0007A95E1F7282F23703C2F337081E090E080
:1020B00002C0880F991F3A95E2F79C68AC01522B39
:1020C0009A019C2F9F709695969550E2959FE001FE
:1020D0001124C9018C2B9D2B4CC08370992721E0C2
:1020E00030E002C0220F331F8A95E2F79C2F9695AD
:1020F000969580E2989FE0011124C22BD32BCE014C
:102100009C6837C08370992721E030E002C0220F1D
:10211000331F8A95E2F79C2F9695969540E2949FFF
:10212000E0011124C22BD32BCE019A6822C0D82FF4
:10213000CC27CE01846F906A1CC0DC2FCC27CE0147
:10214000806F906A16C08C2F8F700E94551194E09A
:10215000D695C7959A95E1F7CF70D0E0DC2FCC27C4
:10216000D0699E01282BC90104C080E090E001C025
:10217000CE01DF91CF9108950E9477220E94AA0F8D
:1021800008958238910569F1B0F48133910509F41D
:102190006DC048F48932910509F463C08A32910513
:1021A00009F469C008958533910509F455C0893350
:1021B0009105B9F00895833E910569F138F4803EA8
:1021C0009105B1F0823E910509F10895863E910591
:1021D000A9F1873E9105B9F1843E910509F064C0EB
:1021E00023C02091AB0220FD4FC021FD4DC00895BA
:1021F0008091AB0280FD44C08091AC0280FF44C05E
:102200008091AB0284FD42C083EE4DC08091AB0251
:1022100082FF38C0F5CF8091AB0282FD33C0809140
:10222000AC0280FD31C0ECCF8091AC0281FF32C0A6
:102230008091AB0284FD2AC087EE35C08091AB024D
:1022400083FF26C0F5CF8091AB0283FD21C0809132
:10225000AC0281FD1FC0ECCF8091AB0285FD1CC09C
:102260001DC08091AB0285FD19C016C08091AB02E4
:1022700086FD16C017C08091AB0286FD13C010C04A
:1022800089E311C082EE0FC080EE0DC080E00BC06C
:1022900086EE09C084EE07C089E205C085E303C06D
:1022A0008AE201C081E390E008959091AB0292FF31
:1022B0000DC0282F2871283019F4877F846006C04C
:1022C000282F2471243011F48B7F886093FF0DC078
:1022D000282F2871283119F4877E846106C0282FA1
:1022E0002471243111F48B7E88612091AC0220FF8F
:1022F0000DC0382F3871383019F4877F816006C0DF
:10230000382F3171313011F48E7F886021FF0DC07C
:10231000282F2871283119F4877E816106C0282F63
:102320002171213111F48E7E886194FD877E08959C
:1023300080E008950C94110E0E9407138FE39CE92E
:102340000197F1F700C000000E94071380E00E948F
:10235000CC1180FF04C00E949A110C948429089526
:102360000C949C110E94170E811102C00E94BE0E97
:102370000E94220E809356020E942A0E9093AC0275
:102380008093AB020E94B0110E94260E0E94140995
:102390008091FE010C942509E82FF0E0EB54FD4FED
:1023A00080810895089580EA8A95F1F7089500C024
:1023B00008950C94D31108950C94DB110C94DC1146
:1023C0000C94DB110C94E011F894E82FE295EF7077
:1023D000F0E031A1282F2F7081E090E001C0880F3C
:1023E0002A95EAF7982F9095932391A392A1892B90
:1023F00082A37894089508950C94FB110F931F9372
:10240000CF93DF93C9EAD1E089918F3F11F00E9409
:10241000E41181E0CE3AD807B9F7CEEAD1E002EB79
:1024200011E089918F3F11F00E94E4110C171D07F4
:10243000C1F7DF91CF911F910F910895DF92EF9235
:10244000FF920F931F93CF93DF93062F10E0075552
:102450001E4FE80128812F3F09F45CC0F62EE92EBB
:10246000D82EF894E22FE295EF70F0E081A12F7062
:10247000C1E0D0E0AE0102C0440F551F2A95E2F73B
:102480009A01842B81A382A12095282322A37894EA
:102490000E94D7110F2C01C0CC0F0A94EAF73C2FF1
:1024A0006C2F6095AEEAB1E0ED2DFE2DAF014C5FD3
:1024B0005F4FE12C2D912F3FA9F0822F82958F70D5
:1024C00090E0EC0188A190E02F7002C0959587956F
:1024D0002A95E2F780FD06C08081832B8083EE245D
:1024E000E39403C08081862380833196E417F50747
:1024F00009F7F80180818F3F11F00E94E4116E2DE1
:102500008F2DDF91CF911F910F91FF90EF90DF9072
:102510000C94D911DF91CF911F910F91FF90EF9003
:10252000DF9008950E94AC13809102018091020116
:10253000811102C094E001C090E09093BE0284E05B
:10254000891B8093BD020E94FE11EDEAF2E0A5EB2B
:10255000B2E011921D9282E0E53BF807D1F784E0EA
:102560000E945B130E9489030C94B6131F93CF93B0
:10257000DF9300D000D0CDB7DEB70E9492136091F8
:10258000BE02882371F119821A821B821C82862F57
:1025900090E0BE016F5F7F4F8B549D4F0E94C4132C
:1025A000E091BD029E012B5F3F4FF0E0EB54FD4FE9
:1025B000DE011196882361F010E08D9190819817CB
:1025C00011F0808311E03196A217B307B1F706C06E
:1025D00011921D92A217B307D9F711E00E948F0341
:1025E0000DC070E06B547D4F8091BD0290E08B5424
:1025F0009D4F0E9454140E94FC1110E0812F0F90F7
:102600000F900F900F90DF91CF911F910895EF924F
:10261000FF920F931F93CF93DF93CDB7DEB7289729
:102620000FB6F894DEBF0FBECDBF8E010F5F1F4FF8
:1026300088E0F80111928A95E9F7F12C6F2DC80115
:102640000E941E12F394F5E0FF12F8CF48E050E02C
:10265000B8018DEA92E00E94EF347C0121E0892BE1
:1026600009F420E0E114F10441F088E0F801ADEA5A
:10267000B2E001900D928A95E1F76091BE0270E0A0
:102680006B547D4F44E08DEA92E00E945C13EF288A
:1026900019F40E94B61202C081E090E028960FB6AD
:1026A000F894DEBF0FBECDBFDF91CF911F910F9188
:1026B000FF90EF9008950895FF920F931F93CF938B
:1026C000DF938C01F62ED72FC42F222349F081E00F
:1026D000809359020E941B299093580280935702BD
:1026E000809159028823C1F080915702909158023D
:1026F0000E943329059780F0EF2DFD2FD8014C2F34
:1027000050E0CD01801B910B841795071CF48D912F
:102710008193F7CF10925902DF91CF911F910F91C2
:10272000FF90089580915C0281110DC00E940431D8
:10273000811102C082E001C081E080935C0282309E
:1027400011F40E94FF3081E090915C02913009F019
:1027500080E008950C9492130E94AA1380930201C2
:102760000E94921381110C94FC1308950E949213FD
:10277000811102C00C94FE13089581E090915D02D6
:102780009A3008F080E008950F931F93CF93DF9362
:10279000EC018B0180915D028A3038F4B801CE01E2
:1027A0000E94521481111DC00AC080915A0290915A
:1027B0005B020E943329843F914080F715C08091CD
:1027C0005D028F3F19F08F5F80935D0280915D0203
:1027D0008A3060F00E941B2990935B0280935A021A
:1027E00003C010925D0202C080E001C081E0DF9171
:1027F000CF911F910F9108950C94D6250C94D92553
:10280000EF92FF920F931F93CF93DF937901C82F1D
:10281000880FDD0B41155105A9F08AE08C9FF0016E
:102820008D9FF00D1124ED5FFE4F83819481825ABC
:102830009D4F228130E04217530708F49A01A90105
:102840000E94FC34CE010E94E326892B09F5011574
:10285000110501F18AE08C9FF0018D9FF00D11248C
:10286000ED5FFE4F458150E00417150708F4A801FD
:102870008AE08C9FF0018D9FF00D1124ED5FFE4FDB
:1028800066817781625A7D4FC7010E94FC3402C085
:1028900080E001C081E0DF91CF911F910F91FF9007
:1028A000EF9008950C9475150C9491150F931F9348
:1028B000CF93DF9300D000D0CDB7DEB76091730225
:1028C0007091740280917502909176020E94422963
:1028D000643671058105910528F10E946B28DC01A1
:1028E000CB010296A11DB11D89839A83AB83BC8362
:1028F00000E010E020E030E044E050E0BE016F5F17
:102900007F4F82E00E940014182F882361F00E94FC
:1029100027296093730270937402809375029093D9
:10292000760201C011E0812F0F900F900F900F9051
:10293000DF91CF911F910F910895AF92BF92CF92E7
:10294000DF92EF92FF920F931F93CF93DF937C015F
:102950005B016A010E94BD13811103C001E010E018
:1029600002C00AE010E0C1E0D0E0F894B501C70170
:10297000F60109957894811115C021960C171D0751
:1029800094F0CC9F9001CD9F300D300D112480E04C
:1029900090E045E34A95F1F700000196821793070E
:1029A000C1F7E3CF81E0DF91CF911F910F91FF90AD
:1029B000EF90DF90CF90BF90AF900895AF92BF920D
:1029C000CF92DF92EF92FF920F931F93CF93DF93FB
:1029D00000D000D01F92CDB7DEB75B01E090B6010A
:1029E000F090B70101E010E09E012B5F3F4F40E007
:1029F00050E060E070E080E00E940014182F88230F
:102A000009F43EC067018FEFC81AD80A60916F02BF
:102A10007091700280917102909172020E9442291D
:102A2000643671058105910518F104E010E09E01FE
:102A30002F5F3F4F40E050E060E070E081E00E9497
:102A40000014182F64E070E0C6010E943A2391E060
:102A50002D81281390E0192351F10E9427296093BA
:102A60006F0270937002809371029093720211C092
:102A700064E070E0C6010E943A239D818913D5CF9E
:102A8000F70181819281A381B48189839A83AB8389
:102A9000BC83112361F089819A81AB81BC818093D1
:102AA0006B0290936C02A0936D02B0936E028091C2
:102AB0006B0290916C02A0916D02B0916E02F501D3
:102AC00080839183A283B383812F0F900F900F9007
:102AD0000F900F90DF91CF911F910F91FF90EF908A
:102AE000DF90CF90BF90AF9008950F931F93CF9337
:102AF000DF93EC018B014EED54E10E949D1488237D
:102B000051F046E554E1B801CE01DF91CF911F911C
:102B10000F910C949D1480E0DF91CF911F910F9144
:102B200008950F931F93CF93DF93F894C091B6014C
:102B3000D091B701CE01019624E0FB01DC010190A8
:102B40000D922A95E1F764E070E00E943A238883B1
:102B50007894F8946D817E818F81988500916702C9
:102B6000109168022091690230916A026017710722
:102B70008207930751F06093670270936802809315
:102B8000690290936A020E944E287894DF91CF9157
:102B90001F910F9108950E948F280E94292B0E9457
:102BA000422B0E94542B0E94F80EFBCF80917D0295
:102BB00080FF0BC06091260185E0689FB001112461
:102BC00075956795759567952BC081FF09C06091D4
:102BD000260185E0689FB00111247595679520C096
:102BE00082FF07C06091260185E0689FB001112433
:102BF00017C090917C029923D1F06091250196171E
:102C000088F72091260185E0289F90011124929F4A
:102C1000A001939F500D112470E0CA010E946E34F0
:102C20006038710540F46115710519F406C065E05E
:102C300070E0862F08958FE7089581E008958091D0
:102C40007D0280FF08C06091220170E07595679554
:102C50007595679521C081FF06C06091220170E0E3
:102C60007595679519C082FF04C06091220170E0DC
:102C700010C090917B02992399F0609121019617E1
:102C8000A0F780912201899FC001112470E00E9469
:102C90006E346038710540F46115710519F406C091
:102CA00061E070E0862F08958FE7089581E0089530
:102CB000803F21F40E94D615819504C0813F29F4FC
:102CC0000E94D615809381020895823F21F40E94CC
:102CD000D615819504C0833F29F40E94D6158093B0
:102CE00080020895893F19F40E941F1605C08A3F8B
:102CF00031F40E941F1681958093820208958B3FC4
:102D000021F40E941F16819504C08C3F29F40E9473
:102D10001F168093830208959CE0980F953078F4F5
:102D200021E030E0A90102C0440F551F9A95E2F757
:102D3000CA0190917F02892B80937F0208958D3F75
:102D400021F480917D0281600BC08E3F21F480913F
:102D50007D02826005C08F3F29F480917D028460EE
:102D600080937D020895803F39F49091810297FF0E
:102D700035C01092810259C0813F29F4909181029F
:102D80001916BCF32BC090918002823F29F497FF63
:102D900025C01092800249C0833F19F41916CCF364
:102DA0001DC090918202893F29F41916BCF410923B
:102DB00082023BC08A3F19F497FF10C0F8CF8B3FC7
:102DC00039F49091830297FF09C0109283022DC0BD
:102DD0008C3F21F4909183021916BCF39CE0980F6C
:102DE000953080F421E030E0A90102C0440F551F66
:102DF0009A95E2F7CA01809590917F02892380938A
:102E00007F0213C08D3F21F480917D028E7F0BC025
:102E10008E3F21F480917D028D7F05C08F3F29F484
:102E200080917D028B7F80937D0280918002811151
:102E300006C080918102811102C010927C028091B3
:102E40008202811106C080918302811102C010921A
:102E50007B0208950E941B2920918002211104C049
:102E600020918102222321F090937A0280937902AB
:102E700020918202211104C020918302222321F09B
:102E800090937802809377028EE792E00C94BE27AD
:102E9000EF92FF920F931F93CF93DF9300D000D058
:102EA00000D0CDB7DEB786E0EEE7F2E0DE011196A6
:102EB00001900D928A95E1F7E0908002F0908102F6
:102EC000009182021091830210928002109281027E
:102ED0001092820210928302E11003C0FF2009F4D5
:102EE0005DC08091790290917A020E943329AC01F1
:102EF00090917C02992339F02091270130E024172A
:102F0000350758F04BC0209128018AE0289F900196
:102F100011242417350718F041C09F3F19F09F5F17
:102F200090937C02EE2061F00E94D6151E1414F0DE
:102F30009FEF01C091E0989F902D11249093800203
:102F4000FF2061F00E94D6151F1414F09FEF01C0FE
:102F500091E0989F902D11249093810230918002EE
:102F60003323E1F0209181022223C1F045EB3403A9
:102F7000C0011124992319F09093800203C081E0CD
:102F80008093800235EB2303C0011124992319F0AB
:102F90009093810203C081E080938102011103C0FC
:102FA000112309F45DC080917702909178020E940C
:102FB0003329AC0190917B02992339F020912301B0
:102FC00030E02417350758F04BC0209124018AE0E7
:102FD000289F900111242417350718F041C09F3F06
:102FE00019F09F5F90937B02002361F00E941F16EF
:102FF000101614F09FEF01C091E0989F902D1124BE
:1030000090938202112361F00E941F16111614F092
:103010009FEF01C091E0989F902D1124909383021F
:10302000309182023323E1F0209183022223C1F008
:1030300045EB3403C0011124992319F090938202C7
:1030400003C081E08093820235EB2303C001112489
:10305000992319F09093830203C081E08093830247
:103060008091800281110BC080918102811107C083
:1030700080918202811103C08091830281110E949C
:103080002A17EB82FC820D831E8386E0FE013196B7
:10309000AEE7B2E001900D928A95E1F726960FB661
:1030A000F894DEBF0FBECDBFDF91CF911F910F917E
:1030B000FF90EF900895EEE7F2E086E0DF011D92C9
:1030C0008A95E9F710927C0210927B0210927D02A1
:1030D0000895EF92FF920F931F93CF93DF938B018D
:1030E000682F11110AC0442329F0E82FF0E0E95EAF
:1030F000FC4F6491762F862F75C0212F30E0E82F8A
:10310000F0E0442321F0E95EFC4FE491F0E046E07A
:10311000049FC0011124CFEFD0E0BE010E945A34B9
:103120004BEA4603C001479F900D1124800F911D6B
:10313000800F911D982F990F890FAE01421B530BE1
:103140004E9FD0014F9FB00D5E9FB00D11249B2F5D
:10315000189FA0011124452F55278E01041B150B24
:103160000E9FA0010F9F500D1E9F500D11247E0138
:10317000E81AF108E29E8001E39E100DF29E100D08
:103180001124212F3327C21BD30BCE9F9001CF9F39
:10319000300DDE9F300D112462307105A9F048F426
:1031A0006115710569F061307105C9F48B2F752FB8
:1031B0000DC06430710581F058F06630710579F406
:1031C0007E2F8B2F932F0DC0832F7B2F9E2F09C017
:1031D0008E2F7B2F952F05C08E2F732F02C07E2F31
:1031E000852F692FDF91CF911F910F91FF90EF9065
:1031F000089541E00E946918089508950E94F91801
:103200000895CF93DF93762FE901682F842F0E94D2
:10321000FE18798368838A83DF91CF910895809126
:10322000C002282F269530E02115310519F4817050
:10323000826005C02532310524F081708864809356
:10324000C002089588E090E00C940D35CF92DF9293
:10325000EF92FF926B017C010E940F19B701A6014A
:1032600088E090E0FF90EF90DF90CF900C942B35AA
:103270006091C0027091C1028091C2029091C3021C
:103280000C942619E0ECF2E083E0808311828FEF4A
:1032900082838383148260817181828193810C9403
:1032A00026198091C00280FF02C08695089580E0B3
:1032B00008959091C402933018F49F5F9093C402D4
:1032C000882351F06091C0027091C1028091C202C6
:1032D0009091C3020C942619089581E00C94591919
:1032E0009091C402992319F091509093C4028823BD
:1032F00051F06091C0027091C1028091C202909120
:10330000C3020C942619089581E00C9470198091E1
:10331000C40208958093C402662351F06091C002F4
:103320007091C1028091C2029091C3020C9426193F
:10333000089560E00C948A198091C10208958091EB
:10334000C20208958091C302089570E00C94DF1FBB
:1033500060912D018091C00280FF0AC080912C01F4
:1033600023E0829FC00111248B539D4F0C94A5191B
:1033700080912E0190912F01891780F7E82FF0E0BE
:103380009F01220F331FE20FF31FEB53FD4F1182FA
:10339000108212828F5FF0CF9091C00290FF16C012
:1033A00090912E0120912F01921770F4E92FF0E0F7
:1033B000DF01AA0FBB1FEA0FFB1FEB53FD4F8183F9
:1033C000608342839F5FF0CF0C94A8190895CF9338
:1033D000DF9300D01F92CDB7DEB79091C00290FF6F
:1033E0000AC09E012F5F3F4F0E9401194B816981E6
:1033F0008A810E94CC190F900F900F90DF91CF918E
:103400000895CF93DF93EC016C8170E080E090E051
:103410000E945B3220E030E04FE753E40E947E31AF
:103420002BED3FE049E450E40E9484330E94F133E5
:103430000E94F8312BE43AE34EE25FE30E9411313F
:1034400020EF3BEF48ED52E40E9484330E942A3281
:10345000462FE0ECF2E0628181810E94E7198C81C5
:103460008F5F8C83DF91CF910895CF93DF93EC0131
:10347000E0ECF2E0438162818C810E94E7198C814B
:103480008F5F8C83DF91CF9108950F931F93CF931C
:10349000DF9300D01F92CDB7DEB78C0180918402FC
:1034A00081110AC09E012F5F3F4F4FEF6FEF0E94C7
:1034B00001198A8180938402F8018481813051F05E
:1034C00028F0823061F4409184020AC08091840225
:1034D00040E007C06091840240E080E003C040E02B
:1034E00080E060E00E94CC19F801848190E00196B0
:1034F00063E070E00E946E3484830F900F900F9011
:10350000DF91CF911F910F910895AF92BF92CF920B
:10351000DF92EF92FF920F931F93CF93DF9300D030
:103520001F92CDB7DEB7182FF62E042FE22E909102
:10353000C00290FF6DC0E92FE695AE2FB0E0A85411
:10354000BE4F8C91809390029E7F923061F49E01D9
:103550002F5F3F4F812F0E9401194B8169818A8122
:103560000E94CC1943C0823019F40091C3023EC0BE
:10357000863019F41091C10239C08930D9F38931EC
:10358000A9F5E9518E2F8170D82EE695F0E0EE5E18
:10359000FC4FA590B490C12CBB2460913001C6169D
:1035A00018F52C2D30E0A29EC001A39E900DB29E76
:1035B000900D112470E00E945A34812FD11002C066
:1035C000860F01C0861B90912E01290F311DA90184
:1035D000440F551F240F351F2B533D4F402F6F2D88
:1035E0000E940119C394D9CF0E94A8191093C10257
:1035F000F092C2020093C302EE2051F06091C0022B
:103600007091C1028091C2029091C3020E9426195A
:103610000F900F900F90DF91CF911F910F91FF901E
:10362000EF90DF90CF90BF90AF900895E0ECF2E084
:103630009181282F4381628188E0890F0C94851A3B
:1036400081E00C94161BE0ECF2E09181282F43817D
:10365000628188EF890F0C94851A81E00C94231BFA
:10366000E0ECF2E0628128E0620F08F46FEF282FAF
:10367000438181810C94851A81E00C94301BE0EC2D
:10368000F2E0628128E0621B08F460E0282F4381A9
:1036900081810C94851A81E00C943F1BE0ECF2E0F0
:1036A000438128E0420F08F44FEF282F6281818187
:1036B0000C94851A81E00C944E1BE0ECF2E04381FF
:1036C00028E0421B08F440E0282F628181810C949D
:1036D000851A81E00C945D1B20E00C94851AFF9202
:1036E0000F931F93CF93DF93EC01F12C0FEF10E0BA
:1036F00060913001F616F0F480912E012F2D30E00C
:10370000280F311DC901880F991F280F391F2B530E
:103710003D4F70E0C8010E946E34962F8C8140911D
:10372000C3026091C202F99E800D11240E9401190A
:10373000F394DECF0E94A8199A818C8190FF02C079
:103740008F5F01C081508C83DF91CF911F910F91CA
:10375000FF900895BF92CF92DF92EF92FF920F9366
:103760001F93CF93DF93FC01828180FF02C00FEF94
:1037700001C001E010E080913001181708F040C04E
:1037800080912E01C12ED12CE601C80FD11DCE0192
:10379000880F991FC80FD91FCB53DD4F198218828C
:1037A0001A8234E0E32EF12CB12C809186028B0D2D
:1037B000813114F08F7005C087FF03C090913001F4
:1037C000890F082E000C990BC816D90691F4809128
:1037D000C3028E9DA0018F9D500D112455954795D4
:1037E000559547959E016091C2028091C1020E9449
:1037F0000119B00EF1E0EF1AF108B9F61F5FBBCF67
:103800000E94A81980918602013031F4811102C012
:1038100080913001815007C090E0019660913001A5
:1038200070E00E946E3480938602DF91CF911F91E9
:103830000F91FF90EF90DF90CF90BF900895CF93BE
:1038400080912E0190912F01891770F4E82FF0E0FC
:103850009F01220F331FE20FF31FEB53FD4F118225
:10386000108212828F5FF0CFC0E060913001C617E6
:10387000C0F5EC2FF0E070E0CF010E946E34209193
:103880002E01820F20918502022E000C330B90E056
:10389000E217F307CCF020912B01022E000C330B22
:1038A0002E173F078CF09C01220F331F820F931FAE
:1038B0009C012B533D4F4091C3026091C202809105
:1038C000C1020E9401190BC0FC01EE0FFF1F8E0FF9
:1038D0009F1FFC01EB53FD4F118210821282CF5FBC
:1038E000C4CF0E94A81920912A0180918502820FDD
:1038F0008093850290912B01920F90932B011916C2
:103900005CF4082E000C990B4091300150E04150BE
:103910005109841795071CF0219520932A01CF9116
:1039200008958F929F92AF92BF92CF92DF92EF92C3
:10393000FF920F931F93CF93DF938C01FC0144817F
:10394000C42FD0E09E01DE010E94B9349B01AC017E
:103950000E94CF346B017C01E0E2F0E0EC1BFD0B38
:10396000A5E5B0E09B01AC010E94CF344B015C01A6
:103970009F01DF010E94B1349B01AC010E94DA3447
:103980009B01AC012C0D3D1D4E1D5F1DC501B401F9
:103990000E948234C22FD22F2A3228F4F3E02F9FC4
:1039A000900111240DC025E530E02C1B3109C9011F
:1039B000880F991F280F391F37FF02C02F5F3F4F15
:1039C00035952795C22FC095F12C85E5E82EED1A87
:1039D00080913001F816C8F4F1FC02C08E2D01C0B0
:1039E0008D2F90912E012F2D30E0290F311DA9012F
:1039F000440F551F240F351F2B533D4F4C2F609103
:103A0000C2020E940119F394E3CF0E94A819F801A1
:103A10008481811102C091E003C0803219F49FEFCC
:103A20009093290190912901890FF8018483DF91F6
:103A3000CF911F910F91FF90EF90DF90CF90BF90AB
:103A4000AF909F908F9008950F931F93CF93DF9324
:103A5000EC0100E010E080913001282F30E00217E7
:103A6000130724F590912E019801290F311DA9010A
:103A7000440F551F240F351F2B533D4F869590E063
:103A80004C81081719071CF4442331F002C041117E
:103A900003C04091C30201C040E06091C202809126
:103AA000C1020E9401190F5F1F4FD5CF0E94A819B4
:103AB0008C8190E00196817099278C83DF91CF9162
:103AC0001F910F910895E0ECF2E080818E7F80835A
:103AD00060817181828193810E94261910929102E6
:103AE0002FEF80E792E0215080409040E1F700C046
:103AF00000000C94A819E0ECF2E080818E7F8083B6
:103B0000109291022FEF80E792E021508040904088
:103B1000E1F700C000000C94A81910929102809166
:103B20008E0281110AC081E080938E028091C002D2
:103B3000817080938D020C947B1D08956091C0026A
:103B4000669570E04BE050E081E391E00E94E23442
:103B5000892B19F481E0809391020E94862890932A
:103B600088028093870208959091C00290FF35C02B
:103B70009170811102C0926006C0853210F0986485
:103B800002C0880F982B9093C002662351F0609179
:103B9000C0027091C1028091C2029091C3020E9442
:103BA00026196091C002669570E04BE050E081E319
:103BB00091E00E94E234892B19F01092910202C028
:103BC0000E949E1D81E080938A024091C302609111
:103BD000C2028091C1020C946C1B0895682F9091D1
:103BE000C002969581E0890F853208F081E00C943F
:103BF000B41D81E00C94EE1D682F9091C002969543
:103C00008FEF890F09F484E20C94B41D81E00C94C9
:103C1000FC1D61E00C94B41DE0ECF2E08081816059
:103C2000808386950C94091E8091C00280FD0C94BF
:103C3000631D0C940C1E60E00C94B41D80918F02E7
:103C400081112EC00E94170E811104C00E94BE0E69
:103C50000E9442190E9422196093C0027093C1020F
:103C60008093C2029093C3026E7F61F40E94421956
:103C70000E9422196093C0027093C1028093C20215
:103C80009093C3020E940F19109291028091C0027A
:103C900080FF03C086950E941B1E81E080938F02E7
:103CA0000895E0ECF2E080818160808386950C9439
:103CB0001B1E10928E0280918D0281110E94511E56
:103CC0000C949E1D0F931F93CF93DF9380919102CD
:103CD000882309F485C080919002E091C002E695A6
:103CE000E81BE0938902823049F4F0E0E25FFC4F88
:103CF000E491CE2FD0E001E01AE149C0863049F4CA
:103D0000F0E0E55FFC4FE491CE2FD0E005E31AE14F
:103D10003EC0893051F4E695F0E0E85FFC4FE49155
:103D2000CE2FD0E00FE61BE132C08F3051F4E69584
:103D3000F0E0EB5FFC4FE491CE2FD0E00AEA1BE10C
:103D400026C0853149F4F0E0EE5FFC4FE491CE2FC0
:103D5000D0E00FE11CE11BC0883181F0833239F4DF
:103D6000E0E0F3E0C591D49105E41AE110C084329B
:103D700051F4C4EFD1E004E21DE109C0C8E2D0E093
:103D800001E91CE104C0C0EDD7E00DEF18E180911E
:103D90008A02882361F010928A020E9486289093FA
:103DA00088028093870210928C0210928B020E94EC
:103DB0008628E0918702F09188028E1B9F0B8F3F2F
:103DC0009F4770F4EC0FFD1FF0938802E093870289
:103DD00087E892E0F801DF91CF911F910F9109944C
:103DE000DF91CF911F910F910895882311F0FA016F
:103DF00001C0FB010994CF93DF93C82FD62F0E94F7
:103E000051198C1740F00E9451198D1720F4DF9141
:103E1000CF910C94F91D8C2FDF91CF910C94091E3A
:103E20001F93CF93DF93FB0112811111C3C0EC01EB
:103E30000E945F0D8272CC3CFCE5DF0709F49AC05A
:103E4000A8F5C63CECE5DE0709F476C0A8F4C33C4F
:103E50009CE5D90709F45FC028F4C23CDC4509F4AD
:103E600057C054C0C43C9CE5D90709F459C0C53CAF
:103E7000DC4509F45CC04AC0C93CFCE5DF0709F435
:103E80006AC050F4C73CECE5DE0709F45AC0C83CF0
:103E9000DC4509F45BC03AC0CA3C9CE5D90709F48B
:103EA0005FC0CB3CDC4509F460C030C0C13DFCE5DF
:103EB000DF0709F46FC088F4CE3C9CE5D90709F40C
:103EC00060C008F45CC0CF3CFCE5DF0709F45CC0CF
:103ED000C03DDC4509F45BC019C0C43D9CE5D90771
:103EE00009F460C050F4C23DFCE5DF0709F455C099
:103EF000C33DDC4509F454C009C0C53D9CE5D90764
:103F000009F455C0CD35DD4509F454C011E052C067
:103F10000E94141E4FC046E05EE169EF7DE104C0DF
:103F200049EF5DE166E07EE10E94F51E43C04DE28F
:103F30005BE160E27BE1F8CF40E25BE16DE27BE1D7
:103F4000F3CF4BE45BE16CE37BE1EECF4CE35BE171
:103F50006BE47BE1E9CF49E65BE16AE57BE1E4CF35
:103F60004AE55BE169E67BE1DFCF44E859E16DE6D4
:103F700079E1DACF4DE659E164E879E1D5CF81E026
:103F800017C065E082E010C068E086E00DC06EE01A
:103F900089E00AC064E18FE007C067E185E104C001
:103FA00088E106C062E289E10E94FB1E03C083E251
:103FB0000E94091E812FDF91CF911F910895539A7E
:103FC0002BB1277F3BB138604FB7F894FC01CB0190
:103FD000880F991F680F791F6E0F7F1FE617F7076D
:103FE00089F0819198E03BB9000000C087FF2BB9B0
:103FF000880F000000C000C000C02BB900C09A9517
:1040000091F7ECCF4FBF8FE594E00197F1F700C037
:104010000000089583E290E00E940535823281F429
:1040200084E290E00E940535833051F485E290E00F
:104030000E94053591E0803109F090E0892F01C0A0
:1040400080E081700895CF93C82F811102C06FEF77
:1040500001C062E283E290E00E941935C11102C002
:104060006FEF01C063E084E290E00E941935C11156
:1040700002C06FEF01C060E185E290E0CF910C9447
:104080001935089586E290E00E940535682F70E0AA
:1040900080E090E0089586E290E00C94193580E08D
:1040A0000E94232060E070E0CB010E944B200E9420
:1040B000F2210E94D12281E00C9423200E94412011
:1040C0000E940A20811102C00C944F200895CF93C2
:1040D000FB01C281CC23E9F09C0122513F452031F4
:1040E000310520F482510E94E1220CC08031FFE5AD
:1040F0009F0751F481E00E94380943E062E081E0CB
:104100000E948003C0E018C081319F45A9F482E07D
:10411000F2CF8031EFE59E0711F481E004C08131D8
:104120009F4549F482E00E94430943E062E081E058
:104130000E94800301C0C1E08C2FCF9108952FEF22
:10414000FC0120830895CF93DF93EC0188818138AF
:1041500089F028F48038A1F40E94A21910C0823896
:1041600061F0833869F40E949C1989830E949F1929
:104170008A8306C00E94511902C00E948719898350
:10418000DF91CF910895CF93DF93EC01888181383F
:10419000B1F058F4803851F5D9810E949F19C82F89
:1041A0000E949C194D2F6C2F1DC08238B1F08338AE
:1041B000E9F40E94A219482F6A81898113C089817C
:1041C0000E941B1E8981811104C0DF91CF910C9444
:1041D0007B1DDF91CF910C94511E8981DF91CF918E
:1041E0000C949919DF91CF910C946C1BDF91CF91B6
:1041F0000895EF92FF920F931F93CF93DF93EC01FB
:10420000062F0196E8814E2F50E0FA013197E331F5
:10421000F10508F09AC0E059FF4F0C94A4341982BC
:1042200089E056C08981823039F0833061F0813075
:1042300029F50E94272902C00E9442209A838B837D
:104240007C836D8384C07E0182E0E80EF11C10E067
:10425000812F0E94CC11F70181937F011F5F1830DD
:10426000B9F775C08981823049F46A817B818C817C
:104270009D810E94AA340E944B2069C0602FCE010C
:104280000E949F2064C04B816A8189810E94C42161
:104290009C838D835CC02C813D813227232732276C
:1042A0004B816A8189810E94DD2151C00E94F221E7
:1042B0004EC00E94C3204BC00E94A32048C00E9451
:1042C000381945C00E94842224C00E948622998306
:1042D0008A833DC06B8170E089819A81AE014C5F19
:1042E0005F4F9827892798270E94892230C06B81C9
:1042F00070E089819A81AE014C5F5F4F98278927D2
:1043000098270E94AE2223C00E94D12220C00E9482
:10431000B12189831CC06B8170E089819A81AE01D3
:104320004C5F5F4F9827892798270E9431220FC042
:104330006B8170E089819A81AE014C5F5F4F982755
:10434000892798270E94552202C08FEF8883602F0B
:10435000CE01DF91CF911F910F91FF90EF900C94C0
:104360001A2A84E0089550E0440F551F2AE0629F06
:10437000400D511D11249A0160E5869F200D311DCD
:104380001124C901879608950F931F93CF93DF934C
:104390000E94B3218C010E940535C82FD0E0DC2F8C
:1043A000CC27C80101960E9405359E01282BC90122
:1043B000DF91CF911F910F9108950F931F93CF938A
:1043C000DF93122F032F0E94B321EC01602F0E9474
:1043D0001935612FCE010196DF91CF911F910F9179
:1043E0000C941935AF92BF92CF92DF92EF92FF9269
:1043F0000F931F93CF93DF93A12CE12CF12CB12CC1
:1044000000E010E0C0E0D0E06701C00ED11EFE0168
:10441000EE0FFF1FEC0DFD1DE05AFE4F259134916C
:104420004C2F6B2D8A2D0E94DD212196C530D105A0
:1044300071F7065F1F4FB39488E0B812E3CF80E5B1
:10444000E80EF11CA39484E0A812D9CFDF91CF919C
:104450001F910F91FF90EF90DF90CF90BF90AF90A2
:104460000895EF92FF920F931F93CF93DF93EA018A
:104470007A01E60EF71E8C01C8018796CE15DF057E
:1044800069F0003421E0120720F40E94053588838A
:1044900001C0188221960F5F1F4FEECFDF91CF91A1
:1044A0001F910F91FF90EF900895EF92FF920F935D
:1044B0001F93CF93DF93EA017A01E60EF71E8C017A
:1044C000C8018796CE15DF0559F0003421E01207A8
:1044D00018F468810E94193521960F5F1F4FF0CFA5
:1044E000DF91CF911F910F91FF90EF900895462F8C
:1044F000843038F4783028F4653018F4672F0C9441
:10450000C42180E090E0089580E1089589E992E077
:104510000895EF92FF920F931F93CF93DF93EA01D9
:104520007A01E60EF71E8C01C80189599E4FCE15FF
:10453000DF0569F0093922E0120720F40E940535F1
:10454000888301C0188221960F5F1F4FEDCFDF9146
:10455000CF911F910F91FF90EF900895EF92FF92EE
:104560000F931F93CF93DF93EA017A01E60EF71EB4
:104570008C01C80189599E4FCE15DF0559F00939C4
:1045800022E0120718F468810E94193521960F5F06
:104590001F4FEFCFDF91CF911F910F91FF90EF90C1
:1045A0000895CF93DF93C7E6D1E060E0CE010E948B
:1045B00019352196C11584E0D807B9F7DF91CF915D
:1045C0000895DF92EF92FF920F931F93CF93DF93A3
:1045D00000D000D0CDB7DEB7F82E8FE08F15E8F110
:1045E0008FEF93E00E940535811137C007E611E097
:1045F000FF2069F0011584E0180779F1C8010E94D5
:104600000535811101C0FA940F5F1F4FF1CF198258
:104610001A821B821C82DD24D39478018FEFE81A62
:10462000F80AC8010E94053589831A828823A9F0F7
:104630009FEF980F933058F48A83D9820E5F1F4FF3
:10464000C7010E9405358B83882339F07801CE019C
:1046500001960E94D0048701E0CF0F900F900F9039
:104660000F90DF91CF911F910F91FF90EF90DF900E
:1046700008950895FC01680F791F8FEF91E3E61705
:10468000F70771F02191822728E030E087FF03C00F
:10469000880F892701C0880F21503109B9F7EFCF62
:1046A00008950F931F93CF93DF93C42FD22FFC0154
:1046B00082818823C9F0409394020E941B29909321
:1046C00093028093920280E28C0F883008F057C0EA
:1046D000C77081E001C0880FCA95EAF7DF91CF91DA
:1046E0001F910F910C94660680919402481330C07C
:1046F00080919202909193020E943329883C910507
:1047000038F510E21D0FCD17B9F080E28C0F88301C
:1047100040F4C77081E001C0880FCA95EAF70E9493
:104720006D06183028F581E09D2F977001C0880F25
:104730009A95EAF70E946606802F0E945D0618305F
:10474000F0F4D77081E001C0880FDA95EAF70AC06B
:1047500080E28C0F883098F4C77081E001C0880F28
:10476000CA95EAF7DF91CF911F910F910C946D06D6
:10477000802FDF91CF911F910F910C945D06DF91F7
:10478000CF911F910F9108950F939C01CB01233F6F
:104790004CE5340731F188F4283DFCE53F07D9F0BA
:1047A000293D4CE5340779F1273D3C45A9F506E262
:1047B00021EE41EE67ED7CE52BC0253FFCE53F0790
:1047C000E1F0A8F0263F3C4539F507E225EE46EE3C
:1047D00066EF7CE51DC007E225EE45EE68ED7CE561
:1047E00017C006E221EE40EE63EF7CE511C007E260
:1047F00025EE44EE64EF7CE50BC006E221EE42EECE
:1048000065EF7CE505C008E221E045EE69ED7CE559
:104810000E94512380E008C0FC018281882319F0A6
:104820001092940201C081E00F910895CF93DF931D
:10483000EC01FB018281882309F426C1C330FDE528
:10484000DF0760F4CA3F9CE5D90768F49E01225057
:104850003C452431310508F018C105C0C136EDE5ED
:10486000DE0709F012C10E942A0E9093AC028093D9
:10487000AB02C031FCE5DF0709F4CAC008F041C053
:10488000C8309CE5D90709F4A4C0F0F4C430FCE5B5
:10489000DF0709F48CC068F4C2309CE5D90709F43D
:1048A00082C0C330DC4509F0E5C08091AB02826074
:1048B000DFC0C630FCE5DF0709F483C008F085C01F
:1048C0008091AB028860D4C0CC309CE5D90709F454
:1048D00090C068F4CA30FCE5DF0709F47EC008F038
:1048E00084C00E94B9088091AB028068C1C0CE30FC
:1048F0009CE5D90709F481C008F086C08091AB021D
:1049000094C0CC3FFCE5DF0709F47BC038F5C43127
:104910009CE5D90709F49AC058F4C231FCE5DF07D9
:1049200009F47AC008F07EC08091AB028F7BA0C0F2
:10493000CA3F9CE5D907F1F108F03FC0C531DC451D
:1049400009F098C08091AB0282FB222720F991E008
:10495000922790FB82F990FB83F98AC0C1158DE5FF
:10496000D80709F467C050F48091AC02CE3FECE563
:10497000DE07C1F108F05BC08D7F65C0C2308DE5F8
:10498000D80709F471C008F46DC0C136DD4509F0DF
:1049900071C08091AB0284FB222720F991E092271D
:1049A00090FB84F965C08091AB02816061C0809109
:1049B000AB0216C08091AC0216C08091AC0282603E
:1049C00042C08091AB02806153C08091AB02806293
:1049D0004FC08091AB0280644BC08091AB02886075
:1049E000846046C0826081602EC08091AB028E7F61
:1049F0003FC08091AB028D7F3BC08091AB02877F2F
:104A000037C08091AC0214C08091AB028F7E30C061
:104A10008091AB028F7D2CC00E94B9088091AB02BF
:104A20008F7726C08091AB02877F8B7F21C08D7FDF
:104A30008E7F09C08091AC02982F909591708E7FE7
:104A4000892B90FB81F98093AC0214C00E94B908B5
:104A50008091AB0287FB222720F991E0922790FBFF
:104A600087F906C081E001C080E00E94C00E02C04C
:104A70008093AB028091AB029091AC020E943B0EFE
:104A80000E94B90880E001C081E0DF91CF910895D4
:104A9000CF93DF9386319C4541F5EB010E945F0D7A
:104AA000982F8A812091000130910101882379F0AB
:104AB0009A7A81E009F480E080939502911102C016
:104AC00069E201C065E3C9010E943A280AC08091E9
:104AD0009502811102C069E201C065E3C9010E942B
:104AE0003C280E94A40D80E001C081E0DF91CF91BD
:104AF00008958EE14A9B02C08150E1F74A9BFECFA8
:104B000008955A9880E28A95F1F75A9A0895FC011F
:104B10002AE02A95F1F728E090E080E031E040E1DA
:104B20004A95F1F7880F4A9B02C08160932700C025
:104B3000000040E14A95F1F7215089F720E12A95DC
:104B4000F1F729B100C0000030E13A95F1F722FBFE
:104B5000222720F992272081920F90830895EF92C7
:104B6000FF920F931F93CF93DF931F92CDB7DEB7C2
:104B700019828C017C01E60EF11C0E151F0551F007
:104B80000E947925CE0101960E948725F801819324
:104B90008F01F3CF81E09981911180E00F90DF9137
:104BA000CF911F910F91FF90EF900895529A5A9ACA
:104BB000089552985A9AEA9AE9E6F0E080818F7C4B
:104BC00080830895615091E001C0990F6A95EAF7DA
:104BD00020E031E0992361F0492F482319F05A9AD7
:104BE000232701C05A9840E24A95F1F79695F2CFF3
:104BF000222311F05A9A01C05A9880E28A95F1F75F
:104C00005A980895FF920F931F93CF93DF93EC016F
:104C10008C01060F111DC017D10741F0F9900E94B9
:104C2000812568E08F2D0E94E225F5CFDF91CF919D
:104C30001F910F91FF9008951F920F920FB60F9240
:104C40001124EF92FF920F931F932F933F934F9353
:104C50005F936F937F938F939F93AF93BF93EF93E4
:104C6000FF93CF93DF931F92CDB7DEB719820E94D7
:104C70007925CE0101960E948725A82FA695A69595
:104C8000A6959A2F969595702A2F2570920F292F09
:104C9000237096959695920F877089137CC08981B1
:104CA000811179C0A43008F076C080E18A95F1F7CF
:104CB0005A9A529AB2E0BA95F1F700C05A98EA2E81
:104CC000F12CEAE0AE9FD0011124AD5FBE4F1896E3
:104CD000ED91FC9119973097B1F06091B601709108
:104CE000B70116962D913C911797260F371F1396F3
:104CF0008D919C911497680F791F15964C9115977B
:104D000012968C9109958AE08E9DF0018F9DF00D91
:104D10001124ED5FFE4F6581662351F08091B6014D
:104D20009091B70126813781820F931F0E9402263E
:104D30000E948125F0E1FA95F1F75A9852985A9A13
:104D400080E18A95F1F78AE08E9D80018F9D100D9C
:104D500011240D5F1E4FD80112966C911297662395
:104D600099F08091B6019091B70113962D913C91E5
:104D70001497820F931F0E94AF25D801ED91FC91EB
:104D8000811105C082E004C0D801ED91FC9188E05A
:104D900080830E9479250F90DF91CF91FF91EF9151
:104DA000BF91AF919F918F917F916F915F914F9143
:104DB0003F912F911F910F91FF90EF900F900FBE99
:104DC0000F901F9018950F931F93CF93DF9384300C
:104DD00091050CF0A9C02AE0289FF001299FF00D51
:104DE0001124ED5FFE4F20813181232B09F49CC0FB
:104DF000EC01F894529A5A9885E08A95F1F70000F0
:104E00008C2F869585709C2F9570890F982F9370A5
:104E1000869586958E0123E0000F111F2A95E1F7F4
:104E2000890F082B0E948125A4E0AA95F1F700C004
:104E300068E0802F0E94E225B0E1BA95F1F7529820
:104E40005A9A4A9902C000C0FCCF87E090E04A9B82
:104E500017C0019799F4529A5A9A8AE08C9FF001F0
:104E60008D9FF00D1124ED5FFE4F0190F081E02D3C
:104E700081E08083789481E090E058C000C0E7CF63
:104E80008AE08C9F80018D9F100D11240D5F1E4FB5
:104E9000F80165816623B9F08091B6019091B70160
:104EA00026813781820F931F0E94AF2581110BC08D
:104EB000529A5A9AD801ED91FC9182E080837894BD
:104EC00082E090E033C00E947925B0E2BA95F1F714
:104ED0005A98529AE0E1EA95F1F78AE08C9FF00146
:104EE0008D9FF00D1124ED5FFE4F6281662351F01E
:104EF0008091B6019091B70123813481820F931F75
:104F00000E9402260E9481258AE08C9FF0018D9FDD
:104F1000F00D1124ED5FFE4F0190F081E02D108225
:104F2000789480E090E002C084E090E0DF91CF913F
:104F30001F910F91089590939C0280939B02089576
:104F40000E949213811103C0809196020895E0910E
:104F50009B02F0919C02309721F00190F081E02DAE
:104F6000099480E00895E0919B02F0919C023097B3
:104F700021F00280F381E02D09940895E0919B02D5
:104F8000F0919C02309739F022E0DC012C930480F0
:104F9000F581E02D099408952091990230919A02AB
:104FA0002817390771F090939A0280939902E09143
:104FB0009B02F0919C02309721F00680F781E02D52
:104FC0000994089520919702309198022817390783
:104FD00071F09093980280939702E0919B02F09178
:104FE0009C02309721F00084F185E02D099408950A
:104FF000FC01329697E080E0915029F02191222324
:10500000D9F38F5FF9CF0895662349F0FC013296FA
:1050100008962191621729F0E817F907D1F780E087
:10502000089581E008959C01FC0132969FEF80E095
:105030004191461789F09F3F19F4411101C0982F03
:105040008F5F8630A9F79F3F39F0F901E90FF11D15
:1050500097FDFA956283089508959C012A5F3F4F5A
:10506000FC014281461301C0128201968217930708
:10507000B9F708950C9413280C942D28029626E075
:10508000FC0111922A95E9F708951092F502109209
:10509000F6021092F7021092F8020895CF92DF9272
:1050A000EF92FF926B017C010E94921381110EC05E
:1050B0000E942729C61AD70AE80AF90AC092F502FF
:1050C000D092F602E092F702F092F802FF90EF9091
:1050D000DF90CF9008950F931F930E94921388231F
:1050E00021F01F910F910C9427290E9427290091EC
:1050F000F5021091F6022091F7023091F802600F4C
:10510000711F821F931F1F910F9108950E94921388
:1051100081110C941B290E946B28CB0108950895DE
:1051200008950C9490280C949028CF930E94932873
:105130000E9407130E949128C0E08C2F0E94CC117E
:10514000811104C0CF5FC830C1F701C081E0CF91A9
:1051500008950C9490280C94A92880910103843020
:1051600059F10E94AB2880E00E94DB040E948D1D53
:1051700010929D0220E488E190E00FB6F894A89583
:10518000809360000FBE2093600083B7817F8460AE
:1051900083BF83B7816083BF7894889583B78E7F00
:1051A00083BF0FB6F894A8958091600088618093C2
:1051B0006000109260000FBE08950C9490280E9429
:1051C000B9080E94A0270E94DB040E94591E0C947B
:1051D000DD281F920F920FB60F9211248F939F9389
:1051E000AF93BF9380919D02811113C08091F9020A
:1051F0009091FA02A091FB02B091FC024196A11D90
:10520000B11D8093F9029093FA02A093FB02B09330
:10521000FC02BF91AF919F918F910F900FBE0F90A5
:105220001F90189582E084BD93E095BD9AEF97BDDD
:1052300080936E0008952FB7F8948091F9029091B1
:10524000FA02A091FB02B091FC022FBF08952FB784
:10525000F8946091F9027091FA028091FB029091AA
:10526000FC022FBF08959C014FB7F8948091F9027A
:105270009091FA02A091FB02B091FC024FBF821BF9
:10528000930B0895CF92DF92EF92FF922FB7F8948D
:10529000C090F902D090FA02E090FB02F090FC027C
:1052A0002FBFA7019601261B370B480B590BCA01CC
:1052B000B901FF90EF90DF90CF90089578941F92FE
:1052C0000F920FB60F9211248F939F93AF93BF93BA
:1052D0008091F9029091FA02A091FB02B091FC0238
:1052E0000196A11DB11D8093F9029093FA02A0933B
:1052F000FB02B093FC02BF91AF919F918F910F90F1
:105300000FBE0F901F90189587E797E790930108BD
:10531000809300089AE088E10FB6F894A8958093EE
:1053200060000FBE90936000FFCF9093ED018093DB
:10533000EC0108958091A9020895909101039430A1
:1053400029F580939E027093A00260939F02909330
:10535000E9008FEF9091E800815095FD06C095ED32
:105360009A95F1F700008111F5CF8091E80085FF53
:105370000DC040E050E063E070E08EE992E00E94F2
:10538000162C8091E8008E778093E8000895BC0188
:1053900084E00C949D29BC0183E00C949D2924E0B9
:1053A0002093E9002FEF3091E800215035FD06C031
:1053B00035ED3A95F1F700002111F5CF2091E80085
:1053C00025FF0BC040E050E066E070E00E94162C24
:1053D0008091E8008E778093E8000895CF93DF9363
:1053E00021E02093E9002FEF3091E800215035FDB6
:1053F00006C035ED3A95F1F700002111F5CF209167
:10540000E80025FF14C0EC0140E050E068E070E0E7
:105410000E94162C8091E8008E778093E80088E047
:10542000FE01A1EAB2E001900D928A95E1F7DF91C9
:10543000CF910895CF93603219F520910103243064
:10544000F9F4C091E900CF703091EC00232F217066
:1054500030FD20E8C22B22E02093E9002091E800F3
:1054600020FF0BC040E050E060E270E00E94162C8C
:105470008091E8008E778093E800CF70C093E900B8
:10548000CF91089580910003811109C00E94F22DEF
:105490000E944F2E8091E20084608093E200089584
:1054A00010920003089508950895089542E061EC74
:1054B00081E00E946B2D42E261EC84E00E946B2D42
:1054C00042E261EC82E00E946B2D42E260EC83E0FC
:1054D0000C946B2D80910303833009F462C030F487
:1054E000813071F0823009F49BC008958A3009F44C
:1054F00087C08B3009F46DC0893009F0A9C020C085
:1055000080910203813A09F0A3C08091E800877F6F
:105510008093E8008091060390910703892B21F482
:1055200068E081EA92E003C060E080E090E070E033
:105530000E94AC2C8091E8008B778093E80008955E
:1055400080910203813209F083C08091060390911B
:105550000703009719F0029709F07AC08091E800DC
:10556000877F8093E8008091E80082FD05C08091EC
:1055700001038111F8CF6CC02091F3008091F200FB
:1055800090E0922B029729F48091F1008B7F81307B
:1055900021F48091F1008093A9028091E8008B773B
:1055A00053C080910203813A09F052C080910603F2
:1055B00090910703892B09F04BC08091E800877F09
:1055C0008093E8008091E80080FFFCCF8091460145
:1055D00036C0809102038132D9F580910603909103
:1055E0000703892BA9F58091E800877F8093E80065
:1055F0000E94A02D80910403809346010C94B90869
:1056000080910203813221F58091E800877F8093A9
:10561000E8000E94A02D809105038093AA020895BE
:1056200080910203813AA1F48091E800877F809302
:10563000E8008091E80080FFFCCF8091AA0280936F
:10564000F1008091E8008E778093E8000C94A02D03
:10565000089584B7877F84BF0FB6F894A89580918A
:105660006000886180936000109260000FBE90E03F
:1056700080E80FB6F89480936100909361000FBEAC
:105680000C94EE0E0E94F22D0E944F2EE2EEF0E0FE
:1056900080818460808378940E94E4300E94FC0EB4
:1056A0008CE391E00C949B27CF93DF93CDB7DEB7CB
:1056B000A0970FB6F894DEBF0FBECDBF8091010357
:1056C0008530A9F480910103853079F40E94AD28DA
:1056D0008091FF028823B1F30E949528882391F3DB
:1056E0000E94002C0E94B908EDCF0E94DF280E9482
:1056F0000A0F80910103843011F583E08093E90063
:105700008091E80082FF1BC08091E80085FF0AC0FD
:1057100040E050E060E270E0CE0101960E94612C12
:1057200091E001C090E08091E8008B778093E800E1
:10573000992329F060E2CE0101960E94F920A096FB
:105740000FB6F894DEBF0FBECDBFDF91CF910895A5
:105750000C94AA2B292F332723303105C9F060F48C
:105760002130310581F02230310509F041C08BE54F
:1057700090E023E434E040C021323105E1F02232F0
:10578000310531F135C082E190E02EE934E034C0DA
:1057900099278130910549F028F0029749F5E7E112
:1057A000F4E005C0EFE3F4E002C0E9E2F4E0849144
:1057B00090E09F0121C063307105D0F4660F771F20
:1057C000FB01EA51FE4F2081318189E090E014C055
:1057D0006330710568F4FB01EE0FFF1FE052FE4FCE
:1057E00020813181FB01E352FE4F808190E004C0B3
:1057F00080E090E020E030E0FA01318320830895DA
:1058000080E189BD82E189BD09B400FEFDCF8091B0
:10581000D8008F7D8093D8008091E00082608093D3
:10582000E0008091E00081FDFCCF0895CF92DF92EF
:10583000EF92FF920F931F93CF93DF93EC018B01B5
:105840007A010E94BF2D811133C0E114F10439F0B7
:10585000F70180819181081B190BC80FD91FC12C3A
:10586000D12C0115110519F18091E80085FD16C0B4
:105870008091E8008E778093E800E114F10449F00C
:10588000F70180819181C80ED91ED182C08285E046
:105890000FC00E94BF2D882321F30AC089918093F5
:1058A000F10001501109FFEFCF1ADF0ADACF80E0D3
:1058B000DF91CF911F910F91FF90EF90DF90CF90EC
:1058C0000895CF92DF92EF92FF920F931F93CF93A1
:1058D000DF93EC018B017A010E94BF2D811133C04F
:1058E000E114F10439F0F70180819181081B190B53
:1058F000C80FD91FC12CD12C0115110519F18091A8
:10590000E80085FD16C08091E8008B778093E80061
:10591000E114F10449F0F70180819181C80ED91E8C
:10592000D182C08285E00FC00E94BF2D882321F361
:105930000AC08091F100899301501109FFEFCF1A3D
:10594000DF0ADACF80E0DF91CF911F910F91FF90B6
:10595000EF90DF90CF9008952091080330910903D4
:105960002617370748F06115710539F42091E800D2
:105970002E772093E80001C0B901FC0120E06115F9
:10598000710579F1809101038823F1F18530F1F1FE
:105990008091E80083FD3CC08091E80082FD2EC02C
:1059A0008091E80080FFEBCF2091F3008091F2001E
:1059B00090E0922B6115710551F08830910538F413
:1059C00021912093F100615071090196F3CF21E0FC
:1059D000089709F020E08091E8008E778093E80036
:1059E000CECF2111CFCF0AC080910103882361F06F
:1059F000853061F08091E80083FD0AC08091E80065
:105A000082FFF2CF80E0089582E0089583E0089558
:105A100081E0089520910803309109032617370784
:105A200048F06115710539F42091E8002E77209334
:105A3000E80001C0B901FC0120E06115710591F198
:105A400080910103882309F440C0853009F43FC0E8
:105A50008091E80083FD3DC08091E80082FD2FC069
:105A60008091E80080FFE9CF2091F3008091F2005F
:105A700090E0922B6115710559F08830910540F442
:105A800024912093F1003196615071090196F2CF73
:105A900021E0089709F020E08091E8008E7780935C
:105AA000E800CBCF2111CCCF0AC08091010388231D
:105AB00061F0853061F08091E80083FD0AC080913B
:105AC000E80082FFF2CF80E0089582E0089583E04D
:105AD000089581E00895982F973068F59093E90034
