:100000000C94AC010C94C9010C94C9010C94911F7F
:100010000C94C9010C94C9010C94C9010C94C90138
:100020000C94C9010C94C9010C944E250C94222601
:100030000C940E1E0C94C9010C94C9010C94C901B6
:100040000C94C9010C94C9010C94C9010C94C90108
:100050000C94C9010C94B11E0C94C9010C94C901F3
:100060000C94C9010C94C9010C94C9010C94C901E8
:100070000C94C9010C94C9010C94C9010C94C901D8
:100080000C94C9010C94C9010C94C9010C94C901C8
:100090000C94C9010C94C9010C94C9010C94C901B8
:1000A0000C94C9010C94C9010C94C9010400050009
:1000B000060007000800040005000600070008000D
:1000C0000400050006000700080004000500060003
:1000D0000700080009000A000B000C000D000900D1
:1000E0000A000B000C000D0009000A000B000C00B8
:1000F0000D0009000A000B000C000D0000000000BC
:10010000000000002A2B2800000000000000000072
:100110000000000000000029000000002C1E342018
:10012000212224342627252E362D3738271E1F203E
:100130002122232425263333362E37381F04050683
:100140000708090A0B0C0D0E0F10111213141516C7
:100150001718191A1B1C1D2F3130232D35040506C5
:100160000708090A0B0C0D0E0F10111213141516A7
:100170001718191A1B1C1D2F3130354C00000000B8
:10018000000000000000000000000000000000006F
:10019000000000000000000000000000000000005F
:1001A0007E0F00D4FFFFFFC700000078100363003C
:1001B0006F006F006C0036003400300000000A034E
:1001C0006D002E006B0069000000040309040902A1
:1001D0005B00030100A0FA09040000010301010013
:1001E00009211101000122440007058103080001D3
:1001F000090401000203000000092111010001228D
:1002000022000705820320000107050303200001E7
:10021000090402000103000000092111010001226C
:10022000B60007058403200001120100020000004F
:1002300008434D40060001010200010660FF09610C
:10024000A1010962150026FF0095207508810209A9
:1002500063150026FF00952075089102C00501096D
:1002600002A10185020901A100050919012908154A
:100270000025019508750181020501093009311534
:1002800081257F95027508810609381581257F959E
:100290000175088106050C0A38021581257F950134
:1002A00075088106C0C005010980A10185031901F7
:1002B0002AB700150126B700950175108100C00509
:1002C0000C0901A101850419012AA002150126A02B
:1002D00002950175108100C005010906A10185067E
:1002E000050719E029E71500250195087501810228
:1002F0000507190029EF1500250195F07501810208
:1003000005081901290595057501910295017503E7
:100310009101C005010906A101050719E029E715AA
:100320000025019508750181029501750881010577
:1003300007190029FF150026FF00950675088100A2
:10034000050819012905150025019505750191027A
:10035000950175039101C00011241FBECFEFDAE0B3
:10036000DEBFCDBF11E0A0E0B1E0E6E0F2E502C003
:1003700005900D92A03CB107D9F722E0A0ECB1E0C6
:1003800001C01D92A13FB207E1F70E94B8130C947F
:10039000AF280C940000811112C0683080F4453001
:1003A00070F4E42FF0E085E0689FE00DF11D11246A
:1003B000EE0FFF1FE455FF4F85919491089581E062
:1003C00090E0089581E008950E94E201089581E09F
:1003D00008950E94E20108950E94E9010895089598
:1003E0000E94EF010895A6E0B0E0E9EFF1E00C947F
:1003F0000B2849835A839E833091C70189819A8152
:1004000031111AC03E81332399F0222389F00E94D2
:100410006607182F682F89819A810E944207698197
:100420007A81812F0E94810E2696E3E00C94272882
:100430000E945407182FF3CF0E94660769817A81C2
:10044000F1CFFC01262F408151816281738184812B
:1004500095810E94F3010895CF93DF93EC0161E051
:100460000E942102BE010E94E401DF91CF91089514
:10047000CF93DF93EC0160E00E942102BE010E9455
:10048000F001DF91CF91089581E008950E94440228
:100490000895CF93C82F0E943E068C2F0E944602DB
:1004A0002FEF84E39CE0215080409040E1F700C0B2
:1004B0000000CF91089581E00E9449020E94D51E5C
:1004C000089580E00E9449020E94E61E08950F935D
:1004D0001F93CF93DF938C0161E00E942102EC0116
:1004E000B8010E94381B811106C080E0DF91CF91D6
:1004F0001F910F910895B801CE010E94EC0188234D
:10050000A1F3B801CE010E94451A882371F3B80106
:10051000CE010E94AC15882341F3B801CE010E94A0
:100520008215882311F3B801CE010E94891A88230D
:10053000E1F2F8018581882361F0C330FCE7DF0731
:10054000E9F058F4C115ECE7DE07A9F0C130DC474B
:10055000B9F0C8010E94E701C9CFCB358CE7D807B5
:10056000A9F0CC35ECE7DE0771F0CA35DC4789F736
:100570000E94CF0BEECF0E945B02B7CF0E94D70B39
:100580000E946102B2CF0E94C50BE3CF0E94D30B41
:10059000E0CF0E94EB1D0E94F00208950E94F40239
:1005A0000E94F01D0895089581E008950895CF9365
:1005B000DF93D82F0E94D402C82F882319F08D2FE3
:1005C0000E94D6028C2FDF91CF9108950895CF938A
:1005D000C82F0E94D3028C2F0E94D702CF9108957A
:1005E00080E00E94E70208950E94241C0E94E70216
:1005F0000895CF930E94241CC82F8091C2018C17AC
:1006000079F0C093C2010E947A1E6093C301709377
:10061000C4018093C5019093C6018C2F0E94E7020C
:10062000CF910895ADE0B0E0E8E1F3E00C940C2840
:10063000488759876A877B878C879D8791110E949D
:10064000D50A1F8286E0FE013896DE0111960190E0
:100650000D928A95E1F78D8181110DC029813A8132
:100660004B815C816D817E818F810E941F0A2D9656
:10067000E2E00C942828CE0101960E942C02811100
:10068000EDCFF5CFFC012481213021F480819181CF
:100690000E9493070895662329F00E940D170E9477
:1006A000F21708950E947917FACFCF93C82F8823A5
:1006B00099F08CEF8C0F813A88F48C2F0E94CB1C20
:1006C000882329F08C2F0E946B1D0E94690B8C2FB0
:1006D0000E94541D0E94690BCF91089580E28C0FF7
:1006E000883048F4C77081E001C0880FCA95EAF7E6
:1006F0000E94B80AEFCFEBE5EC0FE33040F4F0E0F6
:10070000E759FE4F808190E00E945F1CE5CFE8E54D
:10071000EC0FEB3150F4F0E0EE0FFF1FED5CFE4FFD
:10072000808191810E94841CD7CF83E38C0F833119
:1007300098F661E08C2F0E944B03CECF882381F185
:100740009CEF980F913A28F40E946B1D0E94690B50
:10075000089590E2980F983050F4877091E001C0AE
:10076000990F8A95EAF7892F0E94BE0AEFCF9BE581
:10077000980F933028F490E080E00E945F1C089569
:1007800098E5980F9B3128F490E080E00E94841C4B
:10079000089593E3980F933118F460E00E944B039F
:1007A00008951F93CF93DF93182FEB010E945503F9
:1007B000209739F4812F0E949E03DF91CF911F91E2
:1007C00008958FE99FE00197F1F700C0000021979D
:1007D000EFCF70E060E0893311F460E570E00E94D3
:1007E000D1030895882321F00E94B80A0E94690B62
:1007F0000895882321F00E94BE0A0E94690B089583
:10080000B0E0A0E0E6E0F4E00C9405286C01D62FFF
:10081000C72FFC011581068102950F700E94AE0A58
:10082000E82E8823F9F0E12E1123E1F08C2F807F50
:10083000803461F080E28D0F883008F18C2F807E4B
:10084000803221F4D230D8F00023C9F08091CD025B
:1008500082FF15C082E00E94990B0E94AE0A91E0CF
:10086000E82EE926BC2EB2949FE0B922FBE0FB15EE
:10087000B8F1EB2DF0E0EF54F74D0C94EF27E12C9D
:10088000F1CF0C2F0F70C07F11F00295007F112364
:1008900099F0002359F080E28D0F883010F0D111CB
:1008A00007C0802F0E94B80A0E94690B8D2F5AC082
:1008B000802F0E94C80AF8CF8D2F0E949E0300232C
:1008C00079F080E28D0F883010F0D11104C0802FB4
:1008D0000E94BE0A03C0802F0E94CE0A0E94690BAC
:1008E000EB2DE850FF0B349720F40E94241C0E944B
:1008F000E702EE2089F00E94AA0A80FD0DC0F601F1
:1009000015820E94A40A0E94B606C6010E9405062E
:100910000E94A40A0E94C206CDB7DEB7E9E00C949B
:1009200021282C2F2F70F22EC07FC03219F0F294A4
:1009300080EFF822DD2341F0D130D1F1112309F409
:1009400044C00023F1F0B2CF8091CD0282FD15C0EA
:10095000112359F0FF2029F08F2D0E94B80A0E9420
:10096000690B80E00E945503BBCF80E00E949E038C
:10097000FF2009F4B5CF8F2DABCF112369F0011102
:1009800004C08F2D0E94F203ABCF013009F0A8CF35
:100990008F2D0E94EC0AA4CF0111A2CF8F2D0E94AF
:1009A000F9038F2D0E94F80A8F2D0E94DC0A98CF40
:1009B000112321F0063008F093CFE3CF053008F083
:1009C0008FCF8F2D0E94F9038BCF0023D1F3D93322
:1009D00049F43FEF87EE93E0315080409040E1F7DB
:1009E00000C000008D2F0E949E037ACF8C2F869529
:1009F0008695837069F0813009F072CF8D2F9C2F1E
:100A00009370111102C080E090E00E94841C68CFB6
:100A10008D2F9C2F9370111102C080E090E00E94F6
:100A20005F1C5ECF612F8D2F0E944B0359CF8C2FFF
:100A3000837079F5111154CF4D2F4295469547702B
:100A4000440F440F8D2F8F70042E01C0880F0A941D
:100A5000EAF72D2F2071D4FF07C02FE030E001C04E
:100A6000220F4A95EAF72095C695C695C370822B4A
:100A7000C23049F058F4C13019F00E94920630CFCC
:100A80000E948C062DCF0E9498062ACF0E948906CC
:100A900027CF8695112311F08C2F8170882309F4BC
:100AA0001FCF4D2F429546954770440F440F8D2F11
:100AB0008F70042E01C0880F0A94EAF72D2F207141
:100AC000D4FF07C02FE030E001C0220F4A95EAF7BB
:100AD0002095C695C695C370822BC23049F058F454
:100AE000C13019F00E94E106FBCE0E94DB06F8CE71
:100AF0000E94E706F5CE0E94A406F2CECF70112325
:100B000029F08C2F0E94B6068D2F3CCF8D2F0E948E
:100B1000F9038C2F0E94C206E3CED23F41F160F46C
:100B2000D03FB9F0D13F81F0112309F446C0011143
:100B3000BDCE8C2F8F711FC0D33F01F1D43FA1F7E1
:100B40008091CD0282FD24C08C2F8F71112311F36F
:100B500012C0112341F0053008F0C2CE8C2F8F71E6
:100B60000E94CF06BDCE063008F0BACEF7CF8C2F4C
:100B70008F711111CFCF0E94B606B2CE112329F08A
:100B80008C2F8F710E94AD06ABCE0E94A906A8CE15
:100B9000112349F0CF718C2F0E94B60663E08C2F91
:100BA0000E947B0B9DCE81E00E94990B023008F4DD
:100BB00097CE82E00E94990B93CE002359F0D9334F
:100BC00009F010CFEFEFF7EE23E0E150F0402040C6
:100BD000E1F706CF8C2F8F719DCF0F931F93CF938B
:100BE000DF93EC01688179818D810E949E078C01E1
:100BF0000E94ED060E948806B801CE010E94000402
:100C0000DF91CF911F910F910895CF93DF93EC0166
:100C10008C81882399F0CE010E946702811111C056
:100C20000E94AE0A882351F08D81882339F080918B
:100C3000CD0282FF03C082E00E94990BDF91CF9129
:100C40000895CE010E94ED05CE010E943802F6CF34
:100C500090E080E00E945F1C90E080E00E94841C95
:100C60000E94D50A0E94690B0E940E180E94F2177A
:100C700008950E94821D0E94280608950E94C50AB8
:100C80000E943906089592959F70963091F058F41D
:100C9000925F9F70923058F4803F19F030F4883E94
:100CA00030F481E008959A5FF4CF843FD1F380E07F
:100CB0000895883EB0F3813FD1F7F3CFFC01248142
:100CC000222339F0808191810E9493070E9443067C
:100CD000089580E00895A6E0B0E0E1E7F6E00C9426
:100CE0000C282696E2E00C942828A7E0B0E0EBE779
:100CF000F6E00C940C282796E2E00C94282808953E
:100D00000E947F0608950E9480068093D80108956E
:100D100008950E94830608959091D801892B0E941E
:100D2000830608959091D80189230E94830608952F
:100D30009091D80189270E94830608950E947F061A
:100D400008950E949E0608950E94A1068093D701EF
:100D5000089580E00E94A406089591E001C0990FD3
:100D60008A95EAF7892F0E94A406089521E030E0D1
:100D700001C0220F8A95EAF78091D701822B0E9449
:100D8000A406089521E030E001C0220F8A95EAF719
:100D900020958091D70182230E94A406089521E026
:100DA00030E001C0220F8A95EAF78091D7018227AF
:100DB0000E94A40608959091D701892B0E94A40651
:100DC00008959091D70189230E94A40608959091D7
:100DD000D70189270E94A40608950895262F277019
:100DE00091E001C0990F2A95EAF723E0769567957F
:100DF0002A95E1F7FB01EE0FFF1FE60FF71FE40F47
:100E0000F51F50E040E0682F70E08191DF011197FD
:100E10009B01042E02C0369527950A94E2F72170B3
:100E200021952827292328272C934F5F5F4F433094
:100E3000510559F70895A82FA77023E09695879537
:100E40002A95E1F7FC01EE0FFF1FE80FF91FE60FEF
:100E5000F71F50E040E080E0219130E00A2E02C010
:100E6000369527950A94E2F721703327042E01C0A6
:100E7000220F0A94EAF7822B4F5F5F4F43305105F0
:100E800059F70895262F983070F4853060F4682F54
:100E900070E085E0989F600D711D112448EC51E0D1
:100EA000822F0E94EE060895292F983068F485302D
:100EB00058F490E068EC71E035E0239F800D911DBF
:100EC00011240E941B07089580E00895CF92DF92BD
:100ED000FF920F931F93CF93DF936C010091D70183
:100EE0008091D801082BC3E0D0E010E0FC2EC801AF
:100EF0000C2E02C0959587950A94E2F780FD0CC0F0
:100F00002197A0F7F12C8F2DDF91CF911F910F9199
:100F1000FF90DF90CF900895B6018C2F0E948D0E28
:100F2000019771F3F0CFCF93DF93EC010E94660736
:100F3000BE010E948D0EDF91CF9108951F93CF9334
:100F4000DF93EB019091C701992339F0CB010E9407
:100F50009307DF91CF911F910895882369F0CB010A
:100F60000E946607182F682FCE010E944207BE011B
:100F7000812F0E948D0EEDCFCB010E945407182FB8
:100F8000F6CFE1E0F0E0DF0102C0AA0FBB1F6A95D7
:100F9000E2F7BD01DF0102C0AA0FBB1F4A95E2F7CD
:100FA0006A2B01C0EE0F2A95EAF7962F9823961325
:100FB00002C08E2B0895E0958E230895242F462F8E
:100FC000682F8091D7010E94C1070E94A40608954E
:100FD0001F93CF93DF93C091D90117E08091DA017D
:100FE0008C1304C0DF91CF911F910895D0E01C9F16
:100FF000F0011D9FF00D1124E552FE4F208131813B
:10100000428153816481758186810E947506219693
:10101000C770E4CF20911302309114024091150261
:101020005091160260911702709118028091190276
:101030000E9475060895CF93DF9380911902807FF7
:1010400009F04DC080911802882309F448C0E0914E
:10105000D9015091DA01C0911402D091130260912C
:1010600015027091160247E05E17C9F18E2F90E0CD
:10107000E49FF0011124E552FE4F2481222391F1D7
:10108000489FF001499FF00D1124DF01A552BE4F8A
:1010900011962C9111972C1325C02C912D1322C041
:1010A00015962C91159721111DC012962D913C91EA
:1010B000261B370B283C3105A8F4809119028F704C
:1010C000806180931902EF51FE4F80818F708061A3
:1010D000808383E192E00E9405060E94E807DF9189
:1010E000CF910895FC013196E770BECF482F209133
:1010F000D9019091DA0157E0291302C080E00895E8
:1011000030E0529FF001539FF00D1124E552FE4F45
:101110008181681306C08081481303C085818111D5
:10112000EECF2F5F3F4F2770E7CFA4E1B0E0EBE9B0
:10113000F8E00C9402288C0186E0F801DE011F968D
:1011400001900D928A95E1F7F8018481E58093E1A1
:10115000A92E92E0B92E9091170291111FC08823F9
:10116000D1F0EE20A9F0C8010E945E06F82E882377
:1011700079F087E0F801D50101900D928A95E1F7A9
:10118000C5010E9442030E941B080E940A085FC01A
:10119000C8010E940506FF24F39459C0C080D18085
:1011A00082809380F09018022091150230911602EF
:1011B000A401421B530BFF2009F4F9C0483C510520
:1011C00008F0A7C0882309F442C0909114028091CE
:1011D0001902282F207F09F05CC09D1116C0909144
:1011E0001302C91212C0E1104EC08F70806180934B
:1011F00019020E940A0883E192E00E94050680918C
:101200001902F8018683F12C22C0E1103CC06D2D3B
:101210008C2D0E9476086D2D8C2D0E947608E82E6C
:101220008111F1CFCF86D88A8F8598890E94930744
:10123000292F22952F70243078F49F702230A8F047
:101240009923B9F0F8019681907F99F4FE2C8F2DA7
:101250006496ECE00C941E282A5F2F70223068F010
:10126000C8010E940506EF2CF1CF992311F08823C5
:1012700069F3805E883050F3F3CF803F38F3815FAD
:10128000833070F7E3CF8091190281608093190257
:10129000BACF9D1113C090911302C9120FC0E11073
:1012A0000DC08683C8010E94050687E0F801A3E10E
:1012B000B2E001900D928A95E1F767CFC8010E94D4
:1012C0005E06882309F464CFEE2009F461CF809193
:1012D0001902803288F0209113023091140239876C
:1012E00028879B868A86909117029C871D868E8709
:1012F000CE0108960E94050687E0F801A3E1B2E05E
:1013000001900D928A95E1F70E941B080E940A083D
:1013100042CF90911902292F207FA1F4682D9A8A3B
:10132000898AA6017A899E2D0E946B0683E192E04C
:101330000E94050687E0F50111928A95E9F70E945F
:101340000A0861CF882309F482CF809114028D119D
:1013500010C080911302C8120CC0E1100AC096831D
:10136000C8010E94050687E0F50111928A95E9F708
:101370006ECFC8010E945E06882309F409CFEE20D3
:1013800009F406CF80911902803208F4B5CF20917C
:101390001302309114023A8329839C828B829091AC
:1013A00017029D831E828F83CE010196A3CF483CF6
:1013B0005105B8F5882309F4EECEFE2CEE2009F491
:1013C000E7CE809114028D111EC080911302C812C5
:1013D0001AC08091190280FD0DC0982F907F51F0A6
:1013E0008683903F09F45ECF982F907F905F8F7037
:1013F000892B57CF87E0F801A3E1B2E001900D926D
:101400008A95E1F724CFC8010E945E06811174CF4E
:1014100080911902816080931902C8010E9405061B
:1014200016CF682D9A8A898AA6017A899E2D0E94F4
:101430006B0687E0F50111928A95E9F7A6CEAEE03A
:10144000B0E0E5E2FAE00C940B28288739874A8758
:101450005B876C877D878E87CE0108960E949508F2
:101460008823B1F06C85662341F0288539854A854B
:101470005B857D858E850E94750617E08091D90178
:101480009091DA0189133DC02E96E3E00C94272851
:1014900087E0FE013896DE01119601900D928A9543
:1014A000E1F78C85882349F32091DA0130E0C90106
:1014B0000196877099274091D9014817190699F02C
:1014C00097E0929FD001939FB00D1124A552BE4F7B
:1014D000FE01319601900D929A95E1F78093DA0121
:1014E0000E94E807CACF0E943E061092DA011092CD
:1014F000D90187E0E3E1F2E0DF011D928A95E9F787
:10150000BCCF819FC001112485529E4F0E94950837
:10151000882309F4B9CFE091D9011E9FF00111246D
:10152000E552FE4F20813181428153816481758172
:1015300086810E9475068091D90190E0019687709E
:1015400099278093D9019ACF8091420286958695FA
:101550008695089580914202877008959091420285
:10156000977081E009F480E0089580916E020895FB
:1015700090916E02892B80936E02089580959091D0
:101580006E02982390936E02089510926E02089551
:1015900090916D02892B80936D02089580959091B2
:1015A0006D02982390936D02089510926D02089534
:1015B00008950E94D80A089590914302292F282364
:1015C00031F080958923809343020E94D90A0895BF
:1015D00008950E94E80A089590914402292F282333
:1015E000281729F0982B909344020E94E90A089545
:1015F00090914402292F282331F0809589238093EC
:1016000044020E94E90A089580914402882329F047
:101610001092440280E00E94E90A0895CF93C0919D
:101620006E0280916D02C82B80914402882331F0B4
:10163000C82B0E94A91C81110E94040B8C2FCF91F2
:101640000895CF93DF93C0910201D09103010E94CE
:101650000E0B8883C0910201D091030148E050E055
:101660006AE372E0CE010E944728892B59F088E096
:10167000FE01AAE3B2E001900D928A95E1F7CE0156
:101680000E94381CDF91CF910895CF93DF93C091D2
:101690000001D09101010E940E0B8983C0910001CD
:1016A000D091010140E250E06AE172E0CE010E9477
:1016B0004728892B59F080E2FE01AAE1B2E00190AF
:1016C0000D928A95E1F7CE010E94431CDF91CF91E4
:1016D000089580913201882339F08091CC0287FFF0
:1016E00003C00E94450B08950E94210B08950895A0
:1016F0000E94770B08959091CD0292FF11C098E05F
:10170000899F90011124622B609342020E94B606C9
:10171000809142028695869586950E94780B089561
:101720000E94B60608951092420280E00E94780B53
:101730000895909142028095892380934202282F38
:10174000277069F4891759F09091CD0292FF07C074
:101750008695869586950E94C2060E94930B0895F1
:101760009091CD0292FB222720F9281769F080FB87
:1017700092F99093CD028091CC029091CD020E947B
:10178000F90B82E00E94990B08958091CD0282FBB3
:10179000882780F991E089270E94B00B089581E0A5
:1017A0000E94B00B089580E00E94B00B08956FEF87
:1017B0007FEF90E080E00E949928089590E080E01B
:1017C0000E946528863E9E4F19F40E94D21A089501
:1017D00080E0089582E090E00E945D28089583E013
:1017E00090E00E945D28089584E090E00E946528C2
:1017F0000895BC0184E090E00E9499280895AB010F
:10180000BC018FE090E00E948D280895AB01BC01DF
:1018100083E190E00E948D28089560E070E0CB01A4
:101820000E94060C089560E070E0CB010E94FF0B5F
:101830000E940D0C0895A8E0B0E0E1E2FCE00C94F9
:101840000C2866EE7EEF90E080E00E94992860E030
:1018500082E090E00E947B2881E08093D80161E0E3
:1018600083E090E00E947B2860E074E184E090E0F7
:101870000E94992860E086E090E00E947B286FEF4C
:1018800087E090E00E947B2840E050E0BA0188E0C9
:1018900090E00E948D2860E084E290E00E947B2826
:1018A00060E087E190E00E947B2860E08CE090E0BF
:1018B0000E947B2860E08DE090E00E947B281982E6
:1018C0001A821B821C821D821E821F82188648E09B
:1018D00050E068E170E0CE0101960E946B2840E084
:1018E00050E0BA0180E290E00E948D2880E00E94E2
:1018F000EB1A0E941A1B0E94130C2896E2E00C942B
:1019000028280E941B0C0895682F8EE090E00E940A
:101910007B280895A6E0B0E0E0E9FCE00C940A28FA
:101920000E946E1E8C0180916F0290917002801750
:10193000910781F019821A820E946E1E682F4981D8
:101940005A81792F80E090E00E9412031093700278
:1019500000936F022696E4E00C9426280E94A90FBB
:1019600060937D0270937E0280937F029093800249
:101970006093790270937A0280937B0290937C0249
:101980000895089508950E94C10C089508950E9435
:10199000C60C089581E0089583EC9FE00E94C51372
:1019A0000E94C20C0E94C30C08950E94B9110895B0
:1019B000089508950E94D80C0E94D90C08950E94A1
:1019C000E20F0E94E60208950E94651E0E94830FA6
:1019D0000E942A1B0E94BF110E9410110E94DF0C5E
:1019E0000E94CA130E94D1110E94C70C0895A6E05C
:1019F000B0E0EDEFFCE00C9403280E94CA0C8111CA
:101A00000CC00E948A0C0E94B9110E9430180E94DA
:101A1000F9022696EBE00C941F280E94331181E70F
:101A2000A82E82E0B82E750110E0F70101917F0128
:101A3000812F0E9405101F5F183009F441C008175C
:101A4000A1F38091810281FD0E940B100E94D50CB0
:101A5000C82E10E099249394812F0E940510082F1E
:101A6000F50181915F01081729F1D02ED826F12CBC
:101A7000EE24E3948D2D8E21A9F0CC2099F0F982EB
:101A80001A830E946E1E9C838B839D8291E0802F1F
:101A90008E2109F490E049815A816B817C818D818E
:101AA0000E941203F394EE0CF5E0FF12E3CFF50170
:101AB000319700831F5F183079F60E94AE0CA3CFD8
:101AC0000813BFCF9ECF1F93CF93DF930E94920E38
:101AD000EC01C11580E5D807F0F5C11580E4D80701
:101AE00008F09CC0C03ED10520F5CD3CD10508F0E2
:101AF00082C0C83AD10578F4C53AD10508F073C060
:101B0000C130D10519F1209709F1C430D105F0F4A5
:101B1000D0E0C0E01BC0C33CD105D0F7C85AD0E02C
:101B2000CC0FDD1FC459DE4F0990D881C02DD4647D
:101B30000DC0C11580E2D80708F0D1C0C11581E001
:101B4000D80708F05AC0C83ED10510F7CE01DF9182
:101B5000CF911F910895C03682E5D80718F5C0349B
:101B600082E5D80708F06BC0C03282E5D80708F0DC
:101B70005FC0C11582E5D80708F497C02C2F2695C1
:101B8000269580E2289F900111248C2F8370C1E05C
:101B9000D0E002C0CC0FDD1F8A95E2F7C22BD32B19
:101BA000DD68D4CFC03A82E5D80760F4C03882E55A
:101BB000D80708F459C0CF71D0E0DC2FCC27C46F10
:101BC000D06AC4CFC03C82E5D80708F462C0C03EEA
:101BD00082E5D80708F09CCFDC2FCC27CC27DF711B
:101BE000C06FD06AB3CFC55AD0E0CE55DE4FC881A2
:101BF000D0E0D064ABCFD065A9CF8D2F0E94340F39
:101C0000182FCE0199270E94920EC12FD0E0DC2F11
:101C1000CC27CC27DF71C82BD92B98CFCE019927A1
:101C20000E94920ECC27DF70C82BD92BD06A8ECFA2
:101C3000CF71D0E0DC2FCC27C16FD06A87CF2C2F9B
:101C400026952695277080E2289F900111248C2FDD
:101C50008370C1E0D0E002C0CC0FDD1F8A95E2F7AF
:101C6000C22BD32BDC6872CF2C2F2695269527709C
:101C700080E2289F900111248C2F8370C1E0D0E076
:101C800002C0CC0FDD1F8A95E2F7C22BD32BDA6896
:101C90005DCF8C2F8F710E94340FC82FD0E0DC2FC6
:101CA000CC27CC27DF71D06251CF8C2F8F710E944F
:101CB000340F55E0D695C7955A95E1F7CF70D0E02F
:101CC000DC2FCC27282F30E084FF05C044E0220F12
:101CD000331F4A95E1F7C22BD32BD06937CF8D2F15
:101CE0008F710E94340F182FCE0199270E94920EF7
:101CF000C12FD0E0DC2FCC27CC27DF71C82BD92B0C
:101D0000D2CF462F783030F4653020F4672F0E9410
:101D10009A14089590E080E008950E94810E0E9438
:101D2000630D089582389105B9F1B0F481339105BE
:101D300009F47DC048F48932910509F46DC08A32F6
:101D4000910509F47BC008958533910509F45FC0BE
:101D50008933910509F10895833E9105D9F138F44D
:101D6000803E910529F1823E910579F10895863EE4
:101D70009105D9F1873E910509F43EC0843E910555
:101D800041F52091CD0221FF24C08091CC0284FD39
:101D900019C087EE90E008952091CC02237009F0DD
:101DA0005AC02091CD0223FF14C089E290E008952B
:101DB0002091CC0220FD38C03091CD0230FF09C007
:101DC00024FF43C090E080E008952091CC0222FDE2
:101DD000F7CF08952091CC0222FD3AC03091CD0278
:101DE00030FD39C024FFF5CFEDCF2091CC0223FF89
:101DF000F0CF24FDE7CFCDCF2091CC0223FD2EC024
:101E00003091CD0231FFEECF84EE90E00895209125
:101E1000CC0225FFDECFC9CF2091CC0225FD21C009
:101E20002091CD0223FFD5CF89E390E0D2CF20913E
:101E3000CC0226FFCECF8AE290E008952091CC021A
:101E400026FFC7CF81E390E0089583EE90E00895E8
:101E500082EE90E0089580EE90E0089586EE90E0A6
:101E6000089585E390E008959091CC0292FF10C010
:101E700041E0282F2471243009F040E031E0282F80
:101E80002871283009F030E0431711F02CE0822748
:101E900093FF10C041E0282F2471243109F040E065
:101EA00031E0282F2871283109F030E0431711F074
:101EB0002CE082273091CD0230FF10C051E0282F56
:101EC0002171213009F050E041E0282F287128309D
:101ED00009F040E0541711F029E0822731FF10C0CB
:101EE00041E0282F2171213109F040E031E0282F15
:101EF0002871283109F030E0431711F029E08227DA
:101F000094FD877E08951092C8021092C902109223
:101F1000CA021092CB020895CF92DF92EF92FF9205
:101F20006B017C010E94B91181110EC00E947A1EC2
:101F3000C61AD70AE80AF90AC092C802D092C902A2
:101F4000E092CA02F092CB02FF90EF90DF90CF9028
:101F500008950F931F930E94B911882329F00E94BE
:101F60007A1E1F910F9108950E947A1E0091C80257
:101F70001091C9022091CA023091CB02600F711FEB
:101F8000821F931FEECF80E008950E94D70B089523
:101F90000E9433112FEF86E791E02150804090405E
:101FA000E1F700C000000E94331180E00E9405109C
:101FB00080FF04C00E94C50F0E94D51E08950E9494
:101FC000C80F08950E94DE0B811102C00E94810C8F
:101FD0000E94EA0B809381020E94F40B9093CD0241
:101FE0008093CC020E94DF0F0E94EF0B0E948906B3
:101FF0008091D7010E94A106089508950E94FD0FC7
:10200000089508950E9401100895E82FF0E0E95224
:10201000FD4F80810895089580EA8A95F1F708952B
:1020200000C008950E940C10089508950E94151094
:102030000895EF92FF921F93CF93DF9300D000D0CB
:10204000CDB7DEB70E94B911182F6091DF02882347
:1020500009F447C019821A821B821C82862F90E0E5
:102060009E012F5F3F4F7901B90189529D4F0E9418
:10207000DF118823E9F08091CE0290E044E050E047
:10208000B70189529D4F0E94472821E02093820288
:10209000892BC9F410E00E940210812F0F900F903D
:1020A0000F900F90DF91CF911F91FF90EF900895C7
:1020B00080918202882371F384E0F70111928A955E
:1020C000E9F710928202E091CE02F0E0E952FD4F72
:1020D00089819A81AB81BC8180839183A283B38300
:1020E000DACF70E069527D4F8091CE0290E0895244
:1020F0009D4F0E9466120E941610CFCFF894E82FD1
:10210000E295EF70F0E031A1282F2F7081E090E090
:1021100001C0880F2A95EAF7982F9095932391A3F1
:1021200092A1892B82A378940895CF93DF9385E3BE
:102130000E947E1086EF0E947E1083E30E947E1034
:1021400082E30E947E10C5EAD1E089918F3F11F0B1
:102150000E947E1081E0CA3AD807B9F7DF91CF918B
:102160000895B0E0A0E0E7EBF0E10C940628EC0164
:10217000D62E062F10E0C80186559E4F7C01FC012B
:1021800080818F3F09F445C0F894E82FE295EF7005
:10219000F0E091A18F7021E030E001C0220F8A951C
:1021A000EAF7892F822B81A382A12095282322A3DD
:1021B00078940E941010E5EAF1E04AEA51E031E03B
:1021C000C12C21912F3F51F1A22FA295AF70B0E009
:1021D00090968C9190E02F7002C0959587952A95E6
:1021E000E2F780FD1BC0832FC82A330F4E175F070D
:1021F00041F7F70180818F3F11F00E947E1061E06E
:10220000C11001C060E08D2D0E941210C00FD11FBF
:10221000C882CDB7DEB7E8E00C94222880E0E4CF96
:10222000809104018091040194E0811190E09093E9
:10223000DF0284E0891B8093CE020E94951088E023
:10224000E7EDF2E0DF01982F1D929A95E9F7EFECA8
:10225000F2E0DF011D928A95E9F784E00E94711196
:102260000E94FE0F0895A8E0B0E0E9E3F1E10C94CC
:1022700009288E010F5F1F4F88E0F80111928A959F
:10228000E9F7F12C6F2DC8010E94B110F394F4E02E
:10229000FF12F8CF48E050E0B8018FEC92E00E94C6
:1022A000472821E0009709F420E0892B41F088E0DD
:1022B000F801AFECB2E001900D928A95E1F76091E0
:1022C000DF0270E069527D4F44E08FEC92E00E94A3
:1022D0007211182F0E941910812B2896E5E00C949A
:1022E00025280895B0E0A0E0E8E7F1E10C94062885
:1022F0006C017B01042FC22F222379F081E08093AF
:1023000085020E946E1E909384028093830280E077
:10231000CDB7DEB7E8E00C942228D0918502DD230A
:10232000B1F380918302909184020E94861E0597EA
:1023300070F310E0A801B601C7010E944728892B5D
:1023400031F0A801B601C7010E945428CD2F109288
:1023500085028C2FDDCFCF930E94CE27C82F81110D
:1023600002C00E94C9278C2FCF91089580918902C5
:1023700008958091880208950E94B91108950E94DD
:10238000AB11809388020E94BC11809389020E9445
:10239000B611809304010E94B91181110E94151297
:1023A00008950E94B911811102C00E941812089567
:1023B00081E090918A029A3008F080E008950F93AE
:1023C0001F93CF93DF93EC018B0180918A028A30B7
:1023D000B8F4B801CE010E946312C82F811122C047
:1023E00080918A028F3FB9F40E946E1E90938702FB
:1023F000809386028C2FDF91CF911F910F910895CA
:1024000080918602909187020E94861E843F9140AF
:1024100000F7C0E0EFCF8F5F80938A028A3020F709
:10242000C1E0E8CF10928A02E5CF0E944B1F0895C9
:102430000E944E1F0895B0E0A0E0E1E2F2E10C94AA
:1024400007287901C82F880FDD0B41155105A9F028
:10245000FE0193E0EE0FFF1F9A95E1F7EB5FFE4F51
:102460008181928185579D4F208130E0421753072B
:1024700008F49A01A9010E945428CE010E94372035
:10248000D82E8823D1F001151105B9F083E0CC0FC7
:10249000DD1F8A95E1F7FE01EB5FFE4F438150E0BF
:1024A0000417150708F4A801CB5FDE4F6C817D810E
:1024B00065577D4FC7010E9454288D2DCDB7DEB7DB
:1024C000E7E00C9423280E945D1308950E94741382
:1024D0000895A4E0B0E0EFE6F2E10C940A286091E0
:1024E000A0027091A1028091A2029091A3020E9489
:1024F000951E11E0643671058105910518F10E9461
:10250000A90F6E5F7F4F8F4F9F4F69837A838B83B5
:102510009C8310E000E030E020E044E050E0BE01A9
:102520006F5F7F4F82E00E941B12182F882351F0AB
:102530000E947A1E6093A0027093A1028093A2026F
:102540009093A302812F2496E4E00C942628B0E017
:10255000A0E0EDEAF2E10C9404287C015B016A0141
:102560000E94D81101E010E0882311F00AE010E089
:10257000C1E0D0E0B501C701F6010995811104C0A1
:1025800021960C171D072CF4CDB7DEB7EAE00C94AA
:102590002028CC9F9001CD9F300D300D112490E06C
:1025A00080E045E34A95F1F7000001968217930712
:1025B000C1F7E0CFA5E0B0E0E0EEF2E10C94042832
:1025C0005B01E090AE01F090AF0101E010E09E01F0
:1025D0002B5F3F4F50E040E070E060E080E00E9401
:1025E0001B12182F882309F44BC067018FEFC81AFC
:1025F000D80A60919C0270919D0280919E029091F8
:102600009F020E94951E643671058105910580F137
:1026100004E010E09E012F5F3F4F50E040E070E08B
:1026200060E081E00E941B12F82E64E070E0C601B9
:102630000E94CB1311E09D81981310E01F2159F1E6
:102640000E947A1E60939C0270939D0280939E026A
:1026500090939F0289819A81AB81BC81809398027B
:1026600090939902A0939A02B0939B0211E013C039
:1026700064E070E0C6010E94CB139D818913C8CF2E
:10268000F70181819281A381B48189839A83AB838D
:10269000BC831111DFCF8091980290919902A09193
:1026A0009A02B0919B02F50180839183A283B38348
:1026B000812F2596EAE00C9420280F931F93CF9347
:1026C000DF93EC018B014AED52E10E94A7128823AF
:1026D00031F049E652E1B801CE010E94A712DF9124
:1026E000CF911F910F9108950F931F93CF93DF9375
:1026F000C091AE01D091AF01CE01019624E0FB0163
:10270000DC0101900D922A95E1F764E070E00E94EF
:10271000CB1388836D817E818F819885009194028F
:1027200010919502209196023091970260177107DF
:102730008207930751F060939402709395028093FF
:102740009602909397020E948C0FDF91CF911F9178
:102750000F9108950E9423220E94E40C0E943022CF
:1027600008950E9435220E94F70C0E944F2208957E
:102770000E94071E0E9409220E94CC0C0E94AA13EC
:102780000E94B1130E94DA0CFBCF9093C101809399
:10279000C00108950895FC01680F791F8FEF91E340
:1027A0006E177F0709F408952191822728E030E011
:1027B00087FF06C0880F892721503109C9F7F0CF5C
:1027C000880FFACF84E0089550E0440F551F9AE037
:1027D000699F400D511D112490E5899F400D511DA9
:1027E0001124CA01899608950F931F93CF93DF9305
:1027F0008430C8F46830B8F44530A8F40E94E4137B
:102800008C010E945D28C82FD0E0DC2FCC27C801A6
:1028100001960E945D289E01282BC901DF91CF916E
:102820001F910F91089590E080E0F8CF0F931F93D0
:10283000CF93DF93122F032F843078F4683068F43D
:10284000453058F40E94E413EC01602F0E947B286D
:10285000612FCE0101960E947B28DF91CF911F91BD
:102860000F9108951F93CF93DF93D0E0C0E011C084
:10287000412F6C2F8D2F0E94CB019C01412F6C2F7B
:102880008D2F0E9416141F5F153091F7CF5FC8304F
:1028900011F010E0EDCFDF5FD43041F7DF91CF9141
:1028A0001F910895EF92FF920F931F93CF93DF93A1
:1028B000EC018A017C01E60EF71ECE018996CE1549
:1028C000DF0529F4CDB7DEB7E6E00C942428C03448
:1028D00021E0D20740F40E945D28F80180830F5F59
:1028E0001F4F2196EACFF8011082F9CFB0E0A0E0A7
:1028F000ECE7F4E10C9406287C016A018C01060FD8
:10290000171FEC01CE018996C017D10729F4CDB766
:10291000DEB7E8E00C942228C03421E0D20740F46E
:10292000FE01EE19FF09EC0DFD1D60810E947B2860
:102930002196E8CF843038F4683028F4453018F414
:102940000E94F413089590E080E0089580E10895D6
:1029500087E992E00895EF92FF920F931F93CF9330
:10296000DF93EC018A017C01E60EF71ECE01875948
:102970009E4FCE15DF0529F4CDB7DEB7E6E00C9407
:102980002428C73922E0D20740F40E945D28F801CC
:1029900080830F5F1F4F2196E9CFF8011082F9CF96
:1029A000B0E0A0E0E6EDF4E10C9406287C016A01B9
:1029B0008C01060F171FEC01CE0187599E4FC017DF
:1029C000D10729F4CDB7DEB7E8E00C942228C73947
:1029D00022E0D20740F4FE01EE19FF09EC0DFD1DC7
:1029E00060810E947B282196E7CFCF93DF93C9E6D1
:1029F000D1E060E0CE010E947B282196C11584E0E1
:102A0000D807B9F7DF91CF910895A8E0B0E0EBE0E7
:102A1000F5E10C940428F82E8FE08F1508F46EC0B1
:102A20008FEF93E00E945D28811168C009E611E0F4
:102A3000F11035C0FE0131966F0188E011928A9540
:102A4000E9F77801FFEFEF1AFF0AC8010E945D283D
:102A500089831A82882309F451C08130D1F4580146
:102A600082E0A80EB11CC7010E945D288A838823DA
:102A700009F444C09FEF980F9330F0F4780193E08D
:102A8000E90EF11CC5010E945D288B838823B1F1FA
:102A90001C8260E0C6010E947B198701D2CF01151C
:102AA00094E0190759F1C8010E945D28811101C005
:102AB000FA940F5F1F4FBCCF7501843051F702E0CD
:102AC00010E07501EFEFEE1AFE0AC5010E945D28C5
:102AD000F601E00FF11F8083882381F08C3741F4E9
:102AE000E2E0F0E0EC0FFD1FE00FF11F1082D1CF0C
:102AF0000F5F1F4F57010730110519F72896EAE0BD
:102B00000C942028CF93DF93EB0186319C4711F57D
:102B10000E94B50A9D81992399F08A7A91E009F47F
:102B200090E09093A402811109C089E20E94541D93
:102B30000E94690B80E0DF91CF91089585E3F6CF85
:102B40008091A402811104C089E20E946B1DF0CF24
:102B500085E3FBCF81E0EFCFCF93DF93EC01FB0167
:102B60008581882309F4D2C09E0130572332310574
:102B700008F0B2C00E94F40B9093CD028093CC0277
:102B8000FE01E150F047E232F10520F4E354F74D45
:102B90000C94EF278091CC0281608093CC0293C08B
:102BA0008091CD0288608093CD028DC08091CC024F
:102BB0008260F3CF8091CC028460EFCF8091CC0211
:102BC0008860EBCF8091CD028160EDCF8091CD0206
:102BD0008260E9CF8091CC028061DFCF8091CC020E
:102BE0008062DBCF8091CC028064D7CF0E943E060A
:102BF0008091CC028068D1CF8091CC028C60CDCF07
:102C00008091CD028360CFCF8091CC028E7FC5CFE3
:102C10008091CD02877FC7CF8091CC028D7FBDCFC1
:102C20008091CC028B7FB9CF8091CC02877FB5CFCA
:102C30008091CD028E7FB7CF8091CD028D7FB3CFB3
:102C40008091CC028F7EA9CF8091CC028F7DA5CFC1
:102C50008091CC028F7BA1CF0E943E068091CC0256
:102C60008F779BCF8091CC02837F97CF8091CD02CD
:102C70008C7F99CF8091CC0282FB992790F921E03B
:102C8000922790FB82F990FB83F987CF8091CD0248
:102C9000982F909591708E7F892B90FB81F983CF2F
:102CA0009091CC02892F8F7B96FF806476CF0E9413
:102CB0003E069091CC02892F97FB87F980586DCF03
:102CC00081E00E94840C8091CC029091CD020E9400
:102CD000F90B0E943E0680E0DF91CF91089580E0DD
:102CE000F0CF9091CC02892F8F7E94FF806155CFD9
:102CF0009091CC02892F8E7F90FF81604ECF909172
:102D0000CD02892F877F93FF88604DCF81E0E4CF8C
:102D1000282F35EB2303C001112497FF04C08058EE
:102D20009109892F089580589F4FFBCF8091AB0266
:102D300080FF0DC06091220170E0660F771F603840
:102D4000710570F56115710569F1862F089581FF90
:102D500007C06091220184E0689FB0011124EFCF89
:102D60006091220182FD0AC08091AA028823A9F005
:102D70002091210160912201821710F088E0ECCFB0
:102D8000869FC001112433E0880F991F3A95E1F71F
:102D9000622F70E00E94DB27D2CF68E070E0D5CFD1
:102DA0008FE7089581E008958091AB0280FF0CC009
:102DB00060911E0170E07595679575956795611531
:102DC000710549F1862F089581FF06C060911E01AB
:102DD00070E075956795F3CF60911E0182FD0BC081
:102DE0009091A9029923A1F060911D0180911E018B
:102DF000961738F0682F70E06038710500F38FE7A0
:102E00000895899FC001112470E00E94DB27F4CF50
:102E100061E070E0D7CF81E008959091AE022091FB
:102E2000AF02922B2091B102922B2091B002922BF3
:102E300031F098E09093AA0291E09093A9028D3C22
:102E400031F40E94961681958093AF0208958E3CCE
:102E500019F40E949616F8CF8F3C31F40E94961612
:102E600081958093AE020895803D19F40E949616D4
:102E7000F8CF893D29F40E94D4168093B0020895BA
:102E80008A3D21F40E94D4168195F7CF8B3D31F411
:102E90000E94D41681958093B10208958C3D19F457
:102EA0000E94D416F8CF9FE2980F983070F4815D9D
:102EB000990B21E030E001C0220F8A95EAF780915A
:102EC000AD02822B8093AD0208958D3D31F4809147
:102ED000AB0281608093AB0208958E3D21F4809116
:102EE000AB028260F7CF8F3DB9F78091AB0284606F
:102EF000F1CF4091AE028D3C59F48091AF0287FF33
:102F00000DC01092AF0241110BC01092AA0208C06E
:102F10008E3C81F48091AF0218169CF3442381F01B
:102F20008091B0029091B102892B09F05AC01092A1
:102F3000A90208958F3C49F447FFF0CF1092AE02EA
:102F40008091AF028111ECCFE0CF803D19F41416CF
:102F5000ACF3E4CF9091B002893D29F41916F4F650
:102F60001092B002DBCF8A3D19F497FFD7CFF8CF8C
:102F70009091B1028B3D29F497FFD0CF1092B1020E
:102F8000CDCF8C3D19F41916CCF3C8CF9FE2980F22
:102F9000983090F4815D990B21E030E0B90102C0D6
:102FA000660F771F8A95E2F7CB0180959091AD026D
:102FB00089238093AD02B2CF8D3D31F48091AB0275
:102FC0008E7F8093AB02AACF8E3D21F48091AB021D
:102FD0008D7FF7CF8F3D09F0A1CF8091AB028B7F22
:102FE000F0CF08950E946E1E9C019091AE028091D8
:102FF000AF02982B21F03093A8022093A702909162
:10300000B0028091B102982B21F03093A602209358
:10301000A5028CEA92E00E94511C089586E0ECEA39
:10302000F2E0DF011D928A95E9F71092AA02109250
:10303000A9021092AB020895FC01828181110EC099
:10304000838181110BC08481811108C091E0858149
:10305000811101C090E0892F8170089581E0FCCF3B
:10306000A6E0B0E0E6E3F8E10C940B2886E0ECEA99
:10307000F2E0DE01119601900D928A95E1F710922F
:10308000AE021092AF021092B0021092B1028B8188
:103090009C81892B89F08091A7029091A8020E94BF
:1030A000861EAC019091AA029923C9F18091230157
:1030B0008417150608F440C08D819E81892B91F0FC
:1030C0008091A5029091A6020E94861EAC0190916B
:1030D000A902992309F46AC080911F01841715067B
:1030E00008F472C0BE016F5F7F4F8CEA92E00E94CD
:1030F0009C1D811105C08CEA92E00E941C18811170
:103100000E94F21786E0FE013196ACEAB2E001902F
:103110000D928A95E1F72696E3E00C9427282091FA
:1031200024018AE0289F900111242417350720F6F6
:103130009F5F9093AA0202C09F3FD1F71B8111238A
:1031400059F00E9496169FEF11160CF491E0899F9A
:10315000802D11248093AE021C81112359F00E940E
:1031600096169FEF11160CF491E0899F802D112483
:103170008093AF028091AE02882309F49DCF109115
:10318000AF02112309F498CF0E948816882351F0CA
:103190008093AE02812F0E948816882329F08093A5
:1031A000AF028ACF81E0F4CF81E0F9CF20912001F6
:1031B0008AE0289F900111242417350708F092CF48
:1031C0009F5F9093A90202C09F3FD1F71D811123F9
:1031D00059F00E94D4169FEF11160CF491E0899FCC
:1031E000802D11248093B0021E81112359F00E947A
:1031F000D4169FEF11160CF491E0899F802D1124B5
:103200008093B1028091B002882309F46BCF1091B2
:10321000B102112309F466CF0E948816882351F069
:103220008093B002812F0E948816882329F0809312
:10323000B10258CF81E0F4CF81E0F9CFB0E0A0E057
:10324000E4E2F9E10C940728E82FF0E0E450FF4FA6
:10325000D490282F26952695269530E0F901E4563E
:10326000FE4F0491877010E0082E02C01595079557
:103270000A94E2F701701127F901E457FE4FE49038
:10328000F12C082E02C0F594E7940A94E2F791E03D
:10329000E922FF24F901E458FE4FC491D0E002C0B6
:1032A000D595C7958A95E2F7C170DD2701151105FF
:1032B00019F081EE0E945503E114F10419F086EE35
:1032C0000E9455038D2D0E94E903E114F10419F0C9
:1032D00086EE0E949E030115110519F081EE0E94F1
:1032E0009E03CD2B19F08CE20E94E903CDB7DEB727
:1032F000E7E00C942328EF92FF920F931F93CF9354
:10330000DF93EC01162F0AE08881882309F454C06A
:10331000813009F04EC08981813099F47E0122E02C
:10332000E20EF11C8A810E94E903E7012196812FB8
:10333000815050F3EFE9FFE03197F1F700C0000052
:10334000F7CF823041F47E0182E0E80EF11C8A81E1
:103350000E945503EACF833041F47E01E2E0EE0E95
:10336000F11C8A810E949E03E0CF843011F02196E7
:10337000DDCF2A81229690E080E0AE014F5F5F4F63
:103380002053330B2A30310548F0019778F2EFE9EA
:10339000FFE03197F1F700C00000F7CF089FB001C0
:1033A000099F700D1124C901860F971F2981EA0119
:1033B000E4CF0E941E19BACFCDB7DEB7E6E00C9479
:1033C00024280F931F93CF93DF93C42FD22FFC0198
:1033D00085818823C9F04093B4020E946E1E9093A9
:1033E000B3028093B20280E28C0F883040F4C77041
:1033F00081E001C0880FCA95EAF70E94F203DF91CD
:10340000CF911F910F9108951091B402141332C0FF
:103410008091B2029091B3020E94861E883C910571
:1034200048F5C0E2CD0F1D17B9F080E2810F88305A
:1034300040F4177081E001C0880F1A95EAF70E94E6
:10344000F903C83048F481E09D2F977001C0880FC0
:103450009A95EAF70E94F203802F0E94E903C83090
:1034600070F6D77081E001C0880FDA95EAF70E9404
:10347000F903C5CF80E28C0F883008F6C77081E071
:1034800001C0880FCA95EAF7F2CF0F93DB0188518C
:103490009C4787309105A0F5FC01E152F74D0C9453
:1034A000EF2706E221EE41EE6AE17CE7CD010E94C2
:1034B000E11980E00F91089507E225EE45EE6BE1FA
:1034C0007CE7F4CF06E221EE40EE68E17CE7EECF48
:1034D00007E225EE44EE69E17CE7E8CF06E221EE63
:1034E00042EE6CE17CE7E2CF07E225EE46EE6DE1CD
:1034F0007CE7DCCF08E221E045EE6EE17CE7D6CF49
:1035000015968C91882319F01092B402D3CF81E0E4
:10351000D1CF1F93CF93DF9387372CE7920759F0D2
:10352000C1E088379C47E1F4FB01C581CC2371F1F0
:103530000E94CC1A06C0FB01C581CC23B1F00E94C9
:10354000C91A0E94B6060E94CF1AD82F0E94CC1A20
:10355000C82F0E94C91A4D2F6C2F0E94DE07C0E0B1
:103560008C2FDF91CF911F9108950E94C91A0E945C
:10357000C2060E94CF1A182F0E94CC1AD82F0E9480
:10358000C91A412F6D2F0E94DE07EACF0E94CC1A84
:10359000EECF8091270108958091260108958091B2
:1035A0002501089585E290E00E945D28843289F427
:1035B00086E290E00E945D28843059F487E290E032
:1035C0000E945D2891E0873009F090E0892F81709A
:1035D000089580E0FCCFCF93C82F6FEF811164E294
:1035E00085E290E00E947B286FEFC11164E086E2E3
:1035F00090E00E947B286FEFC11167E087E290E0C6
:103600000E947B28CF910895089588E290E00E945F
:103610005D28682F70E090E080E008950895CF93D2
:10362000C62F0E940E1B6C2F88E290E00E947B2820
:10363000CF91089580E00E94EB1A60E070E0CB012A
:103640000E940F1B0E9432140E94F51481E00E9418
:10365000EB1A08950E94041B0E94051B0E940E1B7A
:103660000E94D21A811102C00E941A1B0895089567
:103670009C01FB018581882351F0A90157574038EF
:10368000510530F4822F0E94051580E0089581E0F5
:1036900008952FEFFC01208308950E94491B08958F
:1036A00080E00895B0E0A0E0E8E5FBE10C94062896
:1036B000EC01E62E0E94501B811110C0E881E15000
:1036C000E331B8F4F0E0EA51F74D0C94EF2719829A
:1036D0008CE08A836E2DCE010E94FD20CDB7DEB72F
:1036E000E8E00C94222889818230C1F028F48130EE
:1036F00061F08FEF8883EECF833099F08430C9F783
:103700001A821B821C821D82E5CF0E947A1E0E94B3
:10371000F5276A837B838C839D83DCCF0E94051B06
:10372000F6CF8A81082F10E06E0193E0C90ED11CFC
:103730009CE1F92EF80E0830110560F6802F0E94EA
:103740000510F60181936F010F5F1F4FF012F3CF49
:10375000C1CF8981823031F0853059F68A810E944B
:10376000371BB8CF6A817B818C819D810E94F527B0
:103770000E940F1BAFCF4B816A8189810E94F41395
:103780009827892798279D838C83A4CF2C813D81FE
:103790003227232732274B816A8189810E941614A0
:1037A00099CF0E94321496CF6E2DCE010E944D1BF0
:1037B00091CF0E94A61489838DCF0E94A8149827C8
:1037C000892798279A83898385CF6B8170E08981C7
:1037D0009A81AE014C5F5F4F9827892798270E94F6
:1037E000AB1478CF6B8170E089819A81AE014C5F18
:1037F0005F4F9827892798270E94D0146BCF0E948B
:10380000F51468CF0E94E213D6CF6B8170E08981F6
:103810009A81AE014C5F5F4F9827892798270E94B5
:10382000521458CF6B8170E089819A81AE014C5F50
:103830005F4F9827892798270E9476144BCF909343
:10384000BB028093BA0208950E94B911811103C08E
:103850008091B5020895E091BA02F091BB023097D1
:1038600029F00190F081E02D0995089580E00895F8
:10387000E091BA02F091BB02309721F00280F3810F
:10388000E02D09950895E091BA02F091BB023097BE
:1038900039F026E0DC012C930480F581E02D0995B8
:1038A0000895E091BA02F091BB02309739F022E01E
:1038B000DC012C930680F781E02D09950895A3E0A3
:1038C000B0E0E5E6FCE10C940C282091B8023091C0
:1038D000B90228173907A1F09093B9028093B80272
:1038E000E091BA02F091BB02309751F023E02983B6
:1038F0009B838A830084F185E02DCE010196099592
:103900002396E2E00C942828A3E0B0E0EAE8FCE18A
:103910000C940C282091B6023091B7022817390771
:10392000A1F09093B7028093B602E091BA02F091B1
:10393000BB02309751F024E029839B838A83008463
:10394000F185E02DCE01019609952396E2E00C94D5
:10395000282820910201309103012E5F3F4F809172
:103960003201882379F08091CC0287FF0BC020912F
:103970000001309101012E5F3F4F9EE180E09150A8
:1039800018F4089596E0FACFF90141919F0144237C
:10399000B1F38F5FF4CF882321F190913201992305
:1039A00011F19091CC0297FF1EC0E82FE695E695A5
:1039B000E695EE31B0F42091000130910101E20F63
:1039C000F32FF11D228130E0877041E050E002C00A
:1039D000440F551F8A95E2F72423352381E0232BDA
:1039E00091F480E008952091020130910301F901E2
:1039F0003296285F3F4F9191981721F0E217F30715
:103A0000D1F7EFCF81E008959C01FC0132969FEF42
:103A100080E04191461751F09F3F19F4411101C0D8
:103A2000982F8F5F8630A9F79F3F09F40895290FDB
:103A3000311D97FD3A95F90162830895FC01329694
:103A400008962191261303C0DF0111971C92E817F5
:103A5000F907B9F70895E62FE695E695E695EE3174
:103A600068F4E80FF92FF11D677021E030E001C024
:103A7000220F6A95EAF78281822B82830895E62FCE
:103A8000E695E695E695EE3170F4E80FF92FF11D15
:103A9000677021E030E001C0220F6A95EAF72095B7
:103AA0008281282322830895682F80913201882300
:103AB00059F08091CC0287FF07C08091000190915E
:103AC00001010E942B1D0895809102019091030134
:103AD0000E94041D0895682F80913201882359F0B7
:103AE0008091CC0287FF07C0809100019091010175
:103AF0000E943F1D089580910201909103010E9450
:103B00001E1D089580913201882379F08091CC02A6
:103B100087FF0BC0E0910001F091010132968EE128
:103B2000DF011D928A95E9F70895E0910201F09175
:103B30000301329686E0F4CFDC01FB0111969C91E3
:103B400011978181981322C012968C911297882325
:103B500019F0928189131AC013968C9113978823B8
:103B600019F09381891312C015968C9115978823AB
:103B700019F0958189130AC014969C91992321F01C
:103B800081E02481291303C080E001C081E08170BD
:103B9000089508950E94C91D0895811106C081E00D
:103BA0008093BC020E94CA1D089582E0F9CF83E091
:103BB0008093BC020E94CA1D08950E94CD1D0895E5
:103BC00081E08093BC020E94CA1D08950E94E01DFE
:103BD0000895089508950E94EA1D0895089508958E
:103BE0000E94E91D0895CF930E94EE1D0E9433119B
:103BF0000E94EF1DC0E08C2F0E940510811105C0AE
:103C0000CF5FC830C1F7CF91089581E0FCCF85B771
:103C1000806885BF85B7806885BF08951F921FB6ED
:103C20001F9211248F939F93AF93BF938091BD02F6
:103C3000811113C08091E0029091E102A091E20213
:103C4000B091E3024196A11DB11D8093E0029093D3
:103C5000E102A093E202B093E302BF91AF919F9182
:103C60008F911F901FBE1F9018958091E80284309D
:103C700031F10E94C9021092BD0288E190E020E477
:103C80000FB6F894A895809360000FBE2093600053
:103C900083B7817F846083BF83B7816083BF78945B
:103CA000889583B78E7F83BF0FB6F894A8958091CF
:103CB0006000886180936000109260000FBE0895DC
:103CC0000E943E060E94CE02089582E084BD93E0E9
:103CD00095BD9AEF97BD80936E0008952FB7F89425
:103CE0008091E0029091E102A091E202B091E302A2
:103CF0002FBF08952FB7F8946091E0027091E10210
:103D00008091E2029091E3022FBF08959C014FB78A
:103D1000F8948091E0029091E102A091E202B091CA
:103D2000E3024FBF821B930B0895CF92DF92EF9275
:103D3000FF922FB7F894C090E002D090E102E0909B
:103D4000E202F090E3022FBFA7019601261B370B7A
:103D5000480B590BCA01B901FF90EF90DF90CF904B
:103D6000089578941F921FB61F9211248F939F93EA
:103D7000AF93BF938091E0029091E102A091E202A3
:103D8000B091E3020196A11DB11D8093E0029093D2
:103D9000E102A093E202B093E302BF91AF919F9141
:103DA0008F911F901FBE1F90189587E797E79093FC
:103DB00001088093000888E19AE00FB6F894A8956E
:103DC000809360000FBE90936000FFCF88E19AE07F
:103DD0000FB6F894A895809360000FBE9093600092
:103DE000FFCF8EE14A9B02C08150E1F74A9BFECF94
:103DF00008955A9880E28A95F1F75A9A0895FC013D
:103E00003BE03A95F1F798E020E080E031E040E1D6
:103E10004A95F1F7880F4A9B02C08160232742E050
:103E20004A95F1F7000040E14A95F1F7915079F792
:103E300090E19A95F1F799B132E03A95F1F70000E7
:103E400040E14A95F1F792FB992790F9922720815A
:103E5000920F90830895A1E0B0E0E1E3FFE10C94BC
:103E6000082819828C017C01E60EF11C0E151F0535
:103E700041F481E09981911180E02196E6E00C9473
:103E800024280E94F11ECE0101960E94FF1EF80117
:103E900081938F01EBCF529A5A9A089552985A9A69
:103EA000EA9AE9E6F0E080818F7C80830895615092
:103EB000770B91E001C0990F6A95EAF720E031E0B5
:103EC000911108C0222391F05A9A80E28A95F1F765
:103ED0005A980895492F482339F05A9A232740E2E7
:103EE0004A95F1F79695ECCF5A98F9CF5A98EDCFBD
:103EF000FF920F931F93CF93DF93EC018C01060F7A
:103F0000111DC017D10729F4CDB7DEB7E5E00C9439
:103F10002528F9900E94F91E68E08F2D0E94571FF6
:103F2000F0CF1F920F920FB60F9211240F931F9391
:103F30002F933F934F935F936F937F938F939F93B1
:103F4000AF93BF93EF93FF93CF93DF930F92CDB7D0
:103F5000DEB719820E94F11ECE0101960E94FF1E5B
:103F6000082F069506950695282F22952570902FE7
:103F70009570290F922F937026952695920F98276A
:103F800097708981982B09F05CC0043008F059C003
:103F900080E18A95F1F75A9A529A82E08A95F1F770
:103FA00000C05A9888E0089F80011124D801AB5FB7
:103FB000BE4F1696ED91FC9117973097A9F060913E
:103FC000AE017091AF0114962D913C911597260F7B
:103FD000371F11968D919C911297680F791F139638
:103FE0004C9113978C910995F801EB5FFE4F63811B
:103FF000662351F02091AE013091AF01848195810B
:10400000820F931F0E94781F0E94F91E80E18A95FB
:10401000F1F75A9852985A9A80E18A95F1F7F80187
:10402000EB5FFE4F6081662351F02091AE0130912D
:10403000AF0181819281820F931F0E942B1F0E94EA
:10404000F11E0F90DF91CF91FF91EF91BF91AF9152
:104050009F918F917F916F915F914F913F912F91A0
:104060001F910F910F900FBE0F901F9018950F93F7
:104070001F93CF93DF93EC0104970CF04CC0F8949E
:10408000529A5A9885E08A95F1F700009C2F9695F0
:1040900095708C2F8570980F892F837096959695C3
:1040A00023E0CC0FDD1F2A95E1F7980F8E01092B35
:1040B0000E94F91E00C068E0802F0E94571F80E117
:1040C0008A95F1F752985A9A4A9B1EC087E090E071
:1040D0004A991CC0FE01EB5FFE4F63816623F9F035
:1040E0002091AE013091AF0184819581820F931FA1
:1040F0000E942B1F811113C0529A5A9A7894DF9113
:10410000CF911F910F91089500C0DECF019729F440
:10411000529A5A9A789480E0F2CF00C0D9CF0E9488
:10412000F11E80E28A95F1F75A98529A80E18A95B9
:10413000F1F7CB5FDE4F6881662351F02091AE012D
:104140003091AF0189819A81820F931F0E94781F5D
:104150000E94F91E789481E0D2CF8091C602089522
:104160009B01BA019091E8029430E9F48F7080933A
:10417000E9009FEF8091E800915085FD06C085ED34
:104180008A95F1F700009111F5CF8091E80085FF45
:104190000AC050E040E0C9010E94F3228091E8008B
:1041A0008E778093E800089543E050E0BC0184E0FE
:1041B0000E94B020089546E050E0BC0184E00E94D7
:1041C000B020089540E250E0BC0184E00E94B0209D
:1041D0000895CF93DF93EC0148E050E0BC0181E00B
:1041E0000E94B02088E0FE01AEEBB2E001900D929B
:1041F0008A95E1F7DF91CF910895603231F440E282
:1042000050E0BC0182E00E94B02008958091E70256
:10421000811109C00E94D2240E942F258091E200C2
:1042200084608093E20008951092E70208950E944E
:10423000E01D08956091E40281E0611101C080E019
:104240000E94D71D08959091E80281E0943009F012
:1042500080E06091E4020E94DD1D089542E061EC7F
:1042600081E00E944E2442E261EC84E00E944E24F0
:1042700042E261EC82E00E944E2442E260EC83E084
:104280000E944E249091E80281E0943009F080E091
:104290006091E4020E94CD1D08958091EA0283306E
:1042A00009F463C030F48130E1F1823009F4A0C038
:1042B00008958A3009F48CC08B3009F471C08930BC
:1042C00009F052C08091E902813209F04DC080911D
:1042D000ED029091EE02009719F0029709F044C0A8
:1042E0008091E800877F8093E8008091E80082FF5A
:1042F00037C09091F3008091F200029731F48091E1
:10430000F100813011F0863021F48091F10080932A
:10431000C6028091E8008B778093E8000E94822497
:1043200023C08091E902813AF9F48091E800877F07
:104330008093E8008091ED029091EE02892B61F468
:1043400068E08EEB92E070E00E9491238091E8009B
:104350008B778093E800089560E090E080E0F3CFF1
:104360008091E8028111C1CF08958091E902813ADC
:10437000D9F78091ED029091EE02892BA9F78091F7
:10438000E800877F8093E8008091E80080FFFCCF01
:10439000809132018093F1008091E8008E77BCCF4C
:1043A0008091E902813201F78091ED029091EE0255
:1043B000892BD1F68091E800877F8093E8000E94E6
:1043C00082248091EB02809332010E943E06089580
:1043D0008091E902813241F68091E800877F8093E5
:1043E000E8000E9482248091EC028093C702089525
:1043F0008091E902813A09F0B7CF8091E800877F88
:104400008093E8008091E80080FFFCCF8091C70294
:10441000C1CF84B7877F84BF0FB6F894A8958091E9
:104420006000886180936000109260000FBE80E899
:1044300090E00FB6F89480936100909361000FBEF6
:104440000E94E61D08950E94D2240E942F25E2EECC
:10445000F0E080818460808378940E94AE27089584
:1044600088E291E00E941F1C08958091E802853047
:1044700031F48091E802853019F00E94601E0895A1
:104480000E94351E8091E602882399F30E94F31D55
:10449000882379F30E94DD220E943E06EACFA0E243
:1044A000B0E0E5E5F2E20C940C288091E80284305B
:1044B00009F583E08093E9008091E80082FF1AC04B
:1044C0008091E80090E085FF09C050E040E060E2A4
:1044D00070E0CE0101960E94422391E08091E800B5
:1044E0008B778093E800992329F060E2CE01019652
:1044F0000E94521BA096E2E00C9428289A01409159
:10450000EF025091F0020E9486220895492F55270C
:104510004330510521F168F44130510509F443C09D
:104520004230510509F444C090E080E050E040E0A2
:1045300026C04132510551F142325105A9F763308D
:10454000710590F7FB01EE0FFF1FED54FE4F408108
:10455000518160557E4FFB01808190E010C099270A
:104560008130910581F0009729F00297E9F6ECEA95
:10457000F1E002C0EAECF1E0849190E0AF01F901D2
:10458000518340830895EEEBF1E0F6CF633071057F
:1045900058F6660F771FFB01E754FE4F40815181AB
:1045A00089E090E0ECCF82E190E049E252E0E7CF91
:1045B0008BE590E04EEC51E0E2CF80E189BD82E1F5
:1045C00089BD09B400FEFDCF8091D8008F7D809316
:1045D000D8008091E00082608093E0008091E0004C
:1045E00081FDFCCF0895AF92BF92CF92DF92FF92F0
:1045F0000F931F93CF93DF936C01EB018A010E940D
:10460000A124F82E811123C00115110539F0F801FC
:1046100080819181C81BD90BC80ED91EB12CA12C49
:104620002097A9F08091E80085FD22C08091E800E4
:104630008E778093E80001151105A1F0F8018081C3
:104640009181A80EB91EB182A08285E0F82E8F2D2F
:10465000DF91CF911F910F91FF90DF90CF90BF908E
:10466000AF9008950E94A1248823D1F2F82EEFCFB5
:10467000F60181916F018093F1002197FFEFAF1A4E
:10468000BF0ACECFAF92BF92CF92DF92FF920F932D
:104690001F93CF93DF936C01EB018A010E94A12449
:1046A000F82E811123C00115110539F0F801808120
:1046B0009181C81BD90BC80ED91EB12CA12C2097F3
:1046C000A9F08091E80085FD22C08091E8008B77F9
:1046D0008093E80001151105A1F0F8018081918116
:1046E000A80EB91EB182A08285E0F82E8F2DDF9131
:1046F000CF911F910F91FF90DF90CF90BF90AF901F
:1047000008950E94A1248823D1F2F82EEFCF809142
:10471000F100F60181936F012197FFEFAF1ABF0AF5
:10472000CECFFC018091EF029091F002861797079F
:10473000A0F06115710529F49091E8009E7790939F
:10474000E80090E06115710551F4911108C0809165
:10475000E80082FF34C080E00895BC01F2CF809170
:10476000E8028823C1F18530C1F18091E80083FD22
:1047700030C08091E80082FDEACF8091E80080FFA0
:10478000E1CF8091F3002091F200382F611571057F
:1047900019F02830310558F091E02830310509F042
:1047A00090E02091E8002E772093E800CBCF819114
:1047B0008093F100615071092F5F3F4FE7CF8091E7
:1047C000E802882341F0853041F08091E80083FFC2
:1047D000BECF81E0089582E0089583E00895FC0152
:1047E0008091EF029091F00286179707A0F0611573
:1047F000710529F48091E8008E778093E80090E0BD
:104800006115710551F4911108C08091E80082FF93
:1048100035C080E00895BC01F2CF8091E802882382
:10482000C9F18530C9F18091E80083FD31C08091E4
:10483000E80082FDEACF8091E80080FFE1CF80911F
:10484000F3002091F200382F6115710519F028301E
:10485000310558F091E02830310509F090E0809161
:10486000E8008E778093E800CBCF84918093F100AD
:104870003196615071092F5F3F4FE6CF8091E8027A
:10488000882341F0853041F08091E80083FFBDCF5F
:1048900081E0089582E0089583E00895982F97308D
:1048A00028F08F708093E90081E008959093E900EB
:1048B000242F762F50E0981731F07091EC00209162
:1048C000ED005091F00021FD02C09F5FE8CF3091D4
:1048D000EB003E7F3093EB003091ED003D7F309355
:1048E000ED003091EB0031603093EB007093EC0001
:1048F0002093ED005093F0002091EE0027FDE5CFCE
:1049000080E008958091E90287FF13C08091E8005C
:1049100082FF06C08091E8008B778093E80004C096
:104920008091E8028111F2CF08958091E8028823F6
:10493000D9F38091E80080FFF8CF8091E8008E776E
:10494000ECCF2091E4003091E50095E6A90120919B
:10495000EC00822F817020FF06C08091E80080FF6C
:1049600006C080E008952091E80022FD1AC08091E1
:10497000E802882389F0853089F08091EB0085FD7D
:104980000FC02091E4003091E50042175307F9F27F
:104990009150E1F684E0089582E0089583E008955F
:1049A00081E008950E9441250E944925E0EEF0E053
:1049B000808181608083E8EDF0E080818F77808363
:1049C00019BCA7EDB0E08C918E7F8C9380818F7E97
:1049D00080831092E70208950F931F93CF93DF9384
:1049E0000E9441250E944925C8EDD0E088818F773B
:1049F000888388818068888388818F7D888319BCBB
:104A00001092E8021092E4021092E6021092E5027F
:104A100000EE10E0F80180818B7F808388818160C7
:104A2000888342E060E080E00E944E24E1EEF0E006
:104A300080818E7F8083E2EEF0E0808181608083E0
:104A4000808188608083F80180818E7F8083888167
:104A500080618883DF91CF911F910F910895E8EDD8
:104A6000F0E080818F7E8083E7EDF0E080818160DF
:104A7000808384E082BF81E08093E7020E94EC247F
:104A80000895E8EDF0E080818E7F80831092E2004F
:104A900008951092DA001092E10008951F920F928B
:104AA0000FB60F9211242F933F934F935F936F9301
:104AB0007F938F939F93AF93BF93EF93FF938091D7
:104AC000E10082FF0BC08091E20082FF07C080916D
:104AD000E1008B7F8093E1000E94AD278091DA0096
:104AE00080FF19C08091D80080FF15C08091DA0046
:104AF0008E7F8093DA008091D90080FF96C080E19C
:104B000089BD82E189BD09B400FEFDCF81E08093BB
:104B1000E8020E9406218091E10080FF19C0809187
:104B2000E20080FF15C08091E2008E7F8093E2005A
:104B30008091E20080618093E2008091D8008062E1
:104B40008093D80019BC85E08093E8020E941A2166
:104B50008091E10084FF2BC08091E20084FF27C098
:104B600080E189BD82E189BD89B5982F917080FF70
:104B7000FBCF8091D8008F7D8093D8008091E10099
:104B80008F7E8093E1008091E2008F7E8093E2002F
:104B90008091E20081608093E2008091E4028823AA
:104BA00009F449C084E08093E8020E9423218091A7
:104BB000E10083FF29C08091E20083FF25C080913E
:104BC000E100877F8093E10082E08093E802109209
:104BD000E4028091E1008E7F8093E1008091E20009
:104BE0008E7F8093E2008091E20080618093E200FA
:104BF00042E060E080E00E944E248091F0008860F6
:104C00008093F0000E941721FF91EF91BF91AF9127
:104C10009F918F917F916F915F914F913F912F91D4
:104C20000F900FBE0F901F90189519BC1092E802BC
:104C30000E94142170CF8091E30087FD93E0909350
:104C4000E802B3CF1F920F920FB60F9211242F9349
:104C50003F934F935F936F937F938F939F93AF9304
:104C6000BF93CF93DF93EF93FF93D091E900DF7071
:104C70008091EC00C82FC17080FDC0E81092E9005F
:104C80008091F000877F8093F00078940E946626E0
:104C90001092E9008091F00088608093F000CD2BA5
:104CA000CF70C093E900FF91EF91DF91CF91BF9159
:104CB000AF919F918F917F916F915F914F913F91B4
:104CC0002F910F900FBE0F901F901895AAE2B0E0A1
:104CD000ECE6F6E20C940B2889EE92E02091F100CC
:104CE000FC012193CF01F2E0813F9F07B9F70E94B9
:104CF0004D218091E80083FF1EC18091E9029091CF
:104D0000EA029A3008F017C1E92FF0E0E750F74DBA
:104D10000C94EF27803899F0823809F00CC180910B
:104D2000ED028F70873008F006C18093E900809112
:104D3000EB0085FB882780F91092E90006C080917E
:104D4000E5029091E602911182609091E800977FD0
:104D50009093E8008093F1001092F1008091E800B8
:104D60008E77E5C0882309F4D3C0823009F0E3C010
:104D70008091EB028111D6C08091ED028F702FEFF0
:104D8000280F263008F0D7C08093E9002091EB006F
:104D900020FFC8C0933031F48091EB008062809393
:104DA000EB00C0C09091EB0090619093EB0021E08C
:104DB00030E001C0220F8A95EAF72093EA001092B2
:104DC000EA008091EB008860EACF8111B4C01091B5
:104DD000EB021F778091E3008078812B8093E300C2
:104DE0008091E800877F8093E8000E948224809170
:104DF000E80080FFFCCF8091E30080688093E300AF
:104E000082E0111183E08093E80295C080588230DF
:104E100008F091C08091EB029091EC028C3D23E070
:104E20009207A1F583E08A838AE289834FB7F894D9
:104E3000DE01139620E03EE051E2E32FF0E05093D4
:104E40005700E49120FF03C0E295EF703F5FEF70E1
:104E50008E2F90E0EA30C0F0C7968D939D932F5F20
:104E6000243159F74FBF8091E800877F8093E80095
:104E70006AE270E0CE0101960E9491238091E800E1
:104E80008B778093E80057C0C096E7CF6091ED0222
:104E90007091EE02AE014F5F5F4F0E947E22BC0117
:104EA000892B09F448C09091E800977F9093E8001F
:104EB00089819A810E94EF23E1CF8038E1F58091CA
:104EC000E800877F8093E8008091E4028093F100FE
:104ED00045CF811130C09091EB02923060F5809106
:104EE000E800877F8093E8009093E4020E94822488
:104EF0008091E402882311F084E005C08091E300F2
:104F000087FDFACF81E08093E8020E942E2113C032
:104F10008091EB02813079F481E0933009F080E0F8
:104F20008093E6021092E9008091E800877F8093E9
:104F3000E8000E9482248091E80083FF0AC08091EB
:104F4000E800877F8093E8008091EB008062809387
:104F5000EB00AA96E3E00C9427280895CF93809164
:104F6000E8028823A1F0C091E900CF709091EC0095
:104F7000892F817090FD80E8C82B1092E900809104
:104F8000E80083FD0E946626CF70C093E900CF91B0
:104F900008950E94D2241092E8020895E8EDF0E00E
:104FA0008081806180838AE18A95F1F700C08091D9
:104FB000D9008170089597FB072E16F4009407D04E
:104FC00077FD09D00E94332807FC05D03EF4909568
:104FD00081959F4F0895709561957F4F0895EE0FCD
:104FE000FF1F0590F491E02D099469279627692702
:104FF00078278727782708952F923F924F925F92C4
:105000006F927F928F929F92AF92BF92CF92DF92D8
:10501000EF92FF920F931F93CF93DF93CDB7DEB73D
:10502000CA1BDB0B0FB6F894DEBF0FBECDBF0994D1
:105030002A88398848885F846E847D848C849B8428
:10504000AA84B984C884DF80EE80FD800C811B8136
:10505000AA81B981CE0FD11D0FB6F894DEBF0FBE65
:10506000CDBFED010895AA1BBB1B51E107C0AA1FCC
:10507000BB1FA617B70710F0A61BB70B881F991FF9
:105080005A95A9F780959095BC01CD010895FB0133
:10509000DC0104C08D910190801921F441505040F1
:1050A000C8F7881B990B0895FB01DC0102C0019031
:1050B0000D9241505040D8F70895F999FECF92BD16
:1050C00081BDF89A992780B50895A8E1B0E042E043
:1050D00050E00C94A128DC01A40FB51F41505040B2
:1050E00048F0CB01840F951F2E910E947C284150DF
:1050F0005040D0F70895262FF999FECF92BD81BD7B
:10510000F89A019700B4021639F01FBA20BD0FB605
:10511000F894FA9AF99A0FBE08950396272F0E94E1
:105120007C280E947B28252F0E947C28242F0C9409
:105130007C280196272F0E947C280C947B28DC0178
:10514000CB01FC01F999FECF06C0F2BDE1BDF89A92
:10515000319600B40D9241505040B8F70895F8943C
:10516000FFCF4104410491049104F6041205700438
:10517000700417057E058D058D05041678160C162E
:10518000D615DA151016DE1514162016EA15711646
:10519000EE152416F21528165016F6152C1657166D
:1051A000FC1532163A16E2151816E6151C160016EE
:1051B0003616461660166F16D01508167F16621A38
:1051C000681A511A5C1A6E1A741A7A1A671B731BC2
:1051D000A91BBB1BC61BD11BD41BD41BD41B791B07
:1051E000791BD91BDD1BE51BF21BFF1B021C051CD9
:1051F000121C8A26B2269B27B2269B27E526062765
:065200009B275D276927D2
:1052060045026502010000000100000000000000E8
:1052160004010000000405000000000000280850FA
:10522600011E0A1401030201AD20E920E220DB2061
:10523600D42001E200E900EA00B500B600B700CDCF
:10524600008301CC008A01920194012102230224E9
:10525600022502260227022A02B300B4006F00705C
:10526600009F01CB019F02A002818283E200E90038
:10527600EA00B500B600B700CD008301CC008A0174
:10528600920194012102230224022502260227020A
:105296002A02B300B4006F0070009F01CB019F0289
:1052A600A002818283F5F633363235F633328B022D
:1052B6004422B613033B025D02E001F90119020024
:00000001FF
