:100000000C9444030C948B030C948B030C948B037F
:100010000C948B030C948B030C948B030C948B0328
:100020000C948B030C948B030C94B9290C948B2A9D
:100030000C9451240C948B030C948B030C948B0321
:100040000C948B030C948B030C948B030C948B03F8
:100050000C948B030C94AA240C948B030C948B03A8
:100060000C948B030C948B030C948B030C948B03D8
:100070000C948B030C948B030C948B030C948B03C8
:100080000C948B030C948B030C948B030C948B03B8
:100090000C948B030C948B030C948B030C948B03A8
:1000A0000C948B030C948B030C948B032807280768
:1000B0005A075A07A707C507A808A808D00738088D
:1000C00049084908480948095A095A0951095A0969
:1000D0005A095A094809480956095A095A09560934
:1000E000011F041F241F351F3D1F481F4B1F4E1F9C
:1000F000511F971F971F541F571F5C1F691F761FA3
:10010000791F7D1F8A1FF82A1F2B172C1F2B172CD6
:100110006B2B8E2B172CE52BF42B07634236B79BEA
:10012000D8A71A39685618AEBAAB558C1D3CB7CC57
:100130005763BD6DEDFD753EF6177231BF000000CF
:10014000803F05A84CCDB2D44EB93836A9020C5028
:10015000B9918688083CA6AAAA2ABE000000803F62
:10016000000000000000000014001A000800150044
:100170001700000000000000000004001600070047
:1001800009000A0000000000000000001D001B0024
:100190000600190005000000000000000000E0005B
:1001A000E300E2002C412C001C000B0011002C424B
:1001B0000000000000000000000018000D0010000A
:1001C0005000000000000000000000000C000E00C5
:1001D0003600510000000000000000000000120086
:1001E0000F00370052000000000000000000000077
:1001F00013002D0028004F45000000000000000003
:10020000000000000000000000001E001F00200091
:100210002100220000000000000000001E021F025A
:10022000200221022202000000000000000057000E
:100230005600550054006700000000000000000058
:100240002B0049002C002C002C41230023023500F8
:100250002C420000000000000000000024002402E6
:100260008900E00000000000000000000000250000
:1002700025022F12E3000000000000000000000033
:10028000260026023012E2000000000000000000FC
:100290000000270027022D122A00000000000000A5
:1002A0000000000000000000000000003A003B00D9
:1002B0003C003D003E0000000000000000001F0266
:1002C0003100330033123400000000000000000051
:1002D000C25CC35CC55CC65CC75C0000000000007B
:1002E00000002B0049002C002C002C413F00500046
:1002F000C85C2C420000000000000000000040002C
:100300005100C95CE0000000000000000000000097
:10031000410052002F00E300000000000000000038
:10032000000042004F003000E2000000000000002A
:100330000000000043002E0031002A0000000000F1
:1003400000000000000000000000000000002A2B58
:100350002800000000000000000000000000000075
:100360000029000000002C1E3420212224342627DE
:10037000252E362D3738271E1F20212223242526FF
:100380003333362E37381F0405060708090A0B0CCD
:100390000D0E0F101112131415161718191A1B1C15
:1003A0001D2F3130232D350405060708090A0B0CD3
:1003B0000D0E0F101112131415161718191A1B1CF5
:1003C0001D2F3130354C00000000000000000000FF
:1003D000000000000000000000000000000000001D
:1003E000000000000000000000007E0F00D4FFFFAE
:1003F000FFC70000007800047F3F1F64321464329E
:1004000014783C1E1E140A05FFAA7F554000010106
:1004100001010101010101020202020202020202C3
:100420000303030303030303040404040404040593
:100430000505050506060606060707070707080857
:100440000808090909090A0A0A0B0B0B0C0C0C0D08
:100450000D0D0E0E0E0F0F0F1010111111121213A1
:10046000131414151516161717181819191A1A1B1C
:100470001B1C1D1D1E1E1F2020212222232424257B
:100480002626272829292A2B2C2D2D2E2F303132B4
:1004900032333435363738393A3B3C3D3E3F4041C4
:1004A00042434445464748494A4C4D4E4F505153AC
:1004B00054555658595A5B5D5E5F61626465666863
:1004C000696B6C6D6F7072737577787A7B7D7E80E7
:1004D00082838587888A8C8E8F91939596989A9C33
:1004E0009EA0A2A3A5A7A9ABADAFB1B3B5B7BABC47
:1004F000BEC0C2C4C6C9CBCDCFD1D4D6D8DBDDDF18
:10050000E2E4E7E9EBEEF0F3F5F8FAFDFF1403633C
:10051000006F006F006C003600340030007800324D
:100520000000001403740065006C007A006F003254
:100530000030003000300000000403090409025BB1
:1005400000030100A0FA09040000010301010009F1
:1005500021110100012240000705810308000A095A
:100560000401000203000000092111010001222200
:10057000000705820320000107050303200001098D
:100580000402000103000000092111010001227B87
:10059000000705840320000A120100020000000881
:1005A000434D42060100010200010660FF0961A1FE
:1005B000010962150026FF00952075088102096374
:1005C000150026FF00952075089102C0050109025B
:1005D000A10185020901A1000509190129081500D9
:1005E0002501950875018102050109300931158140
:1005F000257F95027508810609381581257F9501AB
:1006000075088106050C0A38021581257F9501754C
:10061000088106C0C005010980A101850319012ACE
:10062000B700150126B700950175108100C0050CB3
:100630000901A101850419012AA002150126A002C1
:10064000950175108100C005010906A10105071972
:10065000E029E715002501950875018102950175CE
:100660000881010507190029FF150026FF009506DE
:100670007508810005081901290595057501910284
:10068000950175039101C00011241FBECFEFDAE080
:10069000DEBFCDBF04B603FE27C08091F10290916A
:1006A000F202A091F302B091F4028730904BA74080
:1006B000B04BD1F41092F1021092F2021092F302B8
:1006C0001092F40214BE84B7877F84BF0FB6F894EB
:1006D000A89580916000886180936000109260000E
:1006E0000FBEE0E0F8E3099511E0A0E0B1E0E0E042
:1006F000F1E602C005900D92A83CB107D9F722E0BF
:10070000A8ECB1E001C01D92A13FB207E1F70E9441
:10071000C0130C947E300C94000081E0089581E0B9
:1007200008950C948F0308950C9493031F93CF9313
:10073000DF9300D000D01F92CDB7DEB749835A8334
:100740006B833091CA0189819A81311114C066236B
:1007500059F0222349F00E943E0A182F682F898100
:100760009A810E94E70903C00E94120A182F69812A
:100770007A81812F04C00E943E0A69817A810F909C
:100780000F900F900F900F90DF91CF911F910C94CD
:100790006920FC01262F408151816281738184810F
:1007A0000C94960381E00895CF93DF93EC0160E011
:1007B0000E94C903BE01DF91CF910C949403E1E044
:1007C000F0E0DF0102C0AA0FBB1F6A95E2F7BD018E
:1007D000DF0102C0AA0FBB1F4A95E2F7AD01462B0D
:1007E00001C0EE0F2A95EAF7942F9823491302C00F
:1007F0008E2B0895E0958E230895242F462F682F81
:100800008091EC010E94DF030C94A4090E94431222
:100810000E9457050C9476120C94721208950E944F
:1008200036090E940E042FEF84E39CE021508040A3
:100830009040E1F700C000000C94D0240F931F9368
:10084000CF93DF938C0161E00E94C903EC01B801F2
:100850000E94591E882309F44BC0B801CE010E94A2
:100860009103882309F444C0B801CE010E949E215F
:100870008823F1F1B801CE010E94F0218823C1F153
:10088000B801CE010E942223882391F1B801CE0144
:100890000E94051D882361F1F8018281882309F1F6
:1008A000CA358DE5D807C1F050F4C115FCE5DF0766
:1008B00081F0CE3DDC45A9F40E94390F19C0CB353B
:1008C000EDE5DE0761F0CC35DD4559F40E94CB0D36
:1008D00008C00E940F040CC00E94D40D02C00E94E8
:1008E000D70DC801DF91CF911F910F910C948D030B
:1008F00080E0DF91CF911F910F910895DF92EF92E9
:10090000FF920F931F93CF93DF93E82FF0E0EA5B02
:10091000FC4FD490282F26952695269530E0F90196
:10092000EA51FC4F0491877010E0082E02C0159523
:1009300007950A94E2F701701127F901EA52FC4F7A
:10094000E490F12C082E02C0F594E7940A94E2F7A3
:1009500091E0E922FF24F901EA53FC4FC491D0E071
:1009600002C0D595C7958A95E2F7C170DD270115BC
:10097000110519F081EE0E94B105E114F10419F09E
:1009800086EE0E94B1058D2D0E94DA06EF2819F03F
:1009900086EE0E945B06012B19F081EE0E945B0639
:1009A000CD2B51F08CE2DF91CF911F910F91FF90F1
:1009B000EF90DF900C94DA06DF91CF911F910F91A9
:1009C000FF90EF90DF900895EF92FF920F931F93A7
:1009D000CF93DF93EC01162F0AE08881882309F476
:1009E00055C0813009F043C08981813041F47E01D6
:1009F00082E0E80EF11C8A810E94DA0609C082308A
:100A000049F47E01E2E0EE0EF11C8A810E94B105FC
:100A1000E7012FC0833041F47E01F2E0EF0EF11CBC
:100A20008A810E945B06F4CF843011F0219621C0A8
:100A30002A81229680E090E030E0205331092A306C
:100A4000310558F4089FA001099F500D1124C901D8
:100A5000840F951F21962881EFCF009751F0EFE981
:100A6000FFE03197F1F700C000000197F6CF0E9438
:100A70007E042196812F882309F4AFCFEFE9FFE0B0
:100A80003197F1F700C000008150F5CFDF91CF9191
:100A90001F910F91FF90EF90089560E00C94E40493
:100AA00008950C94500581E008950C945305089521
:100AB000CF93C82F0E9451058C2F0E945505CF91CE
:100AC0000895CF93DF93CDB7DEB72B970FB6F89489
:100AD000DEBF0FBECDBF4F83588769877A878B876C
:100AE00061110E94FA0D9E012F5F3F4F86E0F901D0
:100AF00011928A95E9F785E0FE013796D9010190B8
:100B00000D928A95E1F789819A814C815D81452B0F
:100B100031F09F3F31F491E08F3F19F403C091E031
:100B200001C090E090FF09C049815A816B817C81AE
:100B30008D819E810E94FA0C05C0C9010E94D203DA
:100B40008111F2CF2B960FB6F894DEBF0FBECDBF4A
:100B5000DF91CF910895FC01808191810E946B0A01
:100B60000895CF93882309F4A4C0C82F8238C1F414
:100B70000E94582381FD9DC069E3809100019091FE
:100B800001010E94EB230E941F0E2FEF81EE94E0E3
:100B9000215080409040E1F700C0000069E319C097
:100BA000833801F50E94582380FD83C063E580915E
:100BB0000001909101010E94EB230E941F0E2FEF74
:100BC00081EE94E0215080409040E1F700C00000A9
:100BD00063E580910001909101010E94ED23CF9186
:100BE0000C941F0E8438C1F40E94582382FD61C00A
:100BF00067E480910001909101010E94EB230E9423
:100C00001F0E2FEF81EE94E0215080409040E1F7DD
:100C100000C0000067E4DDCF8CEF8C0F813AD0F488
:100C20006C2F80910001909101010E94B5238823CF
:100C300049F06C2F80910001909101010E94ED23F9
:100C40000E941F0E6C2F80910001909101010E9463
:100C5000EB23C5CF80E28C0F883048F4C77081E069
:100C600001C0880FCA95EAF70E94DD0DB8CFEBE509
:100C7000EC0FE33040F4F0E0EA5AFE4F808190E060
:100C8000CF910C947D23E8E5EC0FE73150F4F0E0D0
:100C9000EE0FFF1FE85DFE4F80819181CF910C9494
:100CA0009323C03F30F08C2F0E944D14CF910C94B1
:100CB0001F15CF910895882309F464C0823879F410
:100CC0000E94582381FF5EC069E3809100019091EA
:100CD00001010E94EB230E941F0E69E310C08338BC
:100CE000B1F40E94582380FF4DC063E5809100015C
:100CF000909101010E94EB230E941F0E63E58091F9
:100D00000001909101010E94ED230C941F0E843884
:100D100079F40E94582382FF35C067E48091000176
:100D2000909101010E94EB230E941F0E67E4E7CF20
:100D30009CEF980F913A10F4682FE1CF90E2980F52
:100D4000983050F4877091E001C0990F8A95EAF7C6
:100D5000892F0E94E30DD9CF9BE5980F933020F4A3
:100D600080E090E00C947D2398E5980F973120F473
:100D700080E090E00C949323803F20F00E94A81420
:100D80000C941F1508951F93CF93DF93182FEB0139
:100D90000E94B105209741F08FE99FE00197F1F79C
:100DA00000C000002197F6CF812FDF91CF911F91D6
:100DB0000C945B06893319F060E070E002C060E5D6
:100DC00070E00C94C306882321F00E94DD0D0C9482
:100DD0001F0E0895882321F00E94E30D0C941F0E2E
:100DE0000895CF92DF92EF92FF920F931F93CF93CC
:100DF000DF937C01062FC72FFC01D281158112954C
:100E00001F700E94B20D882399F0DD2389F08C2F8A
:100E1000807F803421F080E2800F883048F082E0CB
:100E20000E946F0E0E94B20D91E0D82ED92601C00B
:100E3000D12CCC2EC2948FE0C8228C2D90E08C3027
:100E4000910508F085C1FC01EA5AFF4F0C94DE2F92
:100E50008C2F807FCF70882311F0C295C07FDD2357
:100E600099F0CC2309F460C180E2800F883010F043
:100E7000011104C08C2F0E94DD0D03C08C2F0E9435
:100E8000ED0D0E941F0E50C1802F0E945B06CC23E7
:100E900009F45EC180E2800F883010F0011104C0B7
:100EA0008C2F0E94E30D03C08C2F0E94F30D0E9433
:100EB0001F0E4EC18C2F807FCF70803211F0C295F3
:100EC000C07F002319F00130C9F022C0DD2371F08A
:100ED000112341F0113031F40E94000E8C2B0E943E
:100EE000080E36C10E94000E8C2B1DC0112319F074
:100EF000113009F42DC10E94150E25C0DD2321F00B
:100F0000163008F025C10EC0153008F021C11BC0F5
:100F1000DD2361F0112331F0F701858180FF04C1E9
:100F20008F7085838C2F0E94E30612C1112359F024
:100F3000093309F00AC1FFEF27EE83E0F1502040AA
:100F40008040E1F700C18C2F0E94EA0601C18C2F7E
:100F500086958695837019F0813061F0F9C0DD23A4
:100F600021F0802F9C2F937002C080E090E00E94BF
:100F70007D23F6C0DD2321F0802F9C2F937002C0CB
:100F800080E090E00E949323EBC0802FDD2319F0D6
:100F90000E944D1402C00E94A8140E941F15E0C0B8
:100FA0008C2F837079F5D111D7C0402F429546958B
:100FB0004770440F440F202F2F70042E01C0220FC2
:100FC0000A94EAF704FF08C08FE090E001C0880FA0
:100FD0004A95EAF7809501C080E0C695C695C37032
:100FE000822BC23049F058F4C13019F00E949809A0
:100FF000B3C00E949309B0C00E949D09ADC00E9479
:101000009109AAC0DD2319F08C2F817001C086954B
:10101000882309F4A1C0402F429546954770440F9C
:10102000440F202F2F70042E01C0220F0A94EAF7DC
:1010300004FF08C08FE090E001C0880F4A95EAF7EE
:10104000809501C080E0C695C695C370822BC230E2
:1010500049F058F4C13019F00E94DC097DC00E94AB
:10106000D7097AC00E94E10977C00E94A40974C020
:10107000CF70DD2339F08C2F0E94B509802F0E949C
:10108000E3066AC0802F0E94EA068C2F0E94C009E6
:1010900063C0023F01F128F4003F41F0013FA1F09D
:1010A0003FC0033FF9F0043F39F13AC0DD2341F07E
:1010B000153008F04DC08C2F8F710E94CC0948C0AC
:1010C000163008F045C0F7CFDD2339F08C2F8F7133
:1010D0000E94B5093DC0DD23C9F38C2F8F710E949A
:1010E000C00936C0DD2329F08C2F8F710E94AD0915
:1010F0002FC00E94AA092CC0DD2349F0CF718C2F8C
:101100000E94B50963E08C2F0E94540E21C081E03B
:101110000E946F0E1230E0F082E00E946F0E18C045
:10112000DD2331F0112391F2802F0E94B10510C010
:10113000112399F2093349F49FEFE7EEF3E0915060
:10114000E040F040E1F700C00000802F0E945B0605
:1011500088EF8C0D843020F40E9458230E9458059B
:10116000DD20C9F00E94AE0D80FD15C0F70112828E
:101170000E94A80D0E94B509C7010E94EC080E94B8
:10118000A80DDF91CF911F910F91FF90EF90DF900D
:10119000CF900C94C009DF91CF911F910F91FF90D8
:1011A000EF90DF90CF9008950F931F93CF93DF932D
:1011B000EC01688179818A810E94760A8C010E9403
:1011C000E6090E948509B801CE010E94F106DF916F
:1011D000CF911F910F910895CF93DF93EC019881E8
:1011E00089812B813C81232B31F08F3F31F481E0C9
:1011F0009F3F19F403C081E001C080E080FD19C069
:10120000CE010E941E0481110CC00E94B20D8823E1
:1012100081F08A81882369F082E0DF91CF910C947C
:101220006F0ECE010E94D408CE01DF91CF910C94B5
:10123000D403DF91CF91089580E090E00E947D2358
:1012400080E090E00E9493230E94FA0D0E94FD0D21
:101250000E941F0E0E9450160C941F1580910001D1
:10126000909101010E94EF230C941C090E94EA0D49
:101270000C942E09E92FE295EF704E2F50E0FA0101
:101280003297EE30F105B0F4EE59FF4F0C94DE2F9B
:10129000803F91F018F4883E68F40EC0843F51F40A
:1012A0000BC0883E48F0813F29F406C093FB882795
:1012B00080F9089580E0089581E00895FC0180811F
:1012C00091810E946B0A0E943A090895CF93DF939F
:1012D00000D000D01F92CDB7DEB70F900F900F90C7
:1012E0000F900F90DF91CF910895CF93DF9300D0AF
:1012F00000D000D0CDB7DEB726960FB6F894DEBF8B
:101300000FBECDBFDF91CF910895089508950C943D
:1013100086090C9487090E9489098093ED010C9439
:101320001C090C948B099091ED01892B0C948B096D
:101330009091ED0189230C948B099091ED018927FF
:101340000C948B090C9486090E94A2098093EC01ED
:101350000C941C0980E00C94A40991E001C0990F41
:101360008A95EAF7892F0C94A40921E030E001C0A6
:10137000220F8A95EAF78091EC01822B0C94A40944
:1013800021E030E001C0220F8A95EAF72095809194
:10139000EC0182230C94A40921E030E001C0220F6B
:1013A0008A95EAF78091EC0182270C94A409909128
:1013B000EC01892B0C94A4099091EC0189230C94E5
:1013C000A4099091EC0189270C94A409089529E0BF
:1013D000929F800D1124E82FE695E695E69587709B
:1013E00051E001C0550F8A95EAF783E0E89FF001CC
:1013F0001124E553FE4F20E030E070E04081CB0146
:10140000022E02C0969587950A94E2F78170819525
:1014100084278523842781932F5F3F4F2330310515
:1014200069F7089529E0929F800D1124682F669531
:1014300066956695982F977083E0689FB001112498
:1014400040E050E080E0FB01E40FF51FE553FE4F64
:10145000208130E0092E02C0369527950A94E2F7E4
:1014600021703327042E01C0220F0A94EAF7822B41
:101470004F5F5F4F4330510531F70895CF92DF92B0
:10148000FF920F931F93CF93DF936C010091EC01B8
:101490008091ED01082BC7E0D0E010E0C8010C2ED0
:1014A00002C0959587950A94E2F780FD04C02197C4
:1014B000A8F7F12C07C0FC2EB6018C2F0E944D110D
:1014C0000197A9F38F2DDF91CF911F910F91FF907D
:1014D000DF90CF900895CF93DF93EC010E943E0AF6
:1014E000BE010E944D11DF91CF9108951F93CF93BC
:1014F000DF93EB019091CA01992321F0CB010E9467
:101500006B0A13C0882349F0CB010E943E0A182FB2
:10151000682FCE010E94E70904C0CB010E94120A85
:10152000182FBE01812F0E944D11DF91CF911F9185
:1015300008951F93CF93DF93C091EE0116E0809141
:10154000EF01C81799F0D0E01C9FF0011D9FF00D2E
:101550001124E051FE4F4081518162817381848169
:1015600095810E9475092196C770E9CFDF91CF91CF
:101570001F91089540912002509121026091220212
:101580007091230280912402909125020C94750998
:101590000F931F93CF93DF938091250282958F70D5
:1015A00009F05DC080912202882309F458C080911F
:1015B000EE011091EF016091200270912102C09123
:1015C0002302D091240291E06F3F09F090E0292F8F
:1015D00006E0811709F443C0209721F07F3F21F0F6
:1015E00030E003C031E001C0322F90E030FD34C064
:1015F000089FF001099FF00D1124DF01A051BE4F9B
:1016000011963C911197371327C03C91361324C093
:1016100012963C91129731111FC013964D915C9117
:1016200014974C1B5D0B483C5105B0F4809125028A
:101630008F70806180932502EB50FE4F80818F7008
:101640008061808380E292E00E94EC08DF91CF917C
:101650001F910F910C94990A01968770BACFDF9170
:10166000CF911F910F9108959F92AF92BF92CF9209
:10167000DF92EF92FF920F931F93CF93DF93CDB73B
:10168000DEB761970FB6F894DEBF0FBECDBF8C01F9
:1016900085E0F801DE011D9601900D928A95E1F733
:1016A000F801E280909120026091210220912302B2
:1016B000309124022115310531F06F3F31F481E082
:1016C0009F3F19F403C081E001C080E0F82FF17062
:1016D0009F2E80FD3FC1F80140815181A380B480DD
:1016E00080E2C82E82E0D82EF0902202F501E21BA3
:1016F000F30BFF2009F4D9C080912502E83CF105E5
:1017000008F095C0282F207F09F052C0561313C04F
:10171000491311C0FE2CE1100EC08F7080618093C0
:1017200025020E94BA0AC6010E94EC088091250297
:10173000F80185834CC1AB2831F05F3F31F481E083
:101740004F3F19F403C081E001C080E080FD03C079
:1017500081E08E2502C080E090E0F82FF170FF2E2E
:1017600080FF1CC08091EE012091EF0136E08217CE
:1017700009F40BC190E0389FF001399FF00D11245E
:10178000E051FE4F6181561306C06081461303C0CD
:101790006281E61203C001968770E9CFFE2CEE202D
:1017A00009F415C18091250281608093250254C0FF
:1017B000561306C0491304C0E11002C0F80199C0D5
:1017C000C8010E945E09882361F1EE2051F1209149
:1017D0002502822F82958F7090E0029774F080919D
:1017E00020029091210298878F831986BB86AA8652
:1017F0002C87CE0107960E94EC0886E0F801A0E253
:10180000B2E001900D928A95E1F70E94C80A0E9409
:10181000BA0A0AC0561711F1C8010E945E09811167
:101820002CC0C8010E94EC08FF24F394D0C0282FDC
:10183000207F81F77A2DB98AA88A6E2D89890E9426
:10184000660980E292E00E94EC0886E0F6011192BF
:101850008A95E9F70E94BA0AF12CB9C04913DCCF86
:10186000E110DACFF8018583C8010E94EC0886E018
:10187000F60111928A95E9F7AAC0EE2091F2209123
:101880002502822F82958F7090E002970CF4B5CFDD
:1018900080912002909121029A8389831B82BD82CC
:1018A000AC822E83CE010196A6CFE83CF10508F06C
:1018B00044C0FE2CEE2009F4B4CF561330C04913B7
:1018C0002EC02091250220FD21C0822F82958F708D
:1018D000482F50E041155105C9F0F80125834F30DC
:1018E000510541F08F5F982F9295907F822F8F70D6
:1018F000892B8583C8010E94EC0886E0F801A0E2EC
:10190000B2E001900D928A95E1F73CC086E0F801C3
:10191000A0E2B2E001900D928A95E1F758C0C801AB
:101920000E945E09811169CF8091250281608093B8
:101930002502C8010E94EC084AC07A2DB98AA88AFB
:101940006E2D89890E94660986E0F60111928A95BA
:10195000E9F718C0EE2009F464CFC8010E945E09BF
:10196000F82E882309F45DCF86E0F801A0E2B2E00A
:1019700001900D928A95E1F780E292E00E94AB051A
:101980000E94C80A0E94BA0A22C04D875E878D85D0
:101990009E850E946B0A292F22952F70223028F4F1
:1019A0009F7039F0811105C00BC0243028F49F705E
:1019B00049F4805E883020F0C8010E94EC089F2C1A
:1019C000F92C05C0F8019581907F99F7F9CF8F2DFB
:1019D00061960FB6F894DEBF0FBECDBFDF91CF91F9
:1019E0001F910F91FF90EF90DF90CF90BF90AF903D
:1019F0009F9008951F93CF93DF93CDB7DEB72C97B9
:101A00000FB6F894DEBF0FBECDBF4F8358876987EE
:101A10007A878B879C87CE0107960E94340B882398
:101A2000D1F09F8188852A853B85232B31F08F3F1C
:101A300031F481E09F3F19F403C081E001C080E0F0
:101A400080FD47C04F81588569857A858B859C8547
:101A50000E9475093EC086E0FE013796DE011196B0
:101A600001900D928A95E1F7FF81E8856A857B8573
:101A70006115710531F0EF3F31F481E0FF3F19F45A
:101A800003C081E001C080E080FD23C02091EF0110
:101A900030E0C9010196877099274091EE0150E02E
:101AA00084179507F1F1F983EA837D836C8396E0CF
:101AB000929FD001939FB00D1124A051BE4FFE0103
:101AC000319601900D929A95E1F78093EF010E9473
:101AD000990A16E08091EE019091EF01891771F15A
:101AE000189FC001112480519E4F0E94340B8823FF
:101AF00029F1E091EE011E9FF0011124E051FE4F0B
:101B00004081518162817381848195810E94750930
:101B10008091EE0190E00196877099278093EE0105
:101B2000D9CF0E9436091092EF011092EE01E0E247
:101B3000F2E086E0DF011D928A95E9F72C960FB658
:101B4000F894DEBF0FBECDBFDF91CF911F910895F6
:101B50008091260285958595859508958091260228
:101B60008770089590912602977081E009F480E0D3
:101B700008959091860292FB222720F9281751F0B0
:101B800080FB92F990938602809185029091860263
:101B90000C94B60E08958091860282FB882780F906
:101BA00091E089270C94B90D81E00C94B90D80E087
:101BB0000C94B90D80913202089590913202892BD4
:101BC0008093320208958095909132028923809308
:101BD0003202089510923202089590913102892BB9
:101BE00080933102089580959091310289238093EA
:101BF0003102089510923102089510923002089532
:101C000080912702089508950C94030E0C94040EFD
:101C10009091860292FD08C090912702981721F0BA
:101C2000809327020C94060E089580912702882342
:101C300029F01092270280E00C94060E0895E0919E
:101C40000001F0910101809132028083E091000156
:101C5000F0910101908180913102892B8083E09184
:101C60000001F0910101908180913002892B8083E5
:101C700080912702882381F0E0910001F091010119
:101C80009081892B808380910001909101010E94B5
:101C9000A92381110E94150E8091000190910101EC
:101CA0000C9464230C94030E9091860292FD10C054
:101CB00098E0899F90011124262B209326020E94F0
:101CC000B509809126028595859585950C94520ECF
:101CD0000C94B5091092260280E00C94520E2091CB
:101CE00026028095822380932602982F977041F4D4
:101CF00030E0482F082E000C550B2417350721F42F
:101D00009091860292FF07C08595859585950E94E2
:101D1000C0090C946A0E08956FEF7FEF80E090E0A9
:101D20000C94683080E090E00E944430893E9E4FE1
:101D300011F40C94FC1D80E0089582E090E00C9476
:101D4000363083E090E00C943630CF9384E090E01E
:101D50000E943630C82F82E290E00E9436302C2F4D
:101D600030E0A901582BCA01CF910895CF93C92F14
:101D7000682F84E090E00E944A306C2F82E290E06D
:101D8000CF910C944A30AB01BC018FE090E00C94F1
:101D90005C30AB01BC0183E190E00C945C3060E00E
:101DA00070E0CB010C94C90E60E070E0CB010E94A2
:101DB000C30E0C94CF0E69EE7EEF80E090E00E949F
:101DC000683060E082E090E00E944A3060E083E0AA
:101DD00090E00E944A301092ED0160E084E090E0D3
:101DE0000E944A3060E082E290E00E944A3060E067
:101DF00085E090E00E944A3060E086E090E00E943A
:101E00004A306FEF87E090E00E944A3040E050E0B7
:101E1000BA0188E090E00E945C3060E08DE090E0E4
:101E20000E944A3040E050E0BA0188E190E00E9410
:101E30005C3060E087E190E00E944A3040E050E092
:101E4000BA018CE190E00E945C3060E070E080E2DA
:101E500090E00E94683040E050E0BA0188E190E0F4
:101E60000E945C3080E00E94151E0E94411E0C946E
:101E7000D40E0C94DB0E682F8EE090E00C944A3068
:101E80000E948F2460934A0270934B0280934C020D
:101E900090934D02609346027093470280934802EC
:101EA00090934902089585B7806885BF85B780689B
:101EB00085BF089581E008950C945A0F08950C94FD
:101EC0005E0F0C945E0F0C94610F0C945E0F0C94DB
:101ED000650F0C945E0F0E94530F89E292E10E94FD
:101EE000E1240E94690F0C94670F0E945F0F0C940D
:101EF0005E0F0E947A240E94501E0E9427130E94A7
:101F0000131C0C94630F6F927F928F929F92AF92EB
:101F1000BF92CF92DF92EF92FF920F931F93CF93D6
:101F2000DF93CDB7DEB72A970FB6F894DEBF0FBEAA
:101F3000CDBF0E943A1381110E94400F34E3832EDB
:101F400032E0932E00E010E0C02E802F0E945D1240
:101F50005C01F401619071904F016826792661144B
:101F60007104B1F40F5F1F4F0930110569F78FEF4E
:101F700089838A831B820E9483248160782F9D83BA
:101F80008C8349815A816B818D810E9461053AC0A1
:101F900080914E0281FD0E946612D12CEE24E394C2
:101FA000F12CC3018E219F21892B29F10E945C0F06
:101FB0008823A9F0DE82CF82AE20BF2081E0AB284B
:101FC00009F480E088870E9483248160782F9A87B3
:101FD00089874E815F8168858A850E946105000F2F
:101FE000111FF801EC5CFD4F80819181E826F926F4
:101FF000F182E08207C0D394EE0CFF1CF9E0DF12FF
:10200000D0CFB0CF0E94571C0E943D150E9458238C
:10201000909133028917D1F00E94582380933302A4
:102020002A960FB6F894DEBF0FBECDBFDF91CF91D9
:102030001F910F91FF90EF90DF90CF90BF90AF90E6
:102040009F908F907F906F900C9458052A960FB6B2
:10205000F894DEBF0FBECDBFDF91CF911F910F91DE
:10206000FF90EF90DF90CF90BF90AF909F908F90B8
:102070007F906F900895CF93DF930E945211EC01EF
:10208000811521E5920708F045C0811530E59307D9
:1020900008F094C0883E910528F5803E910508F02F
:1020A000F8C0883A910570F4853A910508F07CC033
:1020B0008130910509F475C008F4E8C0049708F070
:1020C000E8C0E4C08F3B910508F0E0C0C85AD0E0FA
:1020D000CC0FDD1FC75ADE4F0990D881C02DCE012D
:1020E0009464D8C0811540E2940758F4811551E0FA
:1020F000950708F0CEC0803F910508F4C7C09065F1
:10210000C9C0C11580E4D80708F4C0C0DF70CE0193
:10211000906AC0C0811525E59207A8F4811534E5C1
:10212000930708F095C0811543E5940708F07BC03C
:10213000811552E5950708F061C0D82FCC27CE0154
:10214000816F906AA7C0C11589E5D807A0F4C115B1
:1021500028E5D20708F082C0C11536E5D30708F09C
:1021600095C08C2F0E94E6118F7190E0D82FCC275C
:10217000CE0190628FC0C1154AE5D40708F474C03F
:10218000CE0190568115904208F080C08D2F8F713E
:102190000E94E611DD27D0628F71AE01582BCA0173
:1021A00079C081E090E076C0C55AD0E0C957DE4FD3
:1021B0008881C82FD0E0CE0190646CC074E0969501
:1021C00087957A95E1F7282F23703C2F337081E0B3
:1021D00090E002C0880F991F3A95E2F79C68AC0125
:1021E000522B9A019C2F9F709695969550E2959F41
:1021F000E0011124C9018C2B9D2B4CC083709927C1
:1022000021E030E002C0220F331F8A95E2F79C2FB5
:102210009695969580E2989FE0011124C22BD32BCE
:10222000CE019C6837C08370992721E030E002C05E
:10223000220F331F8A95E2F79C2F9695969540E2E0
:10224000949FE0011124C22BD32BCE019A6822C0A7
:10225000D82FCC27CE01846F906A1CC0DC2FCC27EE
:10226000CE01806F906A16C08C2F8F700E94E6118D
:1022700094E0D695C7959A95E1F7CF70D0E0DC2F22
:10228000CC27D0699E01282BC90104C080E090E0D2
:1022900001C0CE01DF91CF9108950E9469200E9474
:1022A0003B1008958238910569F1B0F481339105AE
:1022B00009F46DC048F48932910509F463C08A328B
:1022C000910509F469C008958533910509F455C055
:1022D00089339105B9F00895833E910569F138F489
:1022E000803E9105B1F0823E910509F10895863E48
:1022F0009105A9F1873E9105B9F1843E910509F058
:1023000064C023C02091850220FD4FC021FD4DC037
:1023100008958091850280FD44C08091860280FFEF
:1023200044C08091850284FD42C083EE4DC08091FF
:10233000850282FF38C0F5CF8091850282FD33C0CF
:102340008091860280FD31C0ECCF8091860281FFB2
:1023500032C08091850284FD2AC087EE35C080910D
:10236000850283FF26C0F5CF8091850283FD21C0C1
:102370008091860281FD1FC0ECCF8091850285FD92
:102380001CC01DC08091850285FD19C016C08091BA
:10239000850286FD16C017C08091850286FD13C098
:1023A00010C089E311C082EE0FC080EE0DC080E046
:1023B0000BC086EE09C084EE07C089E205C085E344
:1023C00003C08AE201C081E390E008959091850204
:1023D00092FF0DC0282F2871283019F4877F846060
:1023E00006C0282F2471243011F48B7F886093FF5E
:1023F0000DC0282F2871283119F4877E846106C00A
:10240000282F2471243111F48B7E8861209186025B
:1024100020FF0DC0382F3871383019F4877F816064
:1024200006C0382F3171313011F48E7F886021FF62
:102430000DC0282F2871283119F4877E816106C0CC
:10244000282F2171213111F48E7E886194FD877EC1
:10245000089580E008950C948C0E0E943A138FE347
:102460009CE90197F1F700C000000E943A1380E058
:102470000E945D1282FF04C00E942B120C94D02493
:1024800008950C942D120E94920E811102C00E9498
:10249000390F0E949D0E80934E020E94A50E9093CC
:1024A0008602809385020E9441120E94A10E0E9422
:1024B00091098091EC010C94A209E82FF0E0EE0F55
:1024C000FF1FE756FD4F808191810895089580EAAE
:1024D0008A95F1F7089500C008950C946712089545
:1024E0000C946F120C9470120C946F120C94741262
:1024F000F894E82FE295EF70F0E031A1282F2F70CB
:1025000081E090E001C0880F2A95EAF7982F909516
:10251000932391A392A1892B82A3789408950F937A
:102520001F93CF93DF93CAE8D1E089918F3F11F0D9
:102530000E94781281E0C339D807B9F7CAE8D1E020
:1025400003E911E089918F3F11F00E9478120C1776
:102550001D07C1F7DF91CF911F910F910895AF92A1
:10256000BF92CF92DF92EF92FF920F931F93CF9380
:10257000DF938C01C62FD0E0CE0186579E4F6C01B1
:10258000DC019C919F3F09F457C0B62EF894E92FC7
:10259000E295EF70F0E081A19F7021E030E001C092
:1025A000220F9A95EAF7822B81A382A120952823F6
:1025B00022A378940E946B12EAE8F1E020E030E078
:1025C000E12CF12C41E050E081918F3FC1F0A82F28
:1025D000A295AF70B0E090966C9170E08F70DB01C7
:1025E00002C0B595A7958A95E2F7A0FD08C0CA017B
:1025F000022E02C0880F991F0A94E2F702C080E001
:1026000090E0E82AF92A2F5F3F4F29303105E1F6A3
:10261000F60180818F3F11F00E94781261E0E11491
:10262000F10409F460E08B2D0E946D12CC0FDD1FC8
:10263000C00FD11FF982E882DF91CF911F910F91D6
:10264000FF90EF90DF90CF90BF90AF9008950E94E1
:102650008F12E7E8F2E0A9E9B2E0119211921D921F
:102660001D9282E0E939F807C1F789E00E948513DD
:102670000C940604FF920F931F93CF93DF93CDB773
:10268000DEB762970FB6F894DEBF0FBECDBF8E01E6
:102690000F5F1F4F82E1F80111928A95E9F7F12C43
:1026A0006F2DC8010E94AF12F394F9E0FF12F8CF2A
:1026B00042E150E0B80187E892E00E942930FF240F
:1026C000F394009709F4F12C892B41F082E1F80191
:1026D000A7E8B2E001900D928A95E1F72F2D49E02D
:1026E00069E972E087E892E00E9486130E940C0478
:1026F0008F2D62960FB6F894DEBF0FBECDBFDF916F
:10270000CF911F910F91FF9008950895FF920F931D
:102710001F93CF93DF93F82E092F162FD72FC42F97
:10272000222349F081E0809351020E9483249093F8
:10273000500280934F02809151028823D9F08091FA
:102740004F02909150020E949B24059798F0EF2D24
:10275000F02FA12FBD2F80E090E04C2F50E0841788
:10276000950734F4219131912D933D930196F7CF44
:1027700010925102DF91CF911F910F91FF90089518
:102780000E94F6230E9475260E948E260E94A02693
:102790000E94750FFBCF8091580280FF0BC06091A3
:1027A000070185E0689FB0011124759567957595BF
:1027B00067952BC081FF09C06091070185E0689F84
:1027C000B00111247595679520C082FF07C0609104
:1027D000070185E0689FB001112417C0909157024E
:1027E0009923D1F060910601961788F7209107018F
:1027F00085E0289F90011124929FA001939F500D86
:10280000112470E0CA010E94A82F6038710540F4BD
:102810006115710519F406C065E070E0862F089512
:102820008FE7089581E008958091580280FF08C0E5
:102830006091030170E0759567957595679521C066
:1028400081FF06C06091030170E07595679519C01E
:1028500082FF04C06091030170E010C090915602A5
:10286000992399F0609102019617A0F780910301D6
:10287000899FC001112470E00E94A82F6038710563
:1028800040F46115710519F406C061E070E0862F0F
:1028900008958FE7089581E00895803F21F40E9414
:1028A000CB13819504C0813F29F40E94CB13809300
:1028B0005C020895823F21F40E94CB13819504C0ED
:1028C000833F29F40E94CB1380935B020895893FD4
:1028D00019F40E94141405C08A3F31F40E941414A4
:1028E000819580935D0208958B3F21F40E9414141A
:1028F000819504C08C3F29F40E94141480935E02D9
:1029000008959CE0980F953078F421E030E0A9011B
:1029100002C0440F551F9A95E2F7CA0190915A02DE
:10292000892B80935A0208958D3F21F4809158029B
:1029300081600BC08E3F21F480915802826005C0F7
:102940008F3F29F480915802846080935802089543
:10295000803F39F490915C0297FF35C010925C0281
:1029600059C0813F29F490915C021916BCF32BC029
:1029700090915B02823F29F497FF25C010925B0281
:1029800049C0833F19F41916CCF31DC090915D0224
:10299000893F29F41916BCF410925D023BC08A3FAE
:1029A00019F497FF10C0F8CF8B3F39F490915E0275
:1029B00097FF09C010925E022DC08C3F21F49091C8
:1029C0005E021916BCF39CE0980F953080F421E06C
:1029D00030E0A90102C0440F551F9A95E2F7CA01E1
:1029E000809590915A02892380935A0213C08D3F9B
:1029F00021F4809158028E7F0BC08E3F21F480918C
:102A000058028D7F05C08F3F29F4809158028B7F3B
:102A10008093580280915B02811106C080915C0214
:102A2000811102C01092570280915D02811106C08F
:102A300080915E02811102C01092560208950E9498
:102A4000832420915B02211104C020915C02222387
:102A500021F0909355028093540220915D02211140
:102A600004C020915E02222321F0909353028093B0
:102A7000520289E592E00C946F23EF92FF920F933C
:102A80001F93CF93DF9300D000D000D0CDB7DEB737
:102A900086E0E9E5F2E0DE01119601900D928A955B
:102AA000E1F7E0905B02F0905C0200915D02109112
:102AB0005E0210925B0210925C0210925D02109214
:102AC0005E02E11003C0FF2009F45DC08091540252
:102AD000909155020E949B24AC019091570299233A
:102AE00039F02091080130E02417350758F04BC029
:102AF000209109018AE0289F9001112424173507AD
:102B000018F041C09F3F19F09F5F90935702EE204D
:102B100061F00E94CB131E1414F09FEF01C091E0EE
:102B2000989F902D112490935B02FF2061F00E94EA
:102B3000CB131F1414F09FEF01C091E0989F902DCC
:102B4000112490935C0230915B023323E1F02091D9
:102B50005C022223C1F045EB3403C0011124992308
:102B600019F090935B0203C081E080935B0235EB28
:102B70002303C0011124992319F090935C0203C030
:102B800081E080935C02011103C0112309F45DC050
:102B900080915202909153020E949B24AC0190912B
:102BA0005602992339F02091040130E024173507AB
:102BB00058F04BC0209105018AE0289F9001112414
:102BC0002417350718F041C09F3F19F09F5F90937D
:102BD0005602002361F00E941414101614F09FEFA7
:102BE00001C091E0989F902D112490935D021123D4
:102BF00061F00E941414111614F09FEF01C091E0CF
:102C0000989F902D112490935E0230915D023323A2
:102C1000E1F020915E022223C1F045EB3403C001B4
:102C20001124992319F090935D0203C081E08093F1
:102C30005D0235EB2303C0011124992319F0909311
:102C40005E0203C081E080935E0280915B0281118D
:102C50000BC080915C02811107C080915D028111DF
:102C600003C080915E0281110E941F15EB82FC82DD
:102C70000D831E8386E0FE013196A9E5B2E0019046
:102C80000D928A95E1F726960FB6F894DEBF0FBE37
:102C9000CDBFDF91CF911F910F91FF90EF900895DD
:102CA000E9E5F2E086E0DF011D928A95E9F71092EE
:102CB000570210925602109258020895EF92FF9216
:102CC0000F931F93CF93DF938B01682F11110AC0CD
:102CD000442329F0E82FF0E0E35FFB4F6491762F67
:102CE000862F75C0212F30E0E82FF0E0442321F03B
:102CF000E35FFB4FE491F0E046E0049FC001112444
:102D0000CFEFD0E0BE010E94942F4BEA4603C001F2
:102D1000479F900D1124800F911D800F911D982FBA
:102D2000990F890FAE01421B530B4E9FD0014F9F4D
:102D3000B00D5E9FB00D11249B2F189FA001112490
:102D4000452F55278E01041B150B0E9FA0010F9FC9
:102D5000500D1E9F500D11247E01E81AF108E29ECD
:102D60008001E39E100DF29E100D1124212F3327B8
:102D7000C21BD30BCE9F9001CF9F300DDE9F300D35
:102D8000112462307105A9F048F46115710569F0EC
:102D900061307105C9F48B2F752F0DC0643071053A
:102DA00081F058F06630710579F47E2F8B2F932FC8
:102DB0000DC0832F7B2F9E2F09C08E2F7B2F952F29
:102DC00005C08E2F732F02C07E2F852F692FDF91B4
:102DD000CF911F910F91FF90EF90089541E00E94D5
:102DE0005E16089508950E94EE160895CF93DF931E
:102DF000762FE901682F842F0E94F3167983688368
:102E00008A83DF91CF9108958091AB02282F269578
:102E100030E02115310519F48170826005C025323A
:102E2000310524F0817088648093AB02089588E0B6
:102E300090E00C943E30CF92DF92EF92FF926B01C4
:102E40007C010E940417B701A60188E090E0FF9082
:102E5000EF90DF90CF900C945C306091AB0270915A
:102E6000AC028091AD029091AE020C941B17EBEA7C
:102E7000F2E083E0808311828FEF82838383148268
:102E800060817181828193810C941B178091AB02C8
:102E900080FF02C08695089580E008959091AF026A
:102EA000933018F49F5F9093AF02882351F06091A4
:102EB000AB027091AC028091AD029091AE020C9485
:102EC0001B17089581E00C944E179091AF0299233F
:102ED00019F091509093AF02882351F06091AB02AA
:102EE0007091AC028091AD029091AE020C941B17D0
:102EF000089581E00C9465178091AF020895809346
:102F0000AF02662351F06091AB027091AC028091E8
:102F1000AD029091AE020C941B17089560E00C94E2
:102F20007F178091AC0208958091AD020895809141
:102F3000AE02089570E00C94D11D60910E01809155
:102F4000AB0280FF0AC080910D0123E0829FC00187
:102F5000112480559D4F0C949A1780910F019091E8
:102F60001001891780F7E82FF0E09F01220F331F2F
:102F7000E20FF31FE055FD4F1182108212828F5F26
:102F8000F0CF9091AB0290FF16C090910F0120916D
:102F90001001921770F4E92FF0E0DF01AA0FBB1FB8
:102FA000EA0FFB1FE055FD4F8183608342839F5FE3
:102FB000F0CF0C949D170895CF93DF9300D01F920C
:102FC000CDB7DEB79091AB0290FF0AC09E012F5F94
:102FD0003F4F0E94F6164B8169818A810E94C1177A
:102FE0000F900F900F90DF91CF910895CF93DF93C3
:102FF000EC016C8170E080E090E00E94952D20E073
:1030000030E04FE753E40E94B82C2BED3FE049E459
:1030100050E40E94BE2E0E942B2F0E94322D2BE4E2
:103020003AE34EE25FE30E944B2C20EF3BEF48ED8A
:1030300052E40E94BE2E0E94642D462FEBEAF2E07D
:10304000628181810E94DC178C818F5F8C83DF918C
:10305000CF910895CF93DF93EC01EBEAF2E0438147
:1030600062818C810E94DC178C818F5F8C83DF9161
:10307000CF9108950F931F93CF93DF9300D01F92AA
:10308000CDB7DEB78C0180915F0281110AC09E012D
:103090002F5F3F4F4FEF6FEF0E94F6168A818093AC
:1030A0005F02F8018481813051F028F0823061F4B0
:1030B00040915F020AC080915F0240E007C06091CA
:1030C0005F0240E080E003C040E080E060E00E94FA
:1030D000C117F801848190E0019663E070E00E94DE
:1030E000A82F84830F900F900F90DF91CF911F91A5
:1030F0000F910895AF92BF92CF92DF92EF92FF921D
:103100000F931F93CF93DF9300D01F92CDB7DEB7FD
:10311000182FF62E042FE22E9091AB0290FF6DC077
:10312000E92FE695AE2FB0E0AD56BE4F8C9180935F
:103130006B029E7F923061F49E012F5F3F4F812F83
:103140000E94F6164B8169818A810E94C11743C093
:10315000823019F40091AE023EC0863019F410910D
:10316000AC0239C08930D9F38931A9F5E9518E2FE4
:103170008170D82EE695F0E0E85FFB4FA590B49003
:10318000C12CBB2460911101C61618F52C2D30E01E
:10319000A29EC001A39E900DB29E900D112470E0DE
:1031A0000E94942F812FD11002C0860F01C0861B70
:1031B00090910F01290F311DA901440F551F240FB4
:1031C000351F20553D4F402F6F2D0E94F616C3949A
:1031D000D9CF0E949D171093AC02F092AD020093DC
:1031E000AE02EE2051F06091AB027091AC02809182
:1031F000AD029091AE020E941B170F900F900F909E
:10320000DF91CF911F910F91FF90EF90DF90CF90C2
:10321000BF90AF900895EBEAF2E09181282F4381AF
:10322000628188E0890F0C947A1881E00C940B1964
:10323000EBEAF2E09181282F4381628188EF890FC8
:103240000C947A1881E00C941819EBEAF2E0628190
:1032500028E0620F08F46FEF282F438181810C94DE
:103260007A1881E00C942519EBEAF2E0628128E0FB
:10327000621B08F460E0282F438181810C947A1846
:1032800081E00C943419EBEAF2E0438128E0420F2C
:1032900008F44FEF282F628181810C947A1881E025
:1032A0000C944319EBEAF2E0438128E0421B08F456
:1032B00040E0282F628181810C947A1881E00C947F
:1032C000521920E00C947A18FF920F931F93CF931A
:1032D000DF93EC01F12C0FEF10E060911101F61675
:1032E000F0F480910F012F2D30E0280F311DC9011E
:1032F000880F991F280F391F20553D4F70E0C801D6
:103300000E94A82F962F8C814091AE026091AD0251
:10331000F99E800D11240E94F616F394DECF0E94D0
:103320009D179A818C8190FF02C08F5F01C08150F0
:103330008C83DF91CF911F910F91FF900895BF92E1
:10334000CF92DF92EF92FF920F931F93CF93DF9371
:10335000FC01828180FF02C00FEF01C001E010E09C
:1033600080911101181708F040C080910F01C12E03
:10337000D12CE601C80FD11DCE01880F991FC80FAF
:10338000D91FC055DD4F198218821A8234E0E32E0E
:10339000F12CB12C809161028B0D813114F08F7072
:1033A00005C087FF03C090911101890F082E000C02
:1033B000990BC816D90691F48091AE028E9DA0019A
:1033C0008F9D500D112455954795559547959E0114
:1033D0006091AD028091AC020E94F616B00EF1E051
:1033E000EF1AF108B9F61F5FBBCF0E949D178091BD
:1033F0006102013031F4811102C0809111018150CC
:1034000007C090E001966091110170E00E94A82F22
:1034100080936102DF91CF911F910F91FF90EF9008
:10342000DF90CF90BF900895CF9380910F0190913E
:103430001001891770F4E82FF0E09F01220F331F6D
:10344000E20FF31FE055FD4F1182108212828F5F51
:10345000F0CFC0E060911101C617C0F5EC2FF0E08D
:1034600070E0CF010E94A82F20910F01820F2091C0
:103470006002022E000C330B90E0E217F307CCF051
:1034800020910C01022E000C330B2E173F078CF0FD
:103490009C01220F331F820F931F9C0120553D4F2B
:1034A0004091AE026091AD028091AC020E94F6168E
:1034B0000BC0FC01EE0FFF1F8E0F9F1FFC01E0559C
:1034C000FD4F118210821282CF5FC4CF0E949D17E0
:1034D00020910B0180916002820F80936002909195
:1034E0000C01920F90930C0119165CF4082E000C3D
:1034F000990B4091110150E04150510984179507F3
:103500001CF0219520930B01CF9108958F929F92EB
:10351000AF92BF92CF92DF92EF92FF920F931F93E1
:10352000CF93DF938C01FC014481C42FD0E09E0136
:10353000DE010E94F32F9B01AC010E9409306B0158
:103540007C01E0E2F0E0EC1BFD0BA5E5B0E09B01A7
:10355000AC010E9409304B015C019F01DF010E9418
:10356000EB2F9B01AC010E9414309B01AC012C0D90
:103570003D1D4E1D5F1DC501B4010E94BC2FC22F11
:10358000D22F2A3228F4F3E02F9F900111240DC08E
:1035900025E530E02C1B3109C901880F991F280F40
:1035A000391F37FF02C02F5F3F4F35952795C22F38
:1035B000C095F12C85E5E82EED1A80911101F816E1
:1035C000C8F4F1FC02C08E2D01C08D2F90910F0127
:1035D0002F2D30E0290F311DA901440F551F240F55
:1035E000351F20553D4F4C2F6091AD020E94F616BD
:1035F000F394E3CF0E949D17F8018481811102C0EA
:1036000091E003C0803219F49FEF90930A019091EA
:103610000A01890FF8018483DF91CF911F910F91E7
:10362000FF90EF90DF90CF90BF90AF909F908F90E2
:1036300008950F931F93CF93DF93EC0100E010E008
:1036400080911101282F30E00217130724F5909183
:103650000F019801290F311DA901440F551F240F97
:10366000351F20553D4F869590E04C81081719076E
:103670001CF4442331F002C0411103C04091AE025A
:1036800001C040E06091AD028091AC020E94F6164C
:103690000F5F1F4FD5CF0E949D178C8190E0019640
:1036A000817099278C83DF91CF911F910F9108959D
:1036B000EBEAF2E080818E7F80836081718182817C
:1036C00093810E941B1710926C022FEF80E792E00B
:1036D000215080409040E1F700C000000C949D17FD
:1036E000EBEAF2E080818E7F808310926C022FEFF4
:1036F00080E792E0215080409040E1F700C0000058
:103700000C949D1710926C028091690281110AC07D
:1037100081E0809369028091AB028170809368029E
:103720000C94701B08956091AB02669570E04BE0BD
:1037300050E082E191E00E941C30892B19F481E075
:1037400080936C020E9483249093630280936202B0
:1037500008959091AB0290FF35C09170811102C025
:10376000926006C0853210F0986402C0880F982BD2
:103770009093AB02662351F06091AB027091AC0262
:103780008091AD029091AE020E941B176091AB0236
:10379000669570E04BE050E082E191E00E941C30C1
:1037A000892B19F010926C0202C00E94931B81E0D9
:1037B000809365024091AE026091AD028091AC02AF
:1037C0000C9461190895682F9091AB02969581E051
:1037D000890F853208F081E00C94A91B81E00C94DC
:1037E000E31B682F9091AB0296958FEF890F09F438
:1037F00084E20C94A91B81E00C94F11B61E00C9411
:10380000A91BEBEAF2E080818160808386950C94AD
:10381000FE1B8091AB0280FD0C94581B0C94011C84
:1038200060E00C94A91B80916A0281112EC00E9455
:10383000920E811104C00E94390F0E9437170E9416
:1038400017176093AB027093AC028093AD02909314
:10385000AE026E7F61F40E9437170E9417176093C3
:10386000AB027093AC028093AD029093AE020E94C3
:10387000041710926C028091AB0280FF03C0869502
:103880000E94101C81E080936A020895EBEAF2E046
:1038900080818160808386950C94101C109269024F
:1038A0008091680281110E94461C0C94931B0F9317
:1038B0001F93CF93DF9380916C02882309F485C016
:1038C00080916B02E091AB02E695E81BE093640205
:1038D000823049F4F0E0EC5FFB4FE491CE2FD0E072
:1038E00006EF17E149C0863049F4F0E0EF5FFB4F87
:1038F000E491CE2FD0E00AE218E13EC0893051F4C5
:10390000E695F0E0E250FC4FE491CE2FD0E004E6E3
:1039100019E132C08F3051F4E695F0E0E550FC4FEC
:10392000E491CE2FD0E00FE919E126C0853149F4AA
:10393000F0E0E850FC4FE491CE2FD0E004E11AE132
:103940001BC0883181F0833239F4E6EFF3E0C59192
:10395000D4910AE318E110C0843251F4C4EFD1E0ED
:1039600009E11BE109C0C8E2D0E006E81AE104C0A1
:10397000C0EDD7E002EF16E180916502882361F087
:10398000109265020E9483249093630280936202E6
:1039900010926702109266020E948324E0916202F4
:1039A000F09163028E1B9F0B8F3F9F4770F4EC0FCB
:1039B000FD1FF0936302E093620282E692E0F80159
:1039C000DF91CF911F910F910994DF91CF911F91BA
:1039D0000F910895882311F0FA0101C0FB010994A9
:1039E000CF93DF93C82FD62F0E9446178C1740F035
:1039F0000E9446178D1720F4DF91CF910C94EE1B97
:103A00008C2FDF91CF910C94FE1B1F93CF93DF93EC
:103A1000FB011281112309F4BCC0EC010E94DA0DF4
:103A20008272CC3CFCE5DF0709F497C008F043C084
:103A3000C63CECE5DE0709F47CC0D8F4C33C9CE549
:103A4000D90709F46AC038F4C23CDC4509F0A4C0C7
:103A50000E94091CA0C0C43C9CE5D90709F462C0BF
:103A6000C53CDC4509F098C042E259E165E179E1E5
:103A70005DC0C93CFCE5DF0709F465C070F4C73CD4
:103A8000ECE5DE0709F45AC0C83CDC4509F084C007
:103A900041E359E160E479E149C0CA3C9CE5D907BA
:103AA00009F456C0CB3CDC4509F076C049E757E144
:103AB00062E677E13BC0C13DFCE5DF0709F45AC08F
:103AC00098F4CE3C9CE5D90709F44EC008F44AC0EE
:103AD000CF3CFCE5DF0709F44AC0C03DDC4509F0F6
:103AE0005BC06EE089E04EC0C43D9CE5D90709F497
:103AF00047C050F4C23DFCE5DF07F9F1C33DDC45AA
:103B000009F04AC088E142C0C53D9CE5D907E9F10A
:103B1000CD35DD4509F43FC03FC04BEF5BE16EEEB4
:103B20007BE104C04EEE5BE16BEF7BE10E94EA1C9F
:103B300032C045E159E162E279E1F8CF40E459E170
:103B400061E379E1F3CF4EE559E16FE479E1EECF3E
:103B50004FE459E16EE579E1E9CF42E657E169E7E3
:103B600077E1E4CF81E012C065E082E00BC068E05D
:103B700086E008C064E18FE005C067E185E102C02E
:103B800062E289E10E94F01C06C083E20E94FE1BF3
:103B900002C011E001C010E0812FDF91CF911F9191
:103BA0000895539A2BB1277F3BB138604FB7F894F3
:103BB000FC01CB01880F991F680F791F6E0F7F1FC3
:103BC000E617F70789F0819198E03BB9000000C043
:103BD00087FF2BB9880F000000C000C000C02BB9C0
:103BE00000C09A9591F7ECCF4FBF8FE594E0019715
:103BF000F1F700C00000089583E290E00E943630A3
:103C0000823281F484E290E00E943630853051F4B3
:103C100085E290E00E94363091E0833209F090E036
:103C2000892F01C080E081700895CF93C82F811142
:103C300002C06FEF01C062E283E290E00E944A306E
:103C4000C11102C06FEF01C065E084E290E00E9404
:103C50004A30C11102C06FEF01C063E285E290E01B
:103C6000CF910C944A30089586E290E00E9436305D
:103C7000682F70E080E090E0089586E290E00C9478
:103C80004A3080E00E94151E60E070E0CB010E9487
:103C90003D1E0E94E41F0E94C32081E00C94151E6B
:103CA0000E94331E0E94FC1D811102C00C94411E13
:103CB0000895CF93FB01C281CC23E9F09C012251EE
:103CC0003F452031310520F482510E94D3200CC0A1
:103CD0008031FFE59F0751F481E00E94B50943E080
:103CE00062E081E00E94FD03C0E018C081319F4581
:103CF000A9F482E0F2CF8031EFE59E0711F481E074
:103D000004C081319F4549F482E00E94C00943E02C
:103D100062E081E00E94FD0301C0C1E08C2FCF91E1
:103D200008952FEFFC0120830895CF93DF93EC01DA
:103D30008881813889F028F48038A1F40E9497178F
:103D400010C0823861F0833869F40E94911789832A
:103D50000E9494178A8306C00E94461702C00E94E0
:103D60007C178983DF91CF910895CF93DF93EC0186
:103D700088818138B1F058F4803851F5D9810E949A
:103D80009417C82F0E9491174D2F6C2F1DC0823899
:103D9000B1F08338E9F40E949717482F6A8189812E
:103DA00013C089810E94101C8981811104C0DF9198
:103DB000CF910C94701BDF91CF910C94461C89819C
:103DC000DF91CF910C948E17DF91CF910C946119F4
:103DD000DF91CF910895EF92FF920F931F93CF93AE
:103DE000DF93EC01062F0196E8814E2F50E0FA0197
:103DF0003197E331F10508F09AC0E059FF4F0C9478
:103E0000DE2F198289E056C08981823039F08330F3
:103E100061F0813029F50E948F2402C00E94341E77
:103E20009A838B837C836D8384C07E0110E0812F15
:103E30000E945D12F701928383831F5FF2E0EF0E11
:103E4000F11C1930A1F775C08981823049F46A816B
:103E50007B818C819D810E94E42F0E943D1E69C060
:103E6000602FCE010E94911E64C04B816A818981BE
:103E70000E94B61F9C838D835CC02C813D813227BC
:103E8000232732274B816A8189810E94CF1F51C02D
:103E90000E94E41F4EC00E94B51E4BC00E94951E9A
:103EA00048C00E942D1745C00E94762024C00E9461
:103EB000782099838A833DC06B8170E089819A81E3
:103EC000AE014C5F5F4F9827892798270E947B207F
:103ED00030C06B8170E089819A81AE014C5F5F4F89
:103EE0009827892798270E94A02023C00E94C320DA
:103EF00020C00E94A31F89831CC06B8170E0898150
:103F00009A81AE014C5F5F4F9827892798270E94BE
:103F100023200FC06B8170E089819A81AE014C5FD4
:103F20005F4F9827892798270E94472002C08FEF6C
:103F30008883602FCE01DF91CF911F910F91FF9069
:103F4000EF900C94662584E0089550E0440F551FCF
:103F500022E1629F400D511D11249A0162EA869F61
:103F6000200D311D1124C901879608950F931F93C9
:103F7000CF93DF930E94A51F8C010E943630C82F7B
:103F8000D0E0DC2FCC27C80101960E9436309E017C
:103F9000282BC901DF91CF911F910F9108950F93A5
:103FA0001F93CF93DF93122F032F0E94A51FEC01C5
:103FB000602F0E944A30612FCE010196DF91CF9190
:103FC0001F910F910C944A30AF92BF92CF92DF9223
:103FD000EF92FF920F931F93CF93DF93A12CE12CCD
:103FE000F12CB12C00E010E0C0E0D0E06701C00E81
:103FF000D11EFE01EE0FFF1FEC0DFD1DE05AFE4F1E
:10400000259134914C2F6B2D8A2D0E94CF1F219624
:10401000C930D10571F70E5E1F4FB39489E0B81215
:10402000E3CF82EAE80EF11CA39484E0A812D9CF72
:10403000DF91CF911F910F91FF90EF90DF90CF9084
:10404000BF90AF900895EF92FF920F931F93CF937D
:10405000DF93EA017A01E60EF71E8C01C80187960C
:10406000CE15DF0569F0083822E0120720F40E941F
:104070003630888301C0188221960F5F1F4FEECF24
:10408000DF91CF911F910F91FF90EF900895EF92E4
:10409000FF920F931F93CF93DF93EA017A01E60E0D
:1040A000F71E8C01C8018796CE15DF0559F0083838
:1040B00022E0120718F468810E944A3021960F5FAF
:1040C0001F4FF0CFDF91CF911F910F91FF90EF9095
:1040D0000895462F843038F4793028F4693018F484
:1040E000672F0C94B61F80E090E0089580E108955A
:1040F00081E591E00895EF92FF920F931F93CF9384
:10410000DF93EA017A01E60EF71E8C01C8018155A2
:104110009D4FCE15DF0569F0013521E0120720F42F
:104120000E943630888301C0188221960F5F1F4F8E
:10413000EDCFDF91CF911F910F91FF90EF900895F8
:10414000EF92FF920F931F93CF93DF93EA017A01CF
:10415000E60EF71E8C01C80181559D4FCE15DF0577
:1041600059F0013521E0120718F468810E944A30A5
:1041700021960F5F1F4FEFCFDF91CF911F910F91CE
:10418000FF90EF900895CF93DF93CFEAD2E060E005
:10419000CE010E944A302196C11584E0D807B9F7B4
:1041A000DF91CF910895DF92EF92FF920F931F93CB
:1041B000CF93DF9300D000D0CDB7DEB7F82E8FE0DD
:1041C0008F15E8F18FEF93E00E943630811137C0F0
:1041D0000FEA12E0FF2069F0011584E0180779F179
:1041E000C8010E943630811101C0FA940F5F1F4F41
:1041F000F1CF19821A821B821C82DD24D3947801AC
:104200008FEFE81AF80AC8010E94363089831A82B3
:104210008823A9F09FEF980F933058F48A83D982AE
:104220000E5F1F4FC7010E9436308B83882339F001
:104230007801CE0101960E944D058701E0CF0F90D5
:104240000F900F900F90DF91CF911F910F91FF90E2
:10425000EF90DF9008950F931F93CF93DF93C42FB8
:10426000D22FFC0182818823C9F040936F020E9403
:10427000832490936E0280936D0280E28C0F8830CD
:1042800008F057C0C77081E001C0880FCA95EAF7EF
:10429000DF91CF911F910F910C94E30680916F02F3
:1042A000481330C080916D0290916E020E949B2451
:1042B000883C910538F510E21D0FCD17B9F080E26A
:1042C0008C0F883040F4C77081E001C0880FCA9518
:1042D000EAF70E94EA06183028F581E09D2F9770D2
:1042E00001C0880F9A95EAF70E94E306802F0E948A
:1042F000DA061830F0F4D77081E001C0880FDA9543
:10430000EAF70AC080E28C0F883098F4C77081E029
:1043100001C0880FCA95EAF7DF91CF911F910F91E5
:104320000C94EA06802FDF91CF911F910F910C948E
:10433000DA06DF91CF911F910F9108950F939C01A1
:10434000CB01233F4CE5340731F188F4283DFCE5EF
:104350003F07D9F0293D4CE5340779F1273D3C452D
:10436000A9F506E221EE41EE67ED7CE52BC0253F85
:10437000FCE53F07E1F0A8F0263F3C4539F507E2B0
:1043800025EE46EE66EF7CE51DC007E225EE45EE24
:1043900068ED7CE517C006E221EE40EE63EF7CE5B8
:1043A00011C007E225EE44EE64EF7CE50BC006E2A7
:1043B00021EE42EE65EF7CE505C008E221E045EE26
:1043C00069ED7CE50E942B2180E008C0FC01828120
:1043D000882319F010926F0201C081E00F910895B7
:1043E000CF93DF93EC01FB018281882309F426C17E
:1043F000C330FDE5DF0760F4CA3F9CE5D90768F4E8
:104400009E0122503C452431310508F018C105C0F9
:10441000C136EDE5DE0709F012C10E94A50E9093AA
:10442000860280938502C031FCE5DF0709F4CAC02B
:1044300008F041C0C8309CE5D90709F4A4C0F0F4E5
:10444000C430FCE5DF0709F48CC068F4C2309CE599
:10445000D90709F482C0C330DC4509F0E5C080917A
:1044600085028260DFC0C630FCE5DF0709F483C047
:1044700008F085C0809185028860D4C0CC309CE56E
:10448000D90709F490C068F4CA30FCE5DF0709F4E5
:104490007EC008F084C00E94360980918502806841
:1044A000C1C0CE309CE5D90709F481C008F086C0B0
:1044B0008091850294C0CC3FFCE5DF0709F47BC006
:1044C00038F5C4319CE5D90709F49AC058F4C231D3
:1044D000FCE5DF0709F47AC008F07EC08091850210
:1044E0008F7BA0C0CA3F9CE5D907F1F108F03FC01F
:1044F000C531DC4509F098C08091850282FB2227F6
:1045000020F991E0922790FB82F990FB83F98AC011
:10451000C1158DE5D80709F467C050F48091860273
:10452000CE3FECE5DE07C1F108F05BC08D7F65C0D2
:10453000C2308DE5D80709F471C008F46DC0C136EA
:10454000DD4509F071C08091850284FB222720F9A6
:1045500091E0922790FB84F965C08091850281608B
:1045600061C08091850216C08091860216C080913C
:104570008602826042C080918502806153C0809132
:10458000850280624FC08091850280644BC080911B
:1045900085028860846046C0826081602EC0809100
:1045A00085028E7F3FC0809185028D7F3BC08091C8
:1045B0008502877F37C08091860214C08091850272
:1045C0008F7E30C0809185028F7D2CC00E9436097D
:1045D000809185028F7726C080918502877F8B7FAF
:1045E00021C08D7F8E7F09C080918602982F909583
:1045F00091708E7F892B90FB81F98093860214C085
:104600000E9436098091850287FB222720F991E0DC
:10461000922790FB87F906C081E001C080E00E94EC
:104620003B0F02C0809385028091850290918602A3
:104630000E94B60E0E94360980E001C081E0DF9141
:10464000CF910895CF93DF9386319C4541F5EB01DF
:104650000E94DA0D982F8A8120910001309101018A
:10466000882379F09A7A81E009F480E080937002DF
:10467000911102C069E201C065E3C9010E94EB2308
:104680000AC080917002811102C069E201C065E335
:10469000C9010E94ED230E941F0E80E001C081E04D
:1046A000DF91CF91089590937602809375020895DB
:1046B000E0917502F0917602309721F00190F0813F
:1046C000E02D099480E00895E0917502F091760262
:1046D000309721F00280F381E02D09940895E09154
:1046E0007502F0917602309739F022E0DC012C93CC
:1046F0000480F581E02D0994089520917302309192
:1047000074022817390771F0909374028093730232
:10471000E0917502F0917602309721F00680F781E2
:10472000E02D0994089520917102309172022817AA
:10473000390771F09093720280937102E0917502D3
:10474000F0917602309721F00084F185E02D0994F4
:104750000895FC01329697E080E0915029F0219174
:104760002223D9F38F5FF9CF0895662349F0FC0126
:10477000329608962191621729F0E817F907D1F7C8
:1047800080E0089581E008959C01FC0132969FEF3E
:1047900080E04191461789F09F3F19F4411101C013
:1047A000982F8F5F8630A9F79F3F39F0F901E90F05
:1047B000F11D97FDFA956283089508959C012A5F83
:1047C0003F4FFC014281461301C0128201968217BD
:1047D0009307B9F708950C94C4230C94DE23029632
:1047E00026E0FC0111922A95E9F7089508950895AD
:1047F0000C94F7230C94F723CF930E94FA230E9482
:104800003A130E94F823C0E08C2F0E945D12892B7E
:1048100029F4CF5FC930C1F780E001C081E0CF91BA
:1048200008950C94F7230C9411248091E8028430AD
:1048300059F10E94132480E00E9458050E94821BB7
:104840001092770220E488E190E00FB6F894A895E2
:10485000809360000FBE2093600083B7817F8460E7
:1048600083BF83B7816083BF7894889583B78E7F39
:1048700083BF0FB6F894A8958091600088618093FB
:104880006000109260000FBE08950C94F7230E9400
:1048900036090E9458230E9458050E944E1C0C9411
:1048A00045241F920F920FB60F9211248F939F935E
:1048B000AF93BF9380917702811113C08091E00282
:1048C0009091E102A091E202B091E3024196A11D14
:1048D000B11D8093E0029093E102A093E202B093B5
:1048E000E302BF91AF919F918F910F900FBE0F90F8
:1048F0001F90189582E084BD93E095BD9AEF97BD17
:1049000080936E0008952FB7F8948091E002909103
:10491000E102A091E202B091E3022FBF08952FB708
:10492000F8946091E0027091E1028091E20290912E
:10493000E3022FBF08959C014FB7F8948091E002E5
:104940009091E102A091E202B091E3024FBF821B7D
:10495000930B089578941F920F920FB60F92112423
:104960008F939F93AF93BF938091E0029091E10268
:10497000A091E202B091E3020196A11DB11D8093C6
:10498000E0029093E102A093E202B093E302BF91B0
:10499000AF919F918F910F900FBE0F901F90189520
:1049A00087E797E790930108809300089AE088E1F1
:1049B0000FB6F894A895809360000FBE90936000A6
:1049C000FFCF9093C9018093C8010895809183021D
:1049D00008959091E802943029F5809378027093BD
:1049E0007A02609379029093E9008FEF9091E8004A
:1049F000815095FD06C095ED9A95F1F70000811163
:104A0000F5CF8091E80085FF0DC040E050E063E005
:104A100070E088E792E00E9462278091E8008E773C
:104A20008093E8000895BC0184E00C94E924BC0163
:104A300083E00C94E92424E02093E9002FEF3091E7
:104A4000E800215035FD06C035ED3A95F1F700003C
:104A50002111F5CF2091E80025FF0BC040E050E088
:104A600066E070E00E9462278091E8008E77809374
:104A7000E8000895CF93DF9321E02093E9002FEF22
:104A80003091E800215035FD06C035ED3A95F1F73B
:104A900000002111F5CF2091E80025FF14C0EC01A2
:104AA00040E050E068E070E00E9462278091E800FA
:104AB0008E778093E80088E0FE01ABE7B2E00190DA
:104AC0000D928A95E1F7DF91CF910895CF936032EF
:104AD00019F52091E8022430F9F4C091E900CF7073
:104AE0003091EC00232F217030FD20E8C22B22E012
:104AF0002093E9002091E80020FF0BC040E050E047
:104B000060E270E00E9462278091E8008E778093D7
:104B1000E800CF70C093E900CF9108958091E7023B
:104B2000811109C00E943E290E949B298091E200C8
:104B300084608093E20008951092E702089508953A
:104B40000895089542E061EC81E00E94B72842E2B6
:104B500061EC84E00E94B72842E261EC82E00E94AE
:104B6000B72842E260EC83E00C94B7288091EA0217
:104B7000833009F462C030F4813071F0823009F47E
:104B80009BC008958A3009F487C08B3009F46DC04A
:104B9000893009F0A9C020C08091E902813A09F06A
:104BA000A3C08091E800877F8093E8008091ED02A8
:104BB0009091EE02892B21F468E08BE792E003C02C
:104BC00060E080E090E070E00E94F8278091E800CB
:104BD0008B778093E80008958091E902813209F093
:104BE00083C08091ED029091EE02009719F0029738
:104BF00009F07AC08091E800877F8093E800809177
:104C0000E80082FD05C08091E8028111F8CF6CC0F8
:104C10002091F3008091F20090E0922B029729F40A
:104C20008091F1008B7F813021F48091F10080939D
:104C300083028091E8008B7753C08091E902813A2A
:104C400009F052C08091ED029091EE02892B09F09B
:104C50004BC08091E800877F8093E8008091E80056
:104C600080FFFCCF8091270136C08091E90281321C
:104C7000D9F58091ED029091EE02892BA9F58091F2
:104C8000E800877F8093E8000E94EC288091EB0287
:104C9000809327010C9436098091E902813221F535
:104CA0008091E800877F8093E8000E94EC28809143
:104CB000EC028093840208958091E902813AA1F484
:104CC0008091E800877F8093E8008091E80080FF72
:104CD000FCCF809184028093F1008091E8008E7770
:104CE0008093E8000C94EC28089584B7877F84BFF4
:104CF0000FB6F894A8958091600088618093600059
:104D0000109260000FBE90E080E80FB6F894809398
:104D10006100909361000FBE0C946B0F0E943E29BE
:104D20000E949B29E2EEF0E0808184608083789489
:104D30000E94302C0E94790F8DE191E00C94532356
:104D4000CF93DF93CDB7DEB7A0970FB6F894DEBF51
:104D50000FBECDBF8091E8028530A9F48091E802B2
:104D6000853079F40E9415248091E6028823B1F3FE
:104D70000E94FC23882391F30E944C270E9436094D
:104D8000EDCF0E9447240E94830F8091E802843077
:104D900011F583E08093E9008091E80082FF1BC059
:104DA0008091E80085FF0AC040E050E060E270E0DA
:104DB000CE0101960E94AD2791E001C090E0809164
:104DC000E8008B778093E800992329F060E2CE0118
:104DD00001960E94EB1EA0960FB6F894DEBF0FBEA0
:104DE000CDBFDF91CF9108950C94F626292F33275C
:104DF00023303105C9F060F42130310581F02230D3
:104E0000310509F041C08BE590E02DE335E040C06D
:104E100021323105E1F02232310531F135C082E134
:104E200090E028E935E034C099278130910549F0B8
:104E300028F0029749F5EDE0F5E005C0E9E3F5E07B
:104E400002C0E3E2F5E0849190E09F0121C063306D
:104E50007105D0F4660F771FFB01EF53FE4F2081E1
:104E6000318189E090E014C06330710568F4FB0182
:104E7000EE0FFF1FE554FE4F20813181FB01E85406
:104E8000FE4F808190E004C080E090E020E030E0C0
:104E9000FA0131832083089580E189BD82E189BDD3
:104EA00009B400FEFDCF8091D8008F7D8093D8009B
:104EB0008091E00082608093E0008091E00081FDBD
:104EC000FCCF0895CF92DF92EF92FF920F931F9342
:104ED000CF93DF93EC018B017A010E940B298111A2
:104EE00033C0E114F10439F0F70180819181081B8E
:104EF000190BC80FD91FC12CD12C0115110519F19F
:104F00008091E80085FD16C08091E8008E7780933F
:104F1000E800E114F10449F0F70180819181C80EA5
:104F2000D91ED182C08285E00FC00E940B29882340
:104F300021F30AC089918093F10001501109FFEF1C
:104F4000CF1ADF0ADACF80E0DF91CF911F910F9166
:104F5000FF90EF90DF90CF900895CF92DF92EF9285
:104F6000FF920F931F93CF93DF93EC018B017A0194
:104F70000E940B29811133C0E114F10439F0F701CB
:104F800080819181081B190BC80FD91FC12CD12C0E
:104F90000115110519F18091E80085FD16C0809179
:104FA000E8008B778093E800E114F10449F0F70101
:104FB00080819181C80ED91ED182C08285E00FC048
:104FC0000E940B29882321F30AC08091F100899364
:104FD00001501109FFEFCF1ADF0ADACF80E0DF912D
:104FE000CF911F910F91FF90EF90DF90CF90089598
:104FF0002091EF023091F0022617370748F0611533
:10500000710539F42091E8002E772093E80001C063
:10501000B901FC0120E06115710579F18091E80288
:105020008823F1F18530F1F18091E80083FD3CC0E7
:105030008091E80082FD2EC08091E80080FFEBCFD8
:105040002091F3008091F20090E0922B61157105A0
:1050500051F08830910538F421912093F10061508E
:1050600071090196F3CF21E0089709F020E08091C3
:10507000E8008E778093E800CECF2111CFCF0AC011
:105080008091E802882361F0853061F08091E8002A
:1050900083FD0AC08091E80082FFF2CF80E008958E
:1050A00082E0089583E0089581E008952091EF0261
:1050B0003091F0022617370748F06115710539F471
:1050C0002091E8002E772093E80001C0B901FC018F
:1050D00020E06115710591F18091E802882309F4BF
:1050E00040C0853009F43FC08091E80083FD3DC099
:1050F0008091E80082FD2FC08091E80080FFE9CF19
:105100002091F3008091F20090E0922B61157105DF
:1051100059F08830910540F424912093F1003196A4
:10512000615071090196F2CF21E0089709F020E063
:105130008091E8008E778093E800CBCF2111CCCF0F
:105140000AC08091E802882361F0853061F0809187
:10515000E80083FD0AC08091E80082FFF2CF80E082
:10516000089582E0089583E0089581E00895982FDE
:10517000973068F59093E900981739F07091EC003A
:105180002091ED005091F00003C0242F762F50E0C5
:1051900021FD02C09F5FECCF3091EB003E7F30934A
:1051A000EB003091ED003D7F3093ED003091EB004E
:1051B00031603093EB007093EC002093ED0050933E
:1051C000F0002091EE0027FDE5CF80E008958F707C
:1051D0008093E90081E008958091E90287FF11C082
:1051E0008091E80082FD05C08091E8028111F8CF2E
:1051F00011C08091E8008B770BC08091E802882372
:1052000049F08091E80080FFF8CF8091E8008E7728
:105210008093E80008952091E4003091E50095E640
:105220004091EC00842F817040FF23C08091E80002
:1052300080FD1DC08091E802882399F0853099F0A7
:105240008091EB0085FD11C04091E4005091E50094
:105250002417350729F3915011F09A01E1CF84E02A
:10526000089582E0089583E0089581E0089580E044
:1052700008954091E80042FFDDCF08950E94AC29D7
:105280000E94B429E0EEF0E0808181608083E8ED47
:10529000F0E080818F77808319BCA7EDB0E08C911E
:1052A0008E7F8C9380818F7E80831092E702089599
:1052B0000F931F93CF93DF930E94AC290E94B429D0
:1052C000C8EDD0E088818F77888388818068888363
:1052D00088818F7D888319BC1092E8021092E402C5
:1052E0001092E6021092E50200EE10E0F8018081D3
:1052F0008B7F808388818160888342E060E080E0EA
:105300000E94B728E1EEF0E080818E7F8083E2EE9C
:10531000F0E0808181608083808188608083F801F3
:1053200080818E7F8083888180618883DF91CF91A7
:105330001F910F910895E8EDF0E080818F7E8083CA
:10534000E7EDF0E080818160808384E082BF81E0CE
:105350008093E7020C945829E8EDF0E080818E7F7D
:1053600080831092E20008951092DA001092E1001A
:1053700008951F920F920FB60F9211242F933F930F
:105380004F935F936F937F938F939F93AF93BF934D
:10539000EF93FF938091E10082FF0BC08091E200C8
:1053A00082FF07C08091E1008B7F8093E1000E9423
:1053B0002F2C8091DA0080FF1FC08091D80080FFE1
:1053C0001BC08091DA008E7F8093DA008091D90033
:1053D00080FF0DC080E189BD82E189BD09B400FE76
:1053E000FDCF81E08093E8020E948E2505C019BCA4
:1053F0001092E8020E949C258091E10080FF19C074
:105400008091E20080FF15C08091E2008E7F809342
:10541000E2008091E20080618093E2008091D800F8
:1054200080628093D80019BC85E08093E8020E94D6
:10543000A0258091E10084FF30C08091E20084FFCC
:105440002CC080E189BD82E189BD09B400FEFDCF99
:105450008091D8008F7D8093D8008091E1008F7E6D
:105460008093E1008091E2008F7E8093E200809142
:10547000E20081608093E2008091E402882311F0D1
:1054800084E007C08091E30087FD02C081E001C095
:1054900083E08093E8020E94A1258091E10083FFD0
:1054A00029C08091E20083FF25C08091E100877FC1
:1054B0008093E10082E08093E8021092E402809100
:1054C000E1008E7F8093E1008091E2008E7F8093E7
:1054D000E2008091E20080618093E20042E060E0BF
:1054E00080E00E94B7288091F00088608093F000EF
:1054F0000E949F25FF91EF91BF91AF919F918F9156
:105500007F916F915F914F913F912F910F900FBEBF
:105510000F901F9018951F920F920FB60F921124A3
:105520002F933F934F935F936F937F938F939F93AB
:10553000AF93BF93CF93DF93EF93FF93C091E900B5
:10554000CF708091EC00D82FD17080FDD0E8109200
:10555000E9008091F000877F8093F00078940E94AA
:10556000CF2A1092E9008091F00088608093F000CB
:10557000CD2BCF70C093E900FF91EF91DF91CF91D8
:10558000BF91AF919F918F917F916F915F914F915B
:105590003F912F910F900FBE0F901F9018951F9362
:1055A000CF93DF93CDB7DEB7AA970FB6F894DEBFDF
:1055B0000FBECDBFE9EEF2E08091F100819322E0D1
:1055C000E13FF207C9F70E94B6258091E80083FF0A
:1055D0002EC18091E9029091EA02492F50E04A30B1
:1055E000510508F024C1FA01ED57FF4F0C94DE2F4E
:1055F000803821F0823809F01AC108C08091E50294
:105600009091E602992389F082600FC08091ED02AB
:105610008F70873008F00BC18093E9008091EB0018
:1056200085FB882780F91092E9009091E800977F28
:105630009093E8008093F1001092F100D1C0282FE0
:105640002D7F09F0F4C0882319F0823061F0EFC09B
:105650008091EB02813009F0EAC0933009F080E0DC
:105660008093E6022EC08091EB0281112AC08091C6
:10567000ED028F702FEF280F263008F0D8C08093EE
:10568000E9002091EB0020FF1CC0933021F48091B1
:10569000EB00806214C09091EB0090619093EB005E
:1056A00021E030E0A90102C0440F551F8A95E2F7BE
:1056B0004093EA001092EA008091EB0088608093AA
:1056C000EB001092E9008091E800877F8093E8006A
:1056D0000E94EC28ACC08111AAC01091EB021F7788
:1056E0008091E3008078812B8093E3008091E80033
:1056F000877F8093E8000E94EC288091E80080FF7B
:10570000FCCF8091E30080688093E300111102C018
:1057100082E001C083E08093E80289C08058823033
:1057200008F085C08091EB029091EC028C3D53E033
:10573000950779F583E08A838AE289834FB7F894E5
:10574000DE01139620E03EE051E2E32FF0E05093BB
:105750005700E49120FF03C0E295EF703F5FEF70C8
:105760008E2F90E0EA3010F0C79601C0C0968D935E
:105770009D932F5F243149F74FBF8091E800877FC9
:105780008093E8006AE270E0CE0101960E94F8275B
:1057900016C06091ED027091EE02AE014F5F5F4F57
:1057A0000E94F426BC01892B09F441C09091E800C5
:1057B000977F9093E80089819A810E945628809172
:1057C000E8008B778093E80032C0803881F58091C3
:1057D000E800877F8093E8008091E4028093F100E5
:1057E0008091E8008E7772CF811121C08091EB0209
:1057F0009091EC0299270297D4F48091E800877F7A
:105800008093E8008091EB028093E4020E94EC28F0
:105810008091E402811106C08091E30087FD02C0FF
:1058200081E001C084E08093E8020E94A22580917B
:10583000E80083FF0AC08091E800877F8093E8003A
:105840008091EB0080628093EB00AA960FB6F894EB
:10585000DEBF0FBECDBFDF91CF911F910895089598
:10586000CF938091E8028823A1F0C091E900CF7026
:105870009091EC00892F817090FD80E8C82B1092E8
:10588000E9008091E80083FD0E94CF2ACF70C09389
:10589000E900CF9108955058BB27AA270E94632C96
:1058A0000C940E2E0E94002E38F00E94072E20F03D
:1058B00039F49F3F19F426F40C94D62D0EF4E0959C
:1058C000E7FB0C94D02DE92F0E941F2E58F3BA1736
:1058D000620773078407950720F079F4A6F50C9406
:1058E000412E0EF4E0950B2EBA2FA02D0B01B9011D
:1058F00090010C01CA01A0011124FF27591B99F046
:10590000593F50F4503E68F11A16F040A22F232F51
:10591000342F4427585FF3CF469537952795A795A1
:10592000F0405395C9F77EF41F16BA0B620B730B48
:10593000840BBAF09150A1F0FF0FBB1F661F771FB9
:10594000881FC2F70EC0BA0F621F731F841F48F46E
:10595000879577956795B795F7959E3F08F0B0CFF7
:105960009395880F08F09927EE0F979587950895DE
:105970000E94CC2C0C940E2E0E94072E58F00E94F0
:10598000002E40F029F45F3F29F00C94D02D5111E6
:105990000C94422E0C94D62D0E941F2E68F399234E
:1059A000B1F3552391F3951B550BBB27AA2762171B
:1059B0007307840738F09F5F5F4F220F331F441F28
:1059C000AA1FA9F335D00E2E3AF0E0E832D091505C
:1059D0005040E695001CCAF72BD0FE2F29D0660F49
:1059E000771F881FBB1F261737074807AB07B0E88C
:1059F00009F0BB0B802DBF01FF2793585F4F3AF092
:105A00009E3F510578F00C94D02D0C94422E5F3FB0
:105A1000E4F3983ED4F3869577956795B795F79517
:105A20009F5FC9F7880F911D9695879597F90895FF
:105A3000E1E0660F771F881FBB1F6217730784079B
:105A4000BA0720F0621B730B840BBA0BEE1F88F7AA
:105A5000E095089529F416F00C94D02D0C94412E65
:105A60000C94D62D0E94272EA8F39638A0F707F89D
:105A70000F92E8942BE33AEA48EB5FE70E94D42EBA
:105A80000F920F920F924DB75EB70F920E948A2E1F
:105A9000EAE1F1E00E94D92D4F915F91EF91FF91E2
:105AA000E595EE1FFF1F49F0FE57E0684427EE0F13
:105AB000441FFA95E1F74195550B0E94542E0F9023
:105AC00007FE0C94482E08950E94272E88F09F57B9
:105AD00098F0B92F9927B751B0F0E1F0660F771F12
